{
  "_format": "hh-sol-artifact-1",
  "contractName": "LiquidityLocker",
  "sourceName": "contracts/liquidity/LiquidityLocker.sol",
  "abi": [
    {
      "anonymous": false,
      "inputs": [
        {
          "indexed": false,
          "internalType": "address",
          "name": "previousAdmin",
          "type": "address"
        },
        {
          "indexed": false,
          "internalType": "address",
          "name": "newAdmin",
          "type": "address"
        }
      ],
      "name": "AdminChanged",
      "type": "event"
    },
    {
      "anonymous": false,
      "inputs": [
        {
          "indexed": true,
          "internalType": "address",
          "name": "beacon",
          "type": "address"
        }
      ],
      "name": "BeaconUpgraded",
      "type": "event"
    },
    {
      "anonymous": false,
      "inputs": [
        {
          "indexed": true,
          "internalType": "uint256",
          "name": "id",
          "type": "uint256"
        },
        {
          "indexed": false,
          "internalType": "address",
          "name": "token",
          "type": "address"
        },
        {
          "indexed": false,
          "internalType": "address",
          "name": "owner",
          "type": "address"
        },
        {
          "indexed": false,
          "internalType": "uint256",
          "name": "amount",
          "type": "uint256"
        },
        {
          "indexed": false,
          "internalType": "uint256",
          "name": "unlockDate",
          "type": "uint256"
        }
      ],
      "name": "LockAdded",
      "type": "event"
    },
    {
      "anonymous": false,
      "inputs": [
        {
          "indexed": true,
          "internalType": "uint256",
          "name": "id",
          "type": "uint256"
        },
        {
          "indexed": false,
          "internalType": "address",
          "name": "token",
          "type": "address"
        },
        {
          "indexed": false,
          "internalType": "address",
          "name": "owner",
          "type": "address"
        },
        {
          "indexed": false,
          "internalType": "uint256",
          "name": "amount",
          "type": "uint256"
        },
        {
          "indexed": false,
          "internalType": "uint256",
          "name": "unlockedAt",
          "type": "uint256"
        }
      ],
      "name": "LockRemoved",
      "type": "event"
    },
    {
      "anonymous": false,
      "inputs": [
        {
          "indexed": true,
          "internalType": "uint256",
          "name": "id",
          "type": "uint256"
        },
        {
          "indexed": false,
          "internalType": "address",
          "name": "token",
          "type": "address"
        },
        {
          "indexed": false,
          "internalType": "address",
          "name": "owner",
          "type": "address"
        },
        {
          "indexed": false,
          "internalType": "uint256",
          "name": "newAmount",
          "type": "uint256"
        },
        {
          "indexed": false,
          "internalType": "uint256",
          "name": "newUnlockDate",
          "type": "uint256"
        }
      ],
      "name": "LockUpdated",
      "type": "event"
    },
    {
      "anonymous": false,
      "inputs": [
        {
          "indexed": true,
          "internalType": "address",
          "name": "previousOwner",
          "type": "address"
        },
        {
          "indexed": true,
          "internalType": "address",
          "name": "newOwner",
          "type": "address"
        }
      ],
      "name": "OwnershipTransferred",
      "type": "event"
    },
    {
      "anonymous": false,
      "inputs": [
        {
          "indexed": true,
          "internalType": "address",
          "name": "implementation",
          "type": "address"
        }
      ],
      "name": "Upgraded",
      "type": "event"
    },
    {
      "inputs": [],
      "name": "allLocks",
      "outputs": [
        {
          "components": [
            {
              "internalType": "uint256",
              "name": "id",
              "type": "uint256"
            },
            {
              "internalType": "address",
              "name": "token",
              "type": "address"
            },
            {
              "internalType": "address",
              "name": "owner",
              "type": "address"
            },
            {
              "internalType": "uint256",
              "name": "amount",
              "type": "uint256"
            },
            {
              "internalType": "uint256",
              "name": "lockDate",
              "type": "uint256"
            },
            {
              "internalType": "uint256",
              "name": "unlockDate",
              "type": "uint256"
            }
          ],
          "internalType": "struct LiquidityLocker.Lock[]",
          "name": "",
          "type": "tuple[]"
        }
      ],
      "stateMutability": "view",
      "type": "function"
    },
    {
      "inputs": [],
      "name": "allLpTokenLockedCount",
      "outputs": [
        {
          "internalType": "uint256",
          "name": "",
          "type": "uint256"
        }
      ],
      "stateMutability": "view",
      "type": "function"
    },
    {
      "inputs": [],
      "name": "allNormalTokenLockedCount",
      "outputs": [
        {
          "internalType": "uint256",
          "name": "",
          "type": "uint256"
        }
      ],
      "stateMutability": "view",
      "type": "function"
    },
    {
      "inputs": [
        {
          "internalType": "address",
          "name": "",
          "type": "address"
        }
      ],
      "name": "cumulativeLockInfo",
      "outputs": [
        {
          "internalType": "address",
          "name": "token",
          "type": "address"
        },
        {
          "internalType": "address",
          "name": "factory",
          "type": "address"
        },
        {
          "internalType": "uint256",
          "name": "amount",
          "type": "uint256"
        }
      ],
      "stateMutability": "view",
      "type": "function"
    },
    {
      "inputs": [
        {
          "internalType": "uint256",
          "name": "lockId",
          "type": "uint256"
        },
        {
          "internalType": "uint256",
          "name": "newAmount",
          "type": "uint256"
        },
        {
          "internalType": "uint256",
          "name": "newUnlockDate",
          "type": "uint256"
        }
      ],
      "name": "editLock",
      "outputs": [],
      "stateMutability": "payable",
      "type": "function"
    },
    {
      "inputs": [
        {
          "internalType": "uint256",
          "name": "start",
          "type": "uint256"
        },
        {
          "internalType": "uint256",
          "name": "end",
          "type": "uint256"
        }
      ],
      "name": "getCumulativeLpTokenLockInfo",
      "outputs": [
        {
          "components": [
            {
              "internalType": "address",
              "name": "token",
              "type": "address"
            },
            {
              "internalType": "address",
              "name": "factory",
              "type": "address"
            },
            {
              "internalType": "uint256",
              "name": "amount",
              "type": "uint256"
            }
          ],
          "internalType": "struct LiquidityLocker.CumulativeLockInfo[]",
          "name": "",
          "type": "tuple[]"
        }
      ],
      "stateMutability": "view",
      "type": "function"
    },
    {
      "inputs": [
        {
          "internalType": "uint256",
          "name": "index",
          "type": "uint256"
        }
      ],
      "name": "getCumulativeLpTokenLockInfoAt",
      "outputs": [
        {
          "components": [
            {
              "internalType": "address",
              "name": "token",
              "type": "address"
            },
            {
              "internalType": "address",
              "name": "factory",
              "type": "address"
            },
            {
              "internalType": "uint256",
              "name": "amount",
              "type": "uint256"
            }
          ],
          "internalType": "struct LiquidityLocker.CumulativeLockInfo",
          "name": "",
          "type": "tuple"
        }
      ],
      "stateMutability": "view",
      "type": "function"
    },
    {
      "inputs": [
        {
          "internalType": "uint256",
          "name": "start",
          "type": "uint256"
        },
        {
          "internalType": "uint256",
          "name": "end",
          "type": "uint256"
        }
      ],
      "name": "getCumulativeNormalTokenLockInfo",
      "outputs": [
        {
          "components": [
            {
              "internalType": "address",
              "name": "token",
              "type": "address"
            },
            {
              "internalType": "address",
              "name": "factory",
              "type": "address"
            },
            {
              "internalType": "uint256",
              "name": "amount",
              "type": "uint256"
            }
          ],
          "internalType": "struct LiquidityLocker.CumulativeLockInfo[]",
          "name": "",
          "type": "tuple[]"
        }
      ],
      "stateMutability": "view",
      "type": "function"
    },
    {
      "inputs": [
        {
          "internalType": "uint256",
          "name": "index",
          "type": "uint256"
        }
      ],
      "name": "getCumulativeNormalTokenLockInfoAt",
      "outputs": [
        {
          "components": [
            {
              "internalType": "address",
              "name": "token",
              "type": "address"
            },
            {
              "internalType": "address",
              "name": "factory",
              "type": "address"
            },
            {
              "internalType": "uint256",
              "name": "amount",
              "type": "uint256"
            }
          ],
          "internalType": "struct LiquidityLocker.CumulativeLockInfo",
          "name": "",
          "type": "tuple"
        }
      ],
      "stateMutability": "view",
      "type": "function"
    },
    {
      "inputs": [
        {
          "internalType": "uint256",
          "name": "index",
          "type": "uint256"
        }
      ],
      "name": "getLock",
      "outputs": [
        {
          "components": [
            {
              "internalType": "uint256",
              "name": "id",
              "type": "uint256"
            },
            {
              "internalType": "address",
              "name": "token",
              "type": "address"
            },
            {
              "internalType": "address",
              "name": "owner",
              "type": "address"
            },
            {
              "internalType": "uint256",
              "name": "amount",
              "type": "uint256"
            },
            {
              "internalType": "uint256",
              "name": "lockDate",
              "type": "uint256"
            },
            {
              "internalType": "uint256",
              "name": "unlockDate",
              "type": "uint256"
            }
          ],
          "internalType": "struct LiquidityLocker.Lock",
          "name": "",
          "type": "tuple"
        }
      ],
      "stateMutability": "view",
      "type": "function"
    },
    {
      "inputs": [
        {
          "internalType": "address",
          "name": "token",
          "type": "address"
        },
        {
          "internalType": "uint256",
          "name": "start",
          "type": "uint256"
        },
        {
          "internalType": "uint256",
          "name": "end",
          "type": "uint256"
        }
      ],
      "name": "getLocksForToken",
      "outputs": [
        {
          "components": [
            {
              "internalType": "uint256",
              "name": "id",
              "type": "uint256"
            },
            {
              "internalType": "address",
              "name": "token",
              "type": "address"
            },
            {
              "internalType": "address",
              "name": "owner",
              "type": "address"
            },
            {
              "internalType": "uint256",
              "name": "amount",
              "type": "uint256"
            },
            {
              "internalType": "uint256",
              "name": "lockDate",
              "type": "uint256"
            },
            {
              "internalType": "uint256",
              "name": "unlockDate",
              "type": "uint256"
            }
          ],
          "internalType": "struct LiquidityLocker.Lock[]",
          "name": "",
          "type": "tuple[]"
        }
      ],
      "stateMutability": "view",
      "type": "function"
    },
    {
      "inputs": [],
      "name": "getTotalLockCount",
      "outputs": [
        {
          "internalType": "uint256",
          "name": "",
          "type": "uint256"
        }
      ],
      "stateMutability": "view",
      "type": "function"
    },
    {
      "inputs": [],
      "name": "initialize",
      "outputs": [],
      "stateMutability": "nonpayable",
      "type": "function"
    },
    {
      "inputs": [
        {
          "internalType": "address",
          "name": "owner",
          "type": "address"
        },
        {
          "internalType": "address",
          "name": "token",
          "type": "address"
        },
        {
          "internalType": "bool",
          "name": "isLpToken",
          "type": "bool"
        },
        {
          "internalType": "uint256",
          "name": "amount",
          "type": "uint256"
        },
        {
          "internalType": "uint256",
          "name": "unlockDate",
          "type": "uint256"
        }
      ],
      "name": "lock",
      "outputs": [
        {
          "internalType": "uint256",
          "name": "id",
          "type": "uint256"
        }
      ],
      "stateMutability": "payable",
      "type": "function"
    },
    {
      "inputs": [
        {
          "internalType": "address",
          "name": "user",
          "type": "address"
        }
      ],
      "name": "lpLockCountForUser",
      "outputs": [
        {
          "internalType": "uint256",
          "name": "",
          "type": "uint256"
        }
      ],
      "stateMutability": "view",
      "type": "function"
    },
    {
      "inputs": [
        {
          "internalType": "address",
          "name": "user",
          "type": "address"
        },
        {
          "internalType": "uint256",
          "name": "index",
          "type": "uint256"
        }
      ],
      "name": "lpLockForUserAtIndex",
      "outputs": [
        {
          "components": [
            {
              "internalType": "uint256",
              "name": "id",
              "type": "uint256"
            },
            {
              "internalType": "address",
              "name": "token",
              "type": "address"
            },
            {
              "internalType": "address",
              "name": "owner",
              "type": "address"
            },
            {
              "internalType": "uint256",
              "name": "amount",
              "type": "uint256"
            },
            {
              "internalType": "uint256",
              "name": "lockDate",
              "type": "uint256"
            },
            {
              "internalType": "uint256",
              "name": "unlockDate",
              "type": "uint256"
            }
          ],
          "internalType": "struct LiquidityLocker.Lock",
          "name": "",
          "type": "tuple"
        }
      ],
      "stateMutability": "view",
      "type": "function"
    },
    {
      "inputs": [
        {
          "internalType": "address",
          "name": "user",
          "type": "address"
        }
      ],
      "name": "lpLocksForUser",
      "outputs": [
        {
          "components": [
            {
              "internalType": "uint256",
              "name": "id",
              "type": "uint256"
            },
            {
              "internalType": "address",
              "name": "token",
              "type": "address"
            },
            {
              "internalType": "address",
              "name": "owner",
              "type": "address"
            },
            {
              "internalType": "uint256",
              "name": "amount",
              "type": "uint256"
            },
            {
              "internalType": "uint256",
              "name": "lockDate",
              "type": "uint256"
            },
            {
              "internalType": "uint256",
              "name": "unlockDate",
              "type": "uint256"
            }
          ],
          "internalType": "struct LiquidityLocker.Lock[]",
          "name": "",
          "type": "tuple[]"
        }
      ],
      "stateMutability": "view",
      "type": "function"
    },
    {
      "inputs": [
        {
          "internalType": "address",
          "name": "user",
          "type": "address"
        }
      ],
      "name": "normalLockCountForUser",
      "outputs": [
        {
          "internalType": "uint256",
          "name": "",
          "type": "uint256"
        }
      ],
      "stateMutability": "view",
      "type": "function"
    },
    {
      "inputs": [
        {
          "internalType": "address",
          "name": "user",
          "type": "address"
        },
        {
          "internalType": "uint256",
          "name": "index",
          "type": "uint256"
        }
      ],
      "name": "normalLockForUserAtIndex",
      "outputs": [
        {
          "components": [
            {
              "internalType": "uint256",
              "name": "id",
              "type": "uint256"
            },
            {
              "internalType": "address",
              "name": "token",
              "type": "address"
            },
            {
              "internalType": "address",
              "name": "owner",
              "type": "address"
            },
            {
              "internalType": "uint256",
              "name": "amount",
              "type": "uint256"
            },
            {
              "internalType": "uint256",
              "name": "lockDate",
              "type": "uint256"
            },
            {
              "internalType": "uint256",
              "name": "unlockDate",
              "type": "uint256"
            }
          ],
          "internalType": "struct LiquidityLocker.Lock",
          "name": "",
          "type": "tuple"
        }
      ],
      "stateMutability": "view",
      "type": "function"
    },
    {
      "inputs": [
        {
          "internalType": "address",
          "name": "user",
          "type": "address"
        }
      ],
      "name": "normalLocksForUser",
      "outputs": [
        {
          "components": [
            {
              "internalType": "uint256",
              "name": "id",
              "type": "uint256"
            },
            {
              "internalType": "address",
              "name": "token",
              "type": "address"
            },
            {
              "internalType": "address",
              "name": "owner",
              "type": "address"
            },
            {
              "internalType": "uint256",
              "name": "amount",
              "type": "uint256"
            },
            {
              "internalType": "uint256",
              "name": "lockDate",
              "type": "uint256"
            },
            {
              "internalType": "uint256",
              "name": "unlockDate",
              "type": "uint256"
            }
          ],
          "internalType": "struct LiquidityLocker.Lock[]",
          "name": "",
          "type": "tuple[]"
        }
      ],
      "stateMutability": "view",
      "type": "function"
    },
    {
      "inputs": [],
      "name": "owner",
      "outputs": [
        {
          "internalType": "address",
          "name": "",
          "type": "address"
        }
      ],
      "stateMutability": "view",
      "type": "function"
    },
    {
      "inputs": [],
      "name": "renounceOwnership",
      "outputs": [],
      "stateMutability": "nonpayable",
      "type": "function"
    },
    {
      "inputs": [
        {
          "internalType": "address",
          "name": "token",
          "type": "address"
        }
      ],
      "name": "totalLockCountForToken",
      "outputs": [
        {
          "internalType": "uint256",
          "name": "",
          "type": "uint256"
        }
      ],
      "stateMutability": "view",
      "type": "function"
    },
    {
      "inputs": [
        {
          "internalType": "address",
          "name": "user",
          "type": "address"
        }
      ],
      "name": "totalLockCountForUser",
      "outputs": [
        {
          "internalType": "uint256",
          "name": "",
          "type": "uint256"
        }
      ],
      "stateMutability": "view",
      "type": "function"
    },
    {
      "inputs": [],
      "name": "totalTokenLockedCount",
      "outputs": [
        {
          "internalType": "uint256",
          "name": "",
          "type": "uint256"
        }
      ],
      "stateMutability": "view",
      "type": "function"
    },
    {
      "inputs": [
        {
          "internalType": "address",
          "name": "newOwner",
          "type": "address"
        }
      ],
      "name": "transferOwnership",
      "outputs": [],
      "stateMutability": "nonpayable",
      "type": "function"
    },
    {
      "inputs": [
        {
          "internalType": "uint256",
          "name": "lockId",
          "type": "uint256"
        }
      ],
      "name": "unlock",
      "outputs": [],
      "stateMutability": "nonpayable",
      "type": "function"
    },
    {
      "inputs": [
        {
          "internalType": "address",
          "name": "newImplementation",
          "type": "address"
        }
      ],
      "name": "upgradeTo",
      "outputs": [],
      "stateMutability": "nonpayable",
      "type": "function"
    },
    {
      "inputs": [
        {
          "internalType": "address",
          "name": "newImplementation",
          "type": "address"
        },
        {
          "internalType": "bytes",
          "name": "data",
          "type": "bytes"
        }
      ],
      "name": "upgradeToAndCall",
      "outputs": [],
      "stateMutability": "payable",
      "type": "function"
    },
    {
      "inputs": [],
      "name": "withdrawFee",
      "outputs": [],
      "stateMutability": "nonpayable",
      "type": "function"
    }
  ],
  "bytecode": "0x60a06040523060805234801561001457600080fd5b506080516133c6610045600039600081816107c20152818161080b015281816108a001526108e001526133c66000f3fe6080604052600436106101cd5760003560e01c8063a20b8c18116100f7578063da1d8cff11610095578063eb80bdae11610064578063eb80bdae1461053e578063eeacf7861461055e578063f2fde38b1461057e578063fd981c661461059e57600080fd5b8063da1d8cff1461047a578063e1444fd61461049a578063e3676f8814610509578063e941fa781461052957600080fd5b8063b3b9aa48116100d1578063b3b9aa4814610412578063b982922e14610425578063cd83eadc1461043a578063d68f4dd11461045a57600080fd5b8063a20b8c18146103b2578063aec640c6146103d2578063aef0e540146103f257600080fd5b8063618df7a31161016f57806376c128221161013e57806376c128221461031b5780637e6706d3146103485780638129fc1c146103755780638da5cb5b1461038a57600080fd5b8063618df7a3146102a65780636198e339146102d357806364be5b39146102f3578063715018a61461030657600080fd5b80633659cfe6116101ab5780633659cfe614610247578063475831c8146102695780634f1ef2861461027e5780635fbdf7391461029157600080fd5b806307873ef1146101d25780631982242c14610205578063332f26d71461021a575b600080fd5b3480156101de57600080fd5b506101f26101ed366004612d1c565b6105b3565b6040519081526020015b60405180910390f35b34801561021157600080fd5b506101f26105da565b34801561022657600080fd5b5061023a610235366004612d39565b6105fb565b6040516101fc9190612db6565b34801561025357600080fd5b50610267610262366004612d1c565b6107b7565b005b34801561027557600080fd5b506101f2610889565b61026761028c366004612e1a565b610895565b34801561029d57600080fd5b5061023a61094f565b3480156102b257600080fd5b506102c66102c1366004612ede565b6109f0565b6040516101fc9190612f0a565b3480156102df57600080fd5b506102676102ee366004612f18565b610aef565b6101f2610301366004612f3f565b610dde565b34801561031257600080fd5b5061026761107b565b34801561032757600080fd5b5061033b610336366004612f9a565b6110b1565b6040516101fc9190612fbc565b34801561035457600080fd5b50610368610363366004612f18565b611208565b6040516101fc9190613020565b34801561038157600080fd5b5061026761127f565b34801561039657600080fd5b506033546040516001600160a01b0390911681526020016101fc565b3480156103be57600080fd5b506103686103cd366004612f18565b61133f565b3480156103de57600080fd5b5061033b6103ed366004612f9a565b61136b565b3480156103fe57600080fd5b5061023a61040d366004612d1c565b6114b7565b61026761042036600461304f565b611612565b34801561043157600080fd5b506101f2611929565b34801561044657600080fd5b506101f2610455366004612d1c565b611935565b34801561046657600080fd5b506102c6610475366004612f18565b611953565b34801561048657600080fd5b5061023a610495366004612d1c565b6119d7565b3480156104a657600080fd5b506104e36104b5366004612d1c565b60d0602052600090815260409020805460018201546002909201546001600160a01b03918216929091169083565b604080516001600160a01b039485168152939092166020840152908201526060016101fc565b34801561051557600080fd5b506101f2610524366004612d1c565b611b2a565b34801561053557600080fd5b50610267611b4b565b34801561054a57600080fd5b506101f2610559366004612d1c565b611b9a565b34801561056a57600080fd5b506102c6610579366004612ede565b611bbb565b34801561058a57600080fd5b50610267610599366004612d1c565b611c3f565b3480156105aa57600080fd5b5060c9546101f2565b6001600160a01b038116600090815260ca602052604081206105d490611cd7565b92915050565b60006105e4610889565b6105ec611929565b6105f69190613091565b905090565b6001600160a01b038316600090815260d16020526040902060609061061f90611cd7565b8210610656576001600160a01b038416600090815260d16020526040902060019061064990611cd7565b61065391906130a9565b91505b600061066284846130a9565b61066d906001613091565b905060008167ffffffffffffffff81111561068a5761068a612e04565b6040519080825280602002602001820160405280156106c357816020015b6106b0612cbf565b8152602001906001900390816106a85790505b5090506000855b8581116107a9576001600160a01b038816600090815260d16020526040902060c9906106f69083611ce1565b81548110610706576107066130c0565b60009182526020918290206040805160c08101825260069093029091018054835260018101546001600160a01b0390811694840194909452600281015490931690820152600382015460608201526004820154608082015260059091015460a0820152835184908490811061077d5761077d6130c0565b60200260200101819052508180610793906130d6565b92505080806107a1906130d6565b9150506106ca565b5090925050505b9392505050565b306001600160a01b037f00000000000000000000000000000000000000000000000000000000000000001614156108095760405162461bcd60e51b8152600401610800906130f1565b60405180910390fd5b7f00000000000000000000000000000000000000000000000000000000000000006001600160a01b031661083b611ced565b6001600160a01b0316146108615760405162461bcd60e51b81526004016108009061313d565b61086a81611d1b565b6040805160008082526020820190925261088691839190611d45565b50565b60006105f660ce611cd7565b306001600160a01b037f00000000000000000000000000000000000000000000000000000000000000001614156108de5760405162461bcd60e51b8152600401610800906130f1565b7f00000000000000000000000000000000000000000000000000000000000000006001600160a01b0316610910611ced565b6001600160a01b0316146109365760405162461bcd60e51b81526004016108009061313d565b61093f82611d1b565b61094b82826001611d45565b5050565b606060c9805480602002602001604051908101604052809291908181526020016000905b828210156109e75760008481526020908190206040805160c08101825260068602909201805483526001808201546001600160a01b03908116858701526002830154169284019290925260038101546060840152600481015460808401526005015460a08301529083529092019101610973565b50505050905090565b6109f8612cbf565b81610a0284611b9a565b11610a4f5760405162461bcd60e51b815260206004820152601e60248201527f4c69717569646974794c6f636b65723a20496e76616c696420696e64657800006044820152606401610800565b6001600160a01b038316600090815260cb6020526040902060c990610a749084611ce1565b81548110610a8457610a846130c0565b60009182526020918290206040805160c08101825260069093029091018054835260018101546001600160a01b0390811694840194909452600281015490931690820152600382015460608201526004820154608082015260059091015460a0820152905092915050565b60c95481908110610b425760405162461bcd60e51b815260206004820181905260248201527f4c69717569646974794c6f636b65723a20496e76616c6964206c6f636b2069646044820152606401610800565b600060c98381548110610b5757610b576130c0565b600091825260209091206002600690920201908101549091506001600160a01b03163314610b975760405162461bcd60e51b815260040161080090613189565b8060050154421015610bfd5760405162461bcd60e51b815260206004820152602960248201527f4c69717569646974794c6f636b65723a204974206973206e6f742074696d6520604482015268746f20756e6c6f636b60b81b6064820152608401610800565b6000816003015411610c5c5760405162461bcd60e51b815260206004820152602260248201527f4c69717569646974794c6f636b65723a204e6f7468696e6720746f20756e6c6f604482015261636b60f01b6064820152608401610800565b6001808201546001600160a01b03908116600090815260d060205260409020918201541615801590610ca75733600090815260ca60205260409020610ca19086611e90565b50610cc2565b33600090815260cb60205260409020610cc09086611e90565b505b600383015460028301548110610cde5760006002840155610cf4565b808360020154610cee91906130a9565b60028401555b6002830154610d3f578115610d23576001840154610d1d9060cc906001600160a01b0316611e9c565b50610d3f565b6001840154610d3d9060ce906001600160a01b0316611e9c565b505b600060038501819055845460018601546001600160a01b0316825260d16020526040909120610d6d91611e90565b506001840154610d87906001600160a01b03163383611eb1565b835460018501546040517fc6532367992b32e42a62dd89fc3574876d97d081a263aa6e030f34b79b7e6e8b91610dce916001600160a01b03909116903390869042906131dc565b60405180910390a2505050505050565b6000428211610e555760405162461bcd60e51b815260206004820152603960248201527f4c69717569646974794c6f636b65723a20556e6c6f636b20646174652073686f60448201527f756c642062652061667465722063757272656e742074696d65000000000000006064820152608401610800565b60008311610ebe5760405162461bcd60e51b815260206004820152603060248201527f4c69717569646974794c6f636b65723a20416d6f756e742073686f756c64206260448201526f0652067726561746572207468616e20360841b6064820152608401610800565b8315611019576000856001600160a01b031663c45a01556040518163ffffffff1660e01b8152600401602060405180830381865afa925050508015610f20575060408051601f3d908101601f19168201909252610f1d91810190613205565b60015b610f825760405162461bcd60e51b815260206004820152602d60248201527f4c69717569646974794c6f636b65723a205468697320746f6b656e206973206e60448201526c37ba1030902628103a37b5b2b760991b6064820152608401610800565b90506001600160a01b03811615801590610fa15750610fa18682611f19565b6110045760405162461bcd60e51b815260206004820152602e60248201527f4c69717569646974794c6f636b65723a205468697320746f6b656e206973206e60448201526d37ba1030902628103a37b5b2b71760911b6064820152608401610800565b611011878783878761207c565b915050611028565b6110258686858561214d565b90505b61103485333086612217565b807f694af1cc8727cdd0afbdd53d9b87b69248bd490224e9dd090e788546506e076f8688868660405161106a94939291906131dc565b60405180910390a295945050505050565b6033546001600160a01b031633146110a55760405162461bcd60e51b815260040161080090613222565b6110af6000612385565b565b60606110bd60ce611cd7565b82106110dc5760016110cf60ce611cd7565b6110d991906130a9565b91505b60006110e884846130a9565b6110f3906001613091565b905060008167ffffffffffffffff81111561111057611110612e04565b60405190808252806020026020018201604052801561115b57816020015b604080516060810182526000808252602080830182905292820152825260001990920191018161112e5790505b5090506000855b8581116111fd5760d0600061117860ce84611ce1565b6001600160a01b039081168252602080830193909352604091820160002082516060810184528154831681526001820154909216938201939093526002909201549082015283518490849081106111d1576111d16130c0565b602002602001018190525081806111e7906130d6565b92505080806111f5906130d6565b915050611162565b509095945050505050565b604080516060810182526000808252602082018190529181019190915260d0600061123460ce85611ce1565b6001600160a01b039081168252602080830193909352604091820160002082516060810184528154831681526001820154909216938201939093526002909201549082015292915050565b600054610100900460ff1661129a5760005460ff161561129e565b303b155b6113015760405162461bcd60e51b815260206004820152602e60248201527f496e697469616c697a61626c653a20636f6e747261637420697320616c72656160448201526d191e481a5b9a5d1a585b1a5e995960921b6064820152608401610800565b600054610100900460ff16158015611323576000805461ffff19166101011790555b61132b6123d7565b8015610886576000805461ff001916905550565b604080516060810182526000808252602082018190529181019190915260d0600061123460cc85611ce1565b606061137760cc611cd7565b821061139657600161138960cc611cd7565b61139391906130a9565b91505b60006113a284846130a9565b6113ad906001613091565b905060008167ffffffffffffffff8111156113ca576113ca612e04565b60405190808252806020026020018201604052801561141557816020015b60408051606081018252600080825260208083018290529282015282526000199092019101816113e85790505b5090506000855b8581116111fd5760d0600061143260cc84611ce1565b6001600160a01b0390811682526020808301939093526040918201600020825160608101845281548316815260018201549092169382019390935260029092015490820152835184908490811061148b5761148b6130c0565b602002602001018190525081806114a1906130d6565b92505080806114af906130d6565b91505061141c565b6001600160a01b038116600090815260ca60205260408120606091906114dc90611cd7565b905060008167ffffffffffffffff8111156114f9576114f9612e04565b60405190808252806020026020018201604052801561153257816020015b61151f612cbf565b8152602001906001900390816115175790505b50905060005b8281101561160a576001600160a01b038516600090815260ca6020526040902060c9906115659083611ce1565b81548110611575576115756130c0565b60009182526020918290206040805160c08101825260069093029091018054835260018101546001600160a01b0390811694840194909452600281015490931690820152600382015460608201526004820154608082015260059091015460a082015282518390839081106115ec576115ec6130c0565b60200260200101819052508080611602906130d6565b915050611538565b509392505050565b60c954839081106116655760405162461bcd60e51b815260206004820181905260248201527f4c69717569646974794c6f636b65723a20496e76616c6964206c6f636b2069646044820152606401610800565b600060c9858154811061167a5761167a6130c0565b600091825260209091206002600690920201908101549091506001600160a01b031633146116ba5760405162461bcd60e51b815260040161080090613189565b60008160030154116117195760405162461bcd60e51b815260206004820152602260248201527f4c69717569646974794c6f636b65723a204c6f636b2077617320756e6c6f636b604482015261195960f21b6064820152608401610800565b82156117ca578060050154831015801561173257504283115b6117c25760405162461bcd60e51b815260206004820152605560248201527f4c69717569646974794c6f636b65723a204e657720756e6c6f636b2074696d6560448201527f2073686f756c64206e6f74206265206265666f7265206f6c6420756e6c6f636b6064820152742074696d65206f722063757272656e742074696d6560581b608482015260a401610800565b600581018390555b83156118c55780600301548410156118555760405162461bcd60e51b815260206004820152604260248201527f4c69717569646974794c6f636b65723a204e657720616d6f756e742073686f7560448201527f6c64206e6f74206265206c657373207468616e2063757272656e7420616d6f756064820152611b9d60f21b608482015260a401610800565b600081600301548561186791906130a9565b905080156118c3576001820154611889906001600160a01b0316333084612217565b6003820185905560018201546001600160a01b0316600090815260d06020526040902060028101546118bc908390613091565b6002909101555b505b805460018201546002830154600384015460058501546040517fa8b26360df8d5e154ffa5a8a7e894e85f781acfbbef0b744fb9551d8fd0fd36c9461191a946001600160a01b039182169491169290916131dc565b60405180910390a25050505050565b60006105f660cc611cd7565b6000611940826105b3565b61194983611b9a565b6105d49190613091565b61195b612cbf565b60c9828154811061196e5761196e6130c0565b60009182526020918290206040805160c08101825260069093029091018054835260018101546001600160a01b0390811694840194909452600281015490931690820152600382015460608201526004820154608082015260059091015460a082015292915050565b6001600160a01b038116600090815260cb60205260408120606091906119fc90611cd7565b905060008167ffffffffffffffff811115611a1957611a19612e04565b604051908082528060200260200182016040528015611a5257816020015b611a3f612cbf565b815260200190600190039081611a375790505b50905060005b8281101561160a576001600160a01b038516600090815260cb6020526040902060c990611a859083611ce1565b81548110611a9557611a956130c0565b60009182526020918290206040805160c08101825260069093029091018054835260018101546001600160a01b0390811694840194909452600281015490931690820152600382015460608201526004820154608082015260059091015460a08201528251839083908110611b0c57611b0c6130c0565b60200260200101819052508080611b22906130d6565b915050611a58565b6001600160a01b038116600090815260d1602052604081206105d490611cd7565b6033546001600160a01b03163314611b755760405162461bcd60e51b815260040161080090613222565b6110af47611b8b6033546001600160a01b031690565b6001600160a01b03169061240e565b6001600160a01b038116600090815260cb602052604081206105d490611cd7565b611bc3612cbf565b81611bcd846105b3565b11611c1a5760405162461bcd60e51b815260206004820152601e60248201527f4c69717569646974794c6f636b65723a20496e76616c696420696e64657800006044820152606401610800565b6001600160a01b038316600090815260ca6020526040902060c990610a749084611ce1565b6033546001600160a01b03163314611c695760405162461bcd60e51b815260040161080090613222565b6001600160a01b038116611cce5760405162461bcd60e51b815260206004820152602660248201527f4f776e61626c653a206e6577206f776e657220697320746865207a65726f206160448201526564647265737360d01b6064820152608401610800565b61088681612385565b60006105d4825490565b60006107b08383612527565b7f360894a13ba1a3210667c828492db98dca3e2076cc3735a920a3ca505d382bbc546001600160a01b031690565b6033546001600160a01b031633146108865760405162461bcd60e51b815260040161080090613222565b6000611d4f611ced565b9050611d5a84612551565b600083511180611d675750815b15611d7857611d7684846125f6565b505b7f4910fdfa16fed3260ed0e7147f7cc6da11a60208b5b9406d12a635614ffd9143805460ff16611e8957805460ff191660011781556040516001600160a01b0383166024820152611df790869060440160408051601f198184030181529190526020810180516001600160e01b0316631b2ce7f360e11b1790526125f6565b50805460ff19168155611e08611ced565b6001600160a01b0316826001600160a01b031614611e805760405162461bcd60e51b815260206004820152602f60248201527f45524331393637557067726164653a207570677261646520627265616b73206660448201526e75727468657220757067726164657360881b6064820152608401610800565b611e89856126e1565b5050505050565b60006107b08383612721565b60006107b0836001600160a01b038416612721565b6040516001600160a01b038316602482015260448101829052611f1490849063a9059cbb60e01b906064015b60408051601f198184030181529190526020810180516001600160e01b03166001600160e01b031990931692909217909152612814565b505050565b6000808390506000836001600160a01b031663e6a43905836001600160a01b0316630dfe16816040518163ffffffff1660e01b8152600401602060405180830381865afa158015611f6e573d6000803e3d6000fd5b505050506040513d601f19601f82011682018060405250810190611f929190613205565b846001600160a01b031663d21220a76040518163ffffffff1660e01b8152600401602060405180830381865afa158015611fd0573d6000803e3d6000fd5b505050506040513d601f19601f82011682018060405250810190611ff49190613205565b6040516001600160e01b031960e085901b1681526001600160a01b03928316600482015291166024820152604401602060405180830381865afa15801561203f573d6000803e3d6000fd5b505050506040513d601f19601f820116820180604052508101906120639190613205565b6001600160a01b03908116908616149250505092915050565b600061208a868685856128e6565b6001600160a01b038716600090815260ca602052604090209091506120af9082612a42565b506120bb60cc86612a4e565b506001600160a01b03808616600090815260d060205260409020805490911661210b5780546001600160a01b038088166001600160a01b0319928316178355600183018054918816919092161790555b83816002015461211b9190613091565b60028201556001600160a01b038616600090815260d1602052604090206121429083612a42565b505095945050505050565b600061215b858585856128e6565b6001600160a01b038616600090815260cb602052604090209091506121809082612a42565b5061218c60ce85612a4e565b506001600160a01b03808516600090815260d06020526040902080549091166121d65780546001600160a01b0386166001600160a01b031991821617825560018201805490911690555b8381600201546121e69190613091565b60028201556001600160a01b038516600090815260d16020526040902061220d9083612a42565b5050949350505050565b6040516370a0823160e01b81526001600160a01b038381166004830152600091908616906370a0823190602401602060405180830381865afa158015612261573d6000803e3d6000fd5b505050506040513d601f19601f820116820180604052508101906122859190613257565b905061229c6001600160a01b038616858585612a63565b6040516370a0823160e01b81526001600160a01b038481166004830152600091908716906370a0823190602401602060405180830381865afa1580156122e6573d6000803e3d6000fd5b505050506040513d601f19601f8201168201806040525081019061230a9190613257565b90508261231783836130a9565b1461237d5760405162461bcd60e51b815260206004820152603060248201527f4c69717569646974794c6f636b65723a204e6f7420656e6f75676820746f6b6560448201526f1b881dd85cc81d1c985b9cd9995c995960821b6064820152608401610800565b505050505050565b603380546001600160a01b038381166001600160a01b0319831681179093556040519116919082907f8be0079c531659141344cd1fd0a4f28419497f9722a3daafe3b4186f6b6457e090600090a35050565b600054610100900460ff166123fe5760405162461bcd60e51b815260040161080090613270565b612406612aa1565b6110af612ac8565b8047101561245e5760405162461bcd60e51b815260206004820152601d60248201527f416464726573733a20696e73756666696369656e742062616c616e63650000006044820152606401610800565b6000826001600160a01b03168260405160006040518083038185875af1925050503d80600081146124ab576040519150601f19603f3d011682016040523d82523d6000602084013e6124b0565b606091505b5050905080611f145760405162461bcd60e51b815260206004820152603a60248201527f416464726573733a20756e61626c6520746f2073656e642076616c75652c207260448201527f6563697069656e74206d617920686176652072657665727465640000000000006064820152608401610800565b600082600001828154811061253e5761253e6130c0565b9060005260206000200154905092915050565b803b6125b55760405162461bcd60e51b815260206004820152602d60248201527f455243313936373a206e657720696d706c656d656e746174696f6e206973206e60448201526c1bdd08184818dbdb9d1c9858dd609a1b6064820152608401610800565b7f360894a13ba1a3210667c828492db98dca3e2076cc3735a920a3ca505d382bbc80546001600160a01b0319166001600160a01b0392909216919091179055565b6060823b6126555760405162461bcd60e51b815260206004820152602660248201527f416464726573733a2064656c65676174652063616c6c20746f206e6f6e2d636f6044820152651b9d1c9858dd60d21b6064820152608401610800565b600080846001600160a01b03168460405161267091906132e7565b600060405180830381855af49150503d80600081146126ab576040519150601f19603f3d011682016040523d82523d6000602084013e6126b0565b606091505b50915091506126d8828260405180606001604052806027815260200161336a60279139612af8565b95945050505050565b6126ea81612551565b6040516001600160a01b038216907fbc7cd75a20ee27fd9adebab32041f755214dbc6bffa90cc0225b39da2e5c2d3b90600090a250565b6000818152600183016020526040812054801561280a5760006127456001836130a9565b8554909150600090612759906001906130a9565b90508181146127be576000866000018281548110612779576127796130c0565b906000526020600020015490508087600001848154811061279c5761279c6130c0565b6000918252602080832090910192909255918252600188019052604090208390555b85548690806127cf576127cf613303565b6001900381819060005260206000200160009055905585600101600086815260200190815260200160002060009055600193505050506105d4565b60009150506105d4565b6000612869826040518060400160405280602081526020017f5361666545524332303a206c6f772d6c6576656c2063616c6c206661696c6564815250856001600160a01b0316612b319092919063ffffffff16565b805190915015611f1457808060200190518101906128879190613319565b611f145760405162461bcd60e51b815260206004820152602a60248201527f5361666545524332303a204552433230206f7065726174696f6e20646964206e6044820152691bdd081cdd58d8d9595960b21b6064820152608401610800565b60c980546040805160c0810182528281526001600160a01b039687166020820190815297871691810191825260608101958652426080820190815260a0820195865260018401855560009490945251600683027f66be4f155c5ef2ebd3772b228f2f00681e4ed5826cdb3b1943cc11ad15ad1d2881019190915596517f66be4f155c5ef2ebd3772b228f2f00681e4ed5826cdb3b1943cc11ad15ad1d29880180549188166001600160a01b031992831617905590517f66be4f155c5ef2ebd3772b228f2f00681e4ed5826cdb3b1943cc11ad15ad1d2a880180549190971691161790945591517f66be4f155c5ef2ebd3772b228f2f00681e4ed5826cdb3b1943cc11ad15ad1d2b85015590517f66be4f155c5ef2ebd3772b228f2f00681e4ed5826cdb3b1943cc11ad15ad1d2c840155517f66be4f155c5ef2ebd3772b228f2f00681e4ed5826cdb3b1943cc11ad15ad1d2d9092019190915590565b60006107b08383612b48565b60006107b0836001600160a01b038416612b48565b6040516001600160a01b0380851660248301528316604482015260648101829052612a9b9085906323b872dd60e01b90608401611edd565b50505050565b600054610100900460ff166110af5760405162461bcd60e51b815260040161080090613270565b600054610100900460ff16612aef5760405162461bcd60e51b815260040161080090613270565b6110af33612385565b60608315612b075750816107b0565b825115612b175782518084602001fd5b8160405162461bcd60e51b81526004016108009190613336565b6060612b408484600085612b97565b949350505050565b6000818152600183016020526040812054612b8f575081546001818101845560008481526020808220909301849055845484825282860190935260409020919091556105d4565b5060006105d4565b606082471015612bf85760405162461bcd60e51b815260206004820152602660248201527f416464726573733a20696e73756666696369656e742062616c616e636520666f6044820152651c8818d85b1b60d21b6064820152608401610800565b843b612c465760405162461bcd60e51b815260206004820152601d60248201527f416464726573733a2063616c6c20746f206e6f6e2d636f6e74726163740000006044820152606401610800565b600080866001600160a01b03168587604051612c6291906132e7565b60006040518083038185875af1925050503d8060008114612c9f576040519150601f19603f3d011682016040523d82523d6000602084013e612ca4565b606091505b5091509150612cb4828286612af8565b979650505050505050565b6040518060c001604052806000815260200160006001600160a01b0316815260200160006001600160a01b031681526020016000815260200160008152602001600081525090565b6001600160a01b038116811461088657600080fd5b600060208284031215612d2e57600080fd5b81356107b081612d07565b600080600060608486031215612d4e57600080fd5b8335612d5981612d07565b95602085013595506040909401359392505050565b80518252602081015160018060a01b0380821660208501528060408401511660408501525050606081015160608301526080810151608083015260a081015160a08301525050565b6020808252825182820181905260009190848201906040850190845b81811015612df857612de5838551612d6e565b9284019260c09290920191600101612dd2565b50909695505050505050565b634e487b7160e01b600052604160045260246000fd5b60008060408385031215612e2d57600080fd5b8235612e3881612d07565b9150602083013567ffffffffffffffff80821115612e5557600080fd5b818501915085601f830112612e6957600080fd5b813581811115612e7b57612e7b612e04565b604051601f8201601f19908116603f01168101908382118183101715612ea357612ea3612e04565b81604052828152886020848701011115612ebc57600080fd5b8260208601602083013760006020848301015280955050505050509250929050565b60008060408385031215612ef157600080fd5b8235612efc81612d07565b946020939093013593505050565b60c081016105d48284612d6e565b600060208284031215612f2a57600080fd5b5035919050565b801515811461088657600080fd5b600080600080600060a08688031215612f5757600080fd5b8535612f6281612d07565b94506020860135612f7281612d07565b93506040860135612f8281612f31565b94979396509394606081013594506080013592915050565b60008060408385031215612fad57600080fd5b50508035926020909101359150565b6020808252825182820181905260009190848201906040850190845b81811015612df85761300d83855180516001600160a01b03908116835260208083015190911690830152604090810151910152565b9284019260609290920191600101612fd8565b81516001600160a01b0390811682526020808401519091169082015260408083015190820152606081016105d4565b60008060006060848603121561306457600080fd5b505081359360208301359350604090920135919050565b634e487b7160e01b600052601160045260246000fd5b600082198211156130a4576130a461307b565b500190565b6000828210156130bb576130bb61307b565b500390565b634e487b7160e01b600052603260045260246000fd5b60006000198214156130ea576130ea61307b565b5060010190565b6020808252602c908201527f46756e6374696f6e206d7573742062652063616c6c6564207468726f7567682060408201526b19195b1959d85d1958d85b1b60a21b606082015260800190565b6020808252602c908201527f46756e6374696f6e206d7573742062652063616c6c6564207468726f7567682060408201526b6163746976652070726f787960a01b606082015260800190565b60208082526033908201527f4c69717569646974794c6f636b65723a20596f7520617265206e6f7420746865604082015272206f776e6572206f662074686973206c6f636b60681b606082015260800190565b6001600160a01b0394851681529290931660208301526040820152606081019190915260800190565b60006020828403121561321757600080fd5b81516107b081612d07565b6020808252818101527f4f776e61626c653a2063616c6c6572206973206e6f7420746865206f776e6572604082015260600190565b60006020828403121561326957600080fd5b5051919050565b6020808252602b908201527f496e697469616c697a61626c653a20636f6e7472616374206973206e6f74206960408201526a6e697469616c697a696e6760a81b606082015260800190565b60005b838110156132d65781810151838201526020016132be565b83811115612a9b5750506000910152565b600082516132f98184602087016132bb565b9190910192915050565b634e487b7160e01b600052603160045260246000fd5b60006020828403121561332b57600080fd5b81516107b081612f31565b60208152600082518060208401526133558160408501602087016132bb565b601f01601f1916919091016040019291505056fe416464726573733a206c6f772d6c6576656c2064656c65676174652063616c6c206661696c6564a26469706673582212208cbaea8e275fad2a294a4f49bfbbb8bdf6edcb4f067a8d5f3817cdc3faa6a9f064736f6c634300080b0033",
  "linkReferences": {},
  "deployedLinkReferences": {}
}