{
  "_format": "hh-sol-artifact-1",
  "contractName": "RetroNeko",
  "sourceName": "contracts/tokens/RetroNeko.sol",
  "abi": [
    {
      "inputs": [],
      "stateMutability": "nonpayable",
      "type": "constructor"
    },
    {
      "anonymous": false,
      "inputs": [
        {
          "indexed": false,
          "internalType": "address",
          "name": "previousAdmin",
          "type": "address"
        },
        {
          "indexed": false,
          "internalType": "address",
          "name": "newAdmin",
          "type": "address"
        }
      ],
      "name": "AdminChanged",
      "type": "event"
    },
    {
      "anonymous": false,
      "inputs": [
        {
          "indexed": true,
          "internalType": "address",
          "name": "owner",
          "type": "address"
        },
        {
          "indexed": true,
          "internalType": "address",
          "name": "spender",
          "type": "address"
        },
        {
          "indexed": false,
          "internalType": "uint256",
          "name": "value",
          "type": "uint256"
        }
      ],
      "name": "Approval",
      "type": "event"
    },
    {
      "anonymous": false,
      "inputs": [
        {
          "indexed": true,
          "internalType": "address",
          "name": "pair",
          "type": "address"
        },
        {
          "indexed": true,
          "internalType": "bool",
          "name": "value",
          "type": "bool"
        }
      ],
      "name": "AutomatedMarketMakerPairSet",
      "type": "event"
    },
    {
      "anonymous": false,
      "inputs": [
        {
          "indexed": true,
          "internalType": "address",
          "name": "beacon",
          "type": "address"
        }
      ],
      "name": "BeaconUpgraded",
      "type": "event"
    },
    {
      "anonymous": false,
      "inputs": [
        {
          "indexed": false,
          "internalType": "uint256",
          "name": "previousLiquidityFeesPerTenThousand",
          "type": "uint256"
        },
        {
          "indexed": false,
          "internalType": "uint256",
          "name": "newLiquidityFeesPerTenThousand",
          "type": "uint256"
        },
        {
          "indexed": false,
          "internalType": "uint256",
          "name": "previousTeamFeesPerTenThousand",
          "type": "uint256"
        },
        {
          "indexed": false,
          "internalType": "uint256",
          "name": "newTeamFeesPerTenThousand",
          "type": "uint256"
        },
        {
          "indexed": false,
          "internalType": "uint256",
          "name": "previousMarketingFeesPerTenThousand",
          "type": "uint256"
        },
        {
          "indexed": false,
          "internalType": "uint256",
          "name": "newMarketingFeesPerTenThousand",
          "type": "uint256"
        },
        {
          "indexed": false,
          "internalType": "uint256",
          "name": "previousStakingFeesPerTenThousand",
          "type": "uint256"
        },
        {
          "indexed": false,
          "internalType": "uint256",
          "name": "newStakingFeesPerTenThousand",
          "type": "uint256"
        },
        {
          "indexed": false,
          "internalType": "uint256",
          "name": "previousWarFeesPerTenThousand",
          "type": "uint256"
        },
        {
          "indexed": false,
          "internalType": "uint256",
          "name": "newWarFeesPerTenThousand",
          "type": "uint256"
        }
      ],
      "name": "BuyFeesUpdated",
      "type": "event"
    },
    {
      "anonymous": false,
      "inputs": [
        {
          "indexed": true,
          "internalType": "address",
          "name": "account",
          "type": "address"
        },
        {
          "indexed": false,
          "internalType": "bool",
          "name": "isExcluded",
          "type": "bool"
        }
      ],
      "name": "ExcludedFromFees",
      "type": "event"
    },
    {
      "anonymous": false,
      "inputs": [
        {
          "indexed": true,
          "internalType": "address",
          "name": "wallet",
          "type": "address"
        },
        {
          "indexed": false,
          "internalType": "uint256",
          "name": "amount",
          "type": "uint256"
        }
      ],
      "name": "FeesSentToWallet",
      "type": "event"
    },
    {
      "anonymous": false,
      "inputs": [
        {
          "indexed": true,
          "internalType": "uint256",
          "name": "oldValue",
          "type": "uint256"
        },
        {
          "indexed": true,
          "internalType": "uint256",
          "name": "newValue",
          "type": "uint256"
        }
      ],
      "name": "GasForProcessingUpdated",
      "type": "event"
    },
    {
      "anonymous": false,
      "inputs": [
        {
          "indexed": false,
          "internalType": "uint256",
          "name": "previousFeesPerTenThousand",
          "type": "uint256"
        },
        {
          "indexed": false,
          "internalType": "uint256",
          "name": "newFeesPerTenThousand",
          "type": "uint256"
        }
      ],
      "name": "LiquidityBuyFeesUpdated",
      "type": "event"
    },
    {
      "anonymous": false,
      "inputs": [
        {
          "indexed": false,
          "internalType": "uint256",
          "name": "previousFeesPerTenThousand",
          "type": "uint256"
        },
        {
          "indexed": false,
          "internalType": "uint256",
          "name": "newFeesPerTenThousand",
          "type": "uint256"
        }
      ],
      "name": "LiquiditySellFeesUpdated",
      "type": "event"
    },
    {
      "anonymous": false,
      "inputs": [
        {
          "indexed": false,
          "internalType": "uint256",
          "name": "previousFeesPerTenThousand",
          "type": "uint256"
        },
        {
          "indexed": false,
          "internalType": "uint256",
          "name": "newFeesPerTenThousand",
          "type": "uint256"
        }
      ],
      "name": "MarketingBuyFeesUpdated",
      "type": "event"
    },
    {
      "anonymous": false,
      "inputs": [
        {
          "indexed": false,
          "internalType": "uint256",
          "name": "previousFeesPerTenThousand",
          "type": "uint256"
        },
        {
          "indexed": false,
          "internalType": "uint256",
          "name": "newFeesPerTenThousand",
          "type": "uint256"
        }
      ],
      "name": "MarketingSellFeesUpdated",
      "type": "event"
    },
    {
      "anonymous": false,
      "inputs": [
        {
          "indexed": true,
          "internalType": "address",
          "name": "previousWallet",
          "type": "address"
        },
        {
          "indexed": true,
          "internalType": "address",
          "name": "newWallet",
          "type": "address"
        }
      ],
      "name": "MarketingWalletUpdated",
      "type": "event"
    },
    {
      "anonymous": false,
      "inputs": [
        {
          "indexed": true,
          "internalType": "address",
          "name": "previousOwner",
          "type": "address"
        },
        {
          "indexed": true,
          "internalType": "address",
          "name": "newOwner",
          "type": "address"
        }
      ],
      "name": "OwnershipTransferred",
      "type": "event"
    },
    {
      "anonymous": false,
      "inputs": [
        {
          "indexed": false,
          "internalType": "uint256",
          "name": "previousLiquidityFeesPerTenThousand",
          "type": "uint256"
        },
        {
          "indexed": false,
          "internalType": "uint256",
          "name": "newLiquidityFeesPerTenThousand",
          "type": "uint256"
        },
        {
          "indexed": false,
          "internalType": "uint256",
          "name": "previousTeamFeesPerTenThousand",
          "type": "uint256"
        },
        {
          "indexed": false,
          "internalType": "uint256",
          "name": "newTeamFeesPerTenThousand",
          "type": "uint256"
        },
        {
          "indexed": false,
          "internalType": "uint256",
          "name": "previousMarketingFeesPerTenThousand",
          "type": "uint256"
        },
        {
          "indexed": false,
          "internalType": "uint256",
          "name": "newMarketingFeesPerTenThousand",
          "type": "uint256"
        },
        {
          "indexed": false,
          "internalType": "uint256",
          "name": "previousStakingFeesPerTenThousand",
          "type": "uint256"
        },
        {
          "indexed": false,
          "internalType": "uint256",
          "name": "newStakingFeesPerTenThousand",
          "type": "uint256"
        },
        {
          "indexed": false,
          "internalType": "uint256",
          "name": "previousWarFeesPerTenThousand",
          "type": "uint256"
        },
        {
          "indexed": false,
          "internalType": "uint256",
          "name": "newWarFeesPerTenThousand",
          "type": "uint256"
        }
      ],
      "name": "SellFeesUpdated",
      "type": "event"
    },
    {
      "anonymous": false,
      "inputs": [
        {
          "indexed": false,
          "internalType": "uint256",
          "name": "previousFeesPerTenThousand",
          "type": "uint256"
        },
        {
          "indexed": false,
          "internalType": "uint256",
          "name": "newFeesPerTenThousand",
          "type": "uint256"
        }
      ],
      "name": "StakingBuyFeesUpdated",
      "type": "event"
    },
    {
      "anonymous": false,
      "inputs": [
        {
          "indexed": false,
          "internalType": "uint256",
          "name": "previousFeesPerTenThousand",
          "type": "uint256"
        },
        {
          "indexed": false,
          "internalType": "uint256",
          "name": "newFeesPerTenThousand",
          "type": "uint256"
        }
      ],
      "name": "StakingSellFeesUpdated",
      "type": "event"
    },
    {
      "anonymous": false,
      "inputs": [
        {
          "indexed": true,
          "internalType": "address",
          "name": "previousWallet",
          "type": "address"
        },
        {
          "indexed": true,
          "internalType": "address",
          "name": "newWallet",
          "type": "address"
        }
      ],
      "name": "StakingWalletUpdated",
      "type": "event"
    },
    {
      "anonymous": false,
      "inputs": [
        {
          "indexed": false,
          "internalType": "uint256",
          "name": "tokensSwapped",
          "type": "uint256"
        },
        {
          "indexed": false,
          "internalType": "uint256",
          "name": "ethReceived",
          "type": "uint256"
        },
        {
          "indexed": false,
          "internalType": "uint256",
          "name": "tokensIntoLiqudity",
          "type": "uint256"
        }
      ],
      "name": "SwappedAndLiquified",
      "type": "event"
    },
    {
      "anonymous": false,
      "inputs": [
        {
          "indexed": false,
          "internalType": "uint256",
          "name": "previousFeesPerTenThousand",
          "type": "uint256"
        },
        {
          "indexed": false,
          "internalType": "uint256",
          "name": "newFeesPerTenThousand",
          "type": "uint256"
        }
      ],
      "name": "TeamBuyFeesUpdated",
      "type": "event"
    },
    {
      "anonymous": false,
      "inputs": [
        {
          "indexed": false,
          "internalType": "uint256",
          "name": "previousFeesPerTenThousand",
          "type": "uint256"
        },
        {
          "indexed": false,
          "internalType": "uint256",
          "name": "newFeesPerTenThousand",
          "type": "uint256"
        }
      ],
      "name": "TeamSellFeesUpdated",
      "type": "event"
    },
    {
      "anonymous": false,
      "inputs": [
        {
          "indexed": true,
          "internalType": "address",
          "name": "previousWallet",
          "type": "address"
        },
        {
          "indexed": true,
          "internalType": "address",
          "name": "newWallet",
          "type": "address"
        }
      ],
      "name": "TeamWalletUpdated",
      "type": "event"
    },
    {
      "anonymous": false,
      "inputs": [
        {
          "indexed": true,
          "internalType": "address",
          "name": "from",
          "type": "address"
        },
        {
          "indexed": true,
          "internalType": "address",
          "name": "to",
          "type": "address"
        },
        {
          "indexed": false,
          "internalType": "uint256",
          "name": "value",
          "type": "uint256"
        }
      ],
      "name": "Transfer",
      "type": "event"
    },
    {
      "anonymous": false,
      "inputs": [
        {
          "indexed": true,
          "internalType": "address",
          "name": "previousAddress",
          "type": "address"
        },
        {
          "indexed": true,
          "internalType": "address",
          "name": "newAddress",
          "type": "address"
        }
      ],
      "name": "UniswapV2RouterUpdated",
      "type": "event"
    },
    {
      "anonymous": false,
      "inputs": [
        {
          "indexed": true,
          "internalType": "address",
          "name": "implementation",
          "type": "address"
        }
      ],
      "name": "Upgraded",
      "type": "event"
    },
    {
      "anonymous": false,
      "inputs": [
        {
          "indexed": false,
          "internalType": "uint256",
          "name": "previousFeesPerTenThousand",
          "type": "uint256"
        },
        {
          "indexed": false,
          "internalType": "uint256",
          "name": "newFeesPerTenThousand",
          "type": "uint256"
        }
      ],
      "name": "WarBuyFeesUpdated",
      "type": "event"
    },
    {
      "anonymous": false,
      "inputs": [
        {
          "indexed": false,
          "internalType": "uint256",
          "name": "previousFeesPerTenThousand",
          "type": "uint256"
        },
        {
          "indexed": false,
          "internalType": "uint256",
          "name": "newFeesPerTenThousand",
          "type": "uint256"
        }
      ],
      "name": "WarSellFeesUpdated",
      "type": "event"
    },
    {
      "anonymous": false,
      "inputs": [
        {
          "indexed": true,
          "internalType": "address",
          "name": "previousWallet",
          "type": "address"
        },
        {
          "indexed": true,
          "internalType": "address",
          "name": "newWallet",
          "type": "address"
        }
      ],
      "name": "WarWalletUpdated",
      "type": "event"
    },
    {
      "inputs": [
        {
          "internalType": "address",
          "name": "owner",
          "type": "address"
        },
        {
          "internalType": "address",
          "name": "spender",
          "type": "address"
        }
      ],
      "name": "allowance",
      "outputs": [
        {
          "internalType": "uint256",
          "name": "",
          "type": "uint256"
        }
      ],
      "stateMutability": "view",
      "type": "function"
    },
    {
      "inputs": [
        {
          "internalType": "address",
          "name": "spender",
          "type": "address"
        },
        {
          "internalType": "uint256",
          "name": "amount",
          "type": "uint256"
        }
      ],
      "name": "approve",
      "outputs": [
        {
          "internalType": "bool",
          "name": "",
          "type": "bool"
        }
      ],
      "stateMutability": "nonpayable",
      "type": "function"
    },
    {
      "inputs": [
        {
          "internalType": "address",
          "name": "account",
          "type": "address"
        }
      ],
      "name": "balanceOf",
      "outputs": [
        {
          "internalType": "uint256",
          "name": "",
          "type": "uint256"
        }
      ],
      "stateMutability": "view",
      "type": "function"
    },
    {
      "inputs": [
        {
          "internalType": "address",
          "name": "account",
          "type": "address"
        },
        {
          "internalType": "bool",
          "name": "value",
          "type": "bool"
        }
      ],
      "name": "blacklistAddress",
      "outputs": [],
      "stateMutability": "nonpayable",
      "type": "function"
    },
    {
      "inputs": [],
      "name": "buyFees",
      "outputs": [
        {
          "internalType": "uint256",
          "name": "liquidityFeesPerTenThousand",
          "type": "uint256"
        },
        {
          "internalType": "uint256",
          "name": "teamFeesPerTenThousand",
          "type": "uint256"
        },
        {
          "internalType": "uint256",
          "name": "marketingFeesPerTenThousand",
          "type": "uint256"
        },
        {
          "internalType": "uint256",
          "name": "stakingFeesPerTenThousand",
          "type": "uint256"
        },
        {
          "internalType": "uint256",
          "name": "warFeesPerTenThousand",
          "type": "uint256"
        },
        {
          "internalType": "uint256",
          "name": "totalFeesPerTenThousand",
          "type": "uint256"
        }
      ],
      "stateMutability": "view",
      "type": "function"
    },
    {
      "inputs": [],
      "name": "decimals",
      "outputs": [
        {
          "internalType": "uint8",
          "name": "",
          "type": "uint8"
        }
      ],
      "stateMutability": "view",
      "type": "function"
    },
    {
      "inputs": [
        {
          "internalType": "address",
          "name": "spender",
          "type": "address"
        },
        {
          "internalType": "uint256",
          "name": "subtractedValue",
          "type": "uint256"
        }
      ],
      "name": "decreaseAllowance",
      "outputs": [
        {
          "internalType": "bool",
          "name": "",
          "type": "bool"
        }
      ],
      "stateMutability": "nonpayable",
      "type": "function"
    },
    {
      "inputs": [
        {
          "internalType": "address",
          "name": "account",
          "type": "address"
        },
        {
          "internalType": "bool",
          "name": "excluded",
          "type": "bool"
        }
      ],
      "name": "excludeFromFees",
      "outputs": [],
      "stateMutability": "nonpayable",
      "type": "function"
    },
    {
      "inputs": [],
      "name": "gasForProcessing",
      "outputs": [
        {
          "internalType": "uint256",
          "name": "",
          "type": "uint256"
        }
      ],
      "stateMutability": "view",
      "type": "function"
    },
    {
      "inputs": [
        {
          "internalType": "address",
          "name": "spender",
          "type": "address"
        },
        {
          "internalType": "uint256",
          "name": "addedValue",
          "type": "uint256"
        }
      ],
      "name": "increaseAllowance",
      "outputs": [
        {
          "internalType": "bool",
          "name": "",
          "type": "bool"
        }
      ],
      "stateMutability": "nonpayable",
      "type": "function"
    },
    {
      "inputs": [
        {
          "internalType": "address",
          "name": "newRouter",
          "type": "address"
        },
        {
          "internalType": "address",
          "name": "newTeamWallet",
          "type": "address"
        },
        {
          "internalType": "address",
          "name": "newMarketingWallet",
          "type": "address"
        },
        {
          "internalType": "address",
          "name": "newStakingWallet",
          "type": "address"
        },
        {
          "internalType": "address",
          "name": "newWarWallet",
          "type": "address"
        }
      ],
      "name": "initialize",
      "outputs": [],
      "stateMutability": "nonpayable",
      "type": "function"
    },
    {
      "inputs": [
        {
          "internalType": "address",
          "name": "account",
          "type": "address"
        }
      ],
      "name": "isAutomatedMarketMakerPair",
      "outputs": [
        {
          "internalType": "bool",
          "name": "",
          "type": "bool"
        }
      ],
      "stateMutability": "view",
      "type": "function"
    },
    {
      "inputs": [
        {
          "internalType": "address",
          "name": "account",
          "type": "address"
        }
      ],
      "name": "isBlacklisted",
      "outputs": [
        {
          "internalType": "bool",
          "name": "",
          "type": "bool"
        }
      ],
      "stateMutability": "view",
      "type": "function"
    },
    {
      "inputs": [
        {
          "internalType": "address",
          "name": "account",
          "type": "address"
        }
      ],
      "name": "isExcludedFromFees",
      "outputs": [
        {
          "internalType": "bool",
          "name": "",
          "type": "bool"
        }
      ],
      "stateMutability": "view",
      "type": "function"
    },
    {
      "inputs": [],
      "name": "marketingWallet",
      "outputs": [
        {
          "internalType": "address",
          "name": "",
          "type": "address"
        }
      ],
      "stateMutability": "view",
      "type": "function"
    },
    {
      "inputs": [],
      "name": "name",
      "outputs": [
        {
          "internalType": "string",
          "name": "",
          "type": "string"
        }
      ],
      "stateMutability": "view",
      "type": "function"
    },
    {
      "inputs": [],
      "name": "owner",
      "outputs": [
        {
          "internalType": "address",
          "name": "",
          "type": "address"
        }
      ],
      "stateMutability": "view",
      "type": "function"
    },
    {
      "inputs": [],
      "name": "renounceOwnership",
      "outputs": [],
      "stateMutability": "nonpayable",
      "type": "function"
    },
    {
      "inputs": [],
      "name": "router",
      "outputs": [
        {
          "internalType": "address",
          "name": "",
          "type": "address"
        }
      ],
      "stateMutability": "view",
      "type": "function"
    },
    {
      "inputs": [],
      "name": "sellFees",
      "outputs": [
        {
          "internalType": "uint256",
          "name": "liquidityFeesPerTenThousand",
          "type": "uint256"
        },
        {
          "internalType": "uint256",
          "name": "teamFeesPerTenThousand",
          "type": "uint256"
        },
        {
          "internalType": "uint256",
          "name": "marketingFeesPerTenThousand",
          "type": "uint256"
        },
        {
          "internalType": "uint256",
          "name": "stakingFeesPerTenThousand",
          "type": "uint256"
        },
        {
          "internalType": "uint256",
          "name": "warFeesPerTenThousand",
          "type": "uint256"
        },
        {
          "internalType": "uint256",
          "name": "totalFeesPerTenThousand",
          "type": "uint256"
        }
      ],
      "stateMutability": "view",
      "type": "function"
    },
    {
      "inputs": [
        {
          "internalType": "address",
          "name": "newPair",
          "type": "address"
        },
        {
          "internalType": "bool",
          "name": "value",
          "type": "bool"
        }
      ],
      "name": "setAutomatedMarketMakerPair",
      "outputs": [],
      "stateMutability": "nonpayable",
      "type": "function"
    },
    {
      "inputs": [],
      "name": "stakingWallet",
      "outputs": [
        {
          "internalType": "address",
          "name": "",
          "type": "address"
        }
      ],
      "stateMutability": "view",
      "type": "function"
    },
    {
      "inputs": [],
      "name": "swapThreshold",
      "outputs": [
        {
          "internalType": "uint256",
          "name": "",
          "type": "uint256"
        }
      ],
      "stateMutability": "view",
      "type": "function"
    },
    {
      "inputs": [],
      "name": "symbol",
      "outputs": [
        {
          "internalType": "string",
          "name": "",
          "type": "string"
        }
      ],
      "stateMutability": "view",
      "type": "function"
    },
    {
      "inputs": [],
      "name": "teamWallet",
      "outputs": [
        {
          "internalType": "address",
          "name": "",
          "type": "address"
        }
      ],
      "stateMutability": "view",
      "type": "function"
    },
    {
      "inputs": [],
      "name": "totalSupply",
      "outputs": [
        {
          "internalType": "uint256",
          "name": "",
          "type": "uint256"
        }
      ],
      "stateMutability": "view",
      "type": "function"
    },
    {
      "inputs": [
        {
          "internalType": "address",
          "name": "recipient",
          "type": "address"
        },
        {
          "internalType": "uint256",
          "name": "amount",
          "type": "uint256"
        }
      ],
      "name": "transfer",
      "outputs": [
        {
          "internalType": "bool",
          "name": "",
          "type": "bool"
        }
      ],
      "stateMutability": "nonpayable",
      "type": "function"
    },
    {
      "inputs": [
        {
          "internalType": "address",
          "name": "sender",
          "type": "address"
        },
        {
          "internalType": "address",
          "name": "recipient",
          "type": "address"
        },
        {
          "internalType": "uint256",
          "name": "amount",
          "type": "uint256"
        }
      ],
      "name": "transferFrom",
      "outputs": [
        {
          "internalType": "bool",
          "name": "",
          "type": "bool"
        }
      ],
      "stateMutability": "nonpayable",
      "type": "function"
    },
    {
      "inputs": [
        {
          "internalType": "address",
          "name": "newOwner",
          "type": "address"
        }
      ],
      "name": "transferOwnership",
      "outputs": [],
      "stateMutability": "nonpayable",
      "type": "function"
    },
    {
      "inputs": [
        {
          "internalType": "uint256",
          "name": "liquidityFeesPerTenThousand",
          "type": "uint256"
        },
        {
          "internalType": "uint256",
          "name": "teamFeesPerTenThousand",
          "type": "uint256"
        },
        {
          "internalType": "uint256",
          "name": "marketingFeesPerTenThousand",
          "type": "uint256"
        },
        {
          "internalType": "uint256",
          "name": "stakingFeesPerTenThousand",
          "type": "uint256"
        },
        {
          "internalType": "uint256",
          "name": "warFeesPerTenThousand",
          "type": "uint256"
        }
      ],
      "name": "updateBuyFees",
      "outputs": [],
      "stateMutability": "nonpayable",
      "type": "function"
    },
    {
      "inputs": [
        {
          "internalType": "uint256",
          "name": "newValue",
          "type": "uint256"
        }
      ],
      "name": "updateGasForProcessing",
      "outputs": [],
      "stateMutability": "nonpayable",
      "type": "function"
    },
    {
      "inputs": [
        {
          "internalType": "uint256",
          "name": "feesPerTenThousand",
          "type": "uint256"
        }
      ],
      "name": "updateLiquidityBuyFees",
      "outputs": [],
      "stateMutability": "nonpayable",
      "type": "function"
    },
    {
      "inputs": [
        {
          "internalType": "uint256",
          "name": "feesPerTenThousand",
          "type": "uint256"
        }
      ],
      "name": "updateLiquiditySellFees",
      "outputs": [],
      "stateMutability": "nonpayable",
      "type": "function"
    },
    {
      "inputs": [
        {
          "internalType": "uint256",
          "name": "feesPerTenThousand",
          "type": "uint256"
        }
      ],
      "name": "updateMarketingBuyFees",
      "outputs": [],
      "stateMutability": "nonpayable",
      "type": "function"
    },
    {
      "inputs": [
        {
          "internalType": "uint256",
          "name": "feesPerTenThousand",
          "type": "uint256"
        }
      ],
      "name": "updateMarketingSellFees",
      "outputs": [],
      "stateMutability": "nonpayable",
      "type": "function"
    },
    {
      "inputs": [
        {
          "internalType": "address payable",
          "name": "newWallet",
          "type": "address"
        }
      ],
      "name": "updateMarketingWallet",
      "outputs": [],
      "stateMutability": "nonpayable",
      "type": "function"
    },
    {
      "inputs": [
        {
          "internalType": "uint256",
          "name": "liquidityFeesPerTenThousand",
          "type": "uint256"
        },
        {
          "internalType": "uint256",
          "name": "teamFeesPerTenThousand",
          "type": "uint256"
        },
        {
          "internalType": "uint256",
          "name": "marketingFeesPerTenThousand",
          "type": "uint256"
        },
        {
          "internalType": "uint256",
          "name": "stakingFeesPerTenThousand",
          "type": "uint256"
        },
        {
          "internalType": "uint256",
          "name": "warFeesPerTenThousand",
          "type": "uint256"
        }
      ],
      "name": "updateSellFees",
      "outputs": [],
      "stateMutability": "nonpayable",
      "type": "function"
    },
    {
      "inputs": [
        {
          "internalType": "uint256",
          "name": "feesPerTenThousand",
          "type": "uint256"
        }
      ],
      "name": "updateStakingBuyFees",
      "outputs": [],
      "stateMutability": "nonpayable",
      "type": "function"
    },
    {
      "inputs": [
        {
          "internalType": "uint256",
          "name": "feesPerTenThousand",
          "type": "uint256"
        }
      ],
      "name": "updateStakingSellFees",
      "outputs": [],
      "stateMutability": "nonpayable",
      "type": "function"
    },
    {
      "inputs": [
        {
          "internalType": "address payable",
          "name": "newWallet",
          "type": "address"
        }
      ],
      "name": "updateStakingWallet",
      "outputs": [],
      "stateMutability": "nonpayable",
      "type": "function"
    },
    {
      "inputs": [
        {
          "internalType": "uint256",
          "name": "threshold",
          "type": "uint256"
        }
      ],
      "name": "updateSwapThreshold",
      "outputs": [],
      "stateMutability": "nonpayable",
      "type": "function"
    },
    {
      "inputs": [
        {
          "internalType": "uint256",
          "name": "feesPerTenThousand",
          "type": "uint256"
        }
      ],
      "name": "updateTeamBuyFees",
      "outputs": [],
      "stateMutability": "nonpayable",
      "type": "function"
    },
    {
      "inputs": [
        {
          "internalType": "uint256",
          "name": "feesPerTenThousand",
          "type": "uint256"
        }
      ],
      "name": "updateTeamSellFees",
      "outputs": [],
      "stateMutability": "nonpayable",
      "type": "function"
    },
    {
      "inputs": [
        {
          "internalType": "address payable",
          "name": "newWallet",
          "type": "address"
        }
      ],
      "name": "updateTeamWallet",
      "outputs": [],
      "stateMutability": "nonpayable",
      "type": "function"
    },
    {
      "inputs": [
        {
          "internalType": "address",
          "name": "newRouter",
          "type": "address"
        }
      ],
      "name": "updateUniswapV2Router",
      "outputs": [],
      "stateMutability": "nonpayable",
      "type": "function"
    },
    {
      "inputs": [
        {
          "internalType": "uint256",
          "name": "feesPerTenThousand",
          "type": "uint256"
        }
      ],
      "name": "updateWarBuyFees",
      "outputs": [],
      "stateMutability": "nonpayable",
      "type": "function"
    },
    {
      "inputs": [
        {
          "internalType": "uint256",
          "name": "feesPerTenThousand",
          "type": "uint256"
        }
      ],
      "name": "updateWarSellFees",
      "outputs": [],
      "stateMutability": "nonpayable",
      "type": "function"
    },
    {
      "inputs": [
        {
          "internalType": "address payable",
          "name": "newWallet",
          "type": "address"
        }
      ],
      "name": "updateWarWallet",
      "outputs": [],
      "stateMutability": "nonpayable",
      "type": "function"
    },
    {
      "inputs": [
        {
          "internalType": "address",
          "name": "newImplementation",
          "type": "address"
        }
      ],
      "name": "upgradeTo",
      "outputs": [],
      "stateMutability": "nonpayable",
      "type": "function"
    },
    {
      "inputs": [
        {
          "internalType": "address",
          "name": "newImplementation",
          "type": "address"
        },
        {
          "internalType": "bytes",
          "name": "data",
          "type": "bytes"
        }
      ],
      "name": "upgradeToAndCall",
      "outputs": [],
      "stateMutability": "payable",
      "type": "function"
    },
    {
      "inputs": [],
      "name": "warWallet",
      "outputs": [
        {
          "internalType": "address",
          "name": "",
          "type": "address"
        }
      ],
      "stateMutability": "view",
      "type": "function"
    },
    {
      "stateMutability": "payable",
      "type": "receive"
    }
  ],
  "bytecode": "0x60a0604052306080523480156200001557600080fd5b50600054610100900460ff16620000335760005460ff16156200003d565b6200003d620000e2565b620000a55760405162461bcd60e51b815260206004820152602e60248201527f496e697469616c697a61626c653a20636f6e747261637420697320616c72656160448201526d191e481a5b9a5d1a585b1a5e995960921b606482015260840160405180910390fd5b600054610100900460ff16158015620000c8576000805461ffff19166101011790555b8015620000db576000805461ff00191690555b5062000106565b6000620000fa306200010060201b620027671760201c565b15905090565b3b151590565b60805161431d6200013760003960008181610f7f01528181610fbf015281816112a801526112e8015261431d6000f3fe6080604052600436106102e85760003560e01c8063871c128d11610190578063cc274b29116100dc578063e4748b9e11610095578063f2fde38b1161006f578063f2fde38b14610944578063f887ea4014610964578063fe575a8714610982578063ff935af6146109bb57600080fd5b8063e4748b9e146108ef578063edbb3b2c14610904578063f170d7fd1461092457600080fd5b8063cc274b29146107e8578063ccec596514610808578063cced773414610828578063d62b781f14610847578063dd62ed3e14610867578063e0f3ccf5146108ad57600080fd5b80639d9d948811610149578063aacebbe311610123578063aacebbe314610768578063ae982e6114610788578063bcace145146107a8578063c0246668146107c857600080fd5b80639d9d948814610708578063a457c2d714610728578063a9059cbb1461074857600080fd5b8063871c128d1461065f57806387576e0b1461067f5780638da5cb5b1461069f57806395d89b41146106bd5780639a7a23d6146106d25780639c1b8af5146106f257600080fd5b8063455a43961161024f5780636edbaa3f1161020857806375f0a874116101e257806375f0a874146105c75780637949a403146105e65780637cb332bb1461061f57806383f0a7161461063f57600080fd5b80636edbaa3f1461055c57806370a082311461057c578063715018a6146105b257600080fd5b8063455a4396146104915780634778b624146104b15780634f1ef286146104d15780634fbee193146104e4578063599270441461051d57806365b8dbc01461053c57600080fd5b806322f5b594116102a157806322f5b594146103d557806323b872dd146103f5578063313ce567146104155780633659cfe61461043157806336e086b014610451578063395093511461047157600080fd5b80630445b667146102f457806306ee6ad81461031957806306fdde031461034c578063095ea7b31461036e5780631459457a1461039e57806318160ddd146103c057600080fd5b366102ef57005b600080fd5b34801561030057600080fd5b5061010c545b6040519081526020015b60405180910390f35b34801561032557600080fd5b50610110546001600160a01b03165b6040516001600160a01b039091168152602001610310565b34801561035857600080fd5b506103616109db565b6040516103109190613be4565b34801561037a57600080fd5b5061038e610389366004613c2c565b610a6d565b6040519015158152602001610310565b3480156103aa57600080fd5b506103be6103b9366004613c58565b610a84565b005b3480156103cc57600080fd5b50603554610306565b3480156103e157600080fd5b506103be6103f0366004613cc9565b610de9565b34801561040157600080fd5b5061038e610410366004613ce2565b610ec8565b34801561042157600080fd5b5060405160128152602001610310565b34801561043d57600080fd5b506103be61044c366004613d23565b610f74565b34801561045d57600080fd5b506103be61046c366004613cc9565b61103d565b34801561047d57600080fd5b5061038e61048c366004613c2c565b611115565b34801561049d57600080fd5b506103be6104ac366004613d40565b611151565b3480156104bd57600080fd5b506103be6104cc366004613d23565b6111a6565b6103be6104df366004613d94565b61129d565b3480156104f057600080fd5b5061038e6104ff366004613d23565b6001600160a01b0316600090815260fd602052604090205460ff1690565b34801561052957600080fd5b5061010e546001600160a01b0316610334565b34801561054857600080fd5b506103be610557366004613d23565b611357565b34801561056857600080fd5b506103be610577366004613cc9565b6115af565b34801561058857600080fd5b50610306610597366004613d23565b6001600160a01b031660009081526033602052604090205490565b3480156105be57600080fd5b506103be61168c565b3480156105d357600080fd5b5061010f546001600160a01b0316610334565b3480156105f257600080fd5b5061038e610601366004613d23565b6001600160a01b0316600090815260fc602052604090205460ff1690565b34801561062b57600080fd5b506103be61063a366004613d23565b6116c2565b34801561064b57600080fd5b506103be61065a366004613cc9565b6117ba565b34801561066b57600080fd5b506103be61067a366004613cc9565b611893565b34801561068b57600080fd5b506103be61069a366004613cc9565b6119d6565b3480156106ab57600080fd5b506065546001600160a01b0316610334565b3480156106c957600080fd5b50610361611aae565b3480156106de57600080fd5b506103be6106ed366004613d40565b611abd565b3480156106fe57600080fd5b5061010d54610306565b34801561071457600080fd5b506103be610723366004613cc9565b611af1565b34801561073457600080fd5b5061038e610743366004613c2c565b611bd3565b34801561075457600080fd5b5061038e610763366004613c2c565b611c6c565b34801561077457600080fd5b506103be610783366004613d23565b611c79565b34801561079457600080fd5b506103be6107a3366004613cc9565b611d7b565b3480156107b457600080fd5b506103be6107c3366004613cc9565b611e56565b3480156107d457600080fd5b506103be6107e3366004613d40565b611f33565b3480156107f457600080fd5b506103be610803366004613cc9565b612049565b34801561081457600080fd5b506103be610823366004613cc9565b612090565b34801561083457600080fd5b50610111546001600160a01b0316610334565b34801561085357600080fd5b506103be610862366004613cc9565b61216e565b34801561087357600080fd5b50610306610882366004613e58565b6001600160a01b03918216600090815260346020908152604080832093909416825291909152205490565b3480156108b957600080fd5b506108c261224c565b604080519687526020870195909552938501929092526060840152608083015260a082015260c001610310565b3480156108fb57600080fd5b506108c2612293565b34801561091057600080fd5b506103be61091f366004613d23565b6122c7565b34801561093057600080fd5b506103be61093f366004613e86565b6123c2565b34801561095057600080fd5b506103be61095f366004613d23565b612552565b34801561097057600080fd5b5060fb546001600160a01b0316610334565b34801561098e57600080fd5b5061038e61099d366004613d23565b6001600160a01b0316600090815260fe602052604090205460ff1690565b3480156109c757600080fd5b506103be6109d6366004613e86565b6125ea565b6060603680546109ea90613ec1565b80601f0160208091040260200160405190810160405280929190818152602001828054610a1690613ec1565b8015610a635780601f10610a3857610100808354040283529160200191610a63565b820191906000526020600020905b815481529060010190602001808311610a4657829003601f168201915b5050505050905090565b6000610a7a33848461276d565b5060015b92915050565b600054610100900460ff16610a9f5760005460ff1615610aa3565b303b155b610b0b5760405162461bcd60e51b815260206004820152602e60248201527f496e697469616c697a61626c653a20636f6e747261637420697320616c72656160448201526d191e481a5b9a5d1a585b1a5e995960921b60648201526084015b60405180910390fd5b600054610100900460ff16158015610b2d576000805461ffff19166101011790555b610b7360405180604001604052806009815260200168526574726f4e656b6f60b81b81525060405180604001604052806003815260200162524e4b60e81b815250612891565b610b7b6128ca565b610b83612901565b60fb80546001600160a01b038089166001600160a01b0319928316811790935561010e805489831690841617905561010f805488831690841617905561011080548783169084161790556101118054918616919092161790556040805163c45a015560e01b81529051600091839163c45a0155916004808201926020929091908290030181865afa158015610c1c573d6000803e3d6000fd5b505050506040513d601f19601f82011682018060405250810190610c409190613efc565b6001600160a01b031663c9c6539630846001600160a01b031663ad5c46486040518163ffffffff1660e01b8152600401602060405180830381865afa158015610c8d573d6000803e3d6000fd5b505050506040513d601f19601f82011682018060405250810190610cb19190613efc565b6040516001600160e01b031960e085901b1681526001600160a01b039283166004820152911660248201526044016020604051808303816000875af1158015610cfe573d6000803e3d6000fd5b505050506040513d601f19601f82011682018060405250810190610d229190613efc565b9050610d2f816001612938565b610d3b6012600a614013565b610d4890624c4b40614022565b61010c55620493e061010d55606461010081905560c861010181905561012c610103819055600061010481905561010583905561010693909355610107919091556101095561010a5561019061010b55610dcd610dad6065546001600160a01b031690565b610db96012600a614013565b610dc89064174876e800614022565b612a2d565b50508015610de1576000805461ff00191690555b505050505050565b6065546001600160a01b03163314610e135760405162461bcd60e51b8152600401610b0290614041565b61010554811415610e815760405162461bcd60e51b815260206004820152603260248201527f526574726f4e656b6f3a205761722062757920666565732068617320616c7265604482015271616479207468652073616d652076616c756560701b6064820152608401610b02565b61010580549082905560408051828152602081018490527ffe8e2fa37902d574243d5f856c499c155a1280753f8db331709734aca880912491015b60405180910390a15050565b6000610ed5848484612b0c565b6001600160a01b038416600090815260346020908152604080832033845290915290205482811015610f5a5760405162461bcd60e51b815260206004820152602860248201527f45524332303a207472616e7366657220616d6f756e74206578636565647320616044820152676c6c6f77616e636560c01b6064820152608401610b02565b610f67853385840361276d565b60019150505b9392505050565b306001600160a01b037f0000000000000000000000000000000000000000000000000000000000000000161415610fbd5760405162461bcd60e51b8152600401610b0290614076565b7f00000000000000000000000000000000000000000000000000000000000000006001600160a01b0316610fef612d67565b6001600160a01b0316146110155760405162461bcd60e51b8152600401610b02906140c2565b61101e81612d95565b6040805160008082526020820190925261103a91839190612dbf565b50565b6065546001600160a01b031633146110675760405162461bcd60e51b8152600401610b0290614041565b61010b548114156110d65760405162461bcd60e51b815260206004820152603360248201527f526574726f4e656b6f3a205761722073656c6c20666565732068617320616c7260448201527265616479207468652073616d652076616c756560681b6064820152608401610b02565b61010b80549082905560408051828152602081018490527f23a2f1667d5cf2a538514429193ba872a967a4508fa67c158e3296afe19ed92a9101610ebc565b3360008181526034602090815260408083206001600160a01b03871684529091528120549091610a7a91859061114c90869061410e565b61276d565b6065546001600160a01b0316331461117b5760405162461bcd60e51b8152600401610b0290614041565b6001600160a01b0391909116600090815260fe60205260409020805460ff1916911515919091179055565b6065546001600160a01b031633146111d05760405162461bcd60e51b8152600401610b0290614041565b610111546001600160a01b038281169116141561124a5760405162461bcd60e51b815260206004820152603260248201527f526574726f4e656b6f3a20546865207761722077616c6c657420616c7265616460448201527179206861732074686174206164647265737360701b6064820152608401610b02565b61011180546001600160a01b038381166001600160a01b0319831681179093556040519116919082907f943b99112134f5433188f067522b0078ad940246245c16be1964cd95bb84956490600090a35050565b306001600160a01b037f00000000000000000000000000000000000000000000000000000000000000001614156112e65760405162461bcd60e51b8152600401610b0290614076565b7f00000000000000000000000000000000000000000000000000000000000000006001600160a01b0316611318612d67565b6001600160a01b03161461133e5760405162461bcd60e51b8152600401610b02906140c2565b61134782612d95565b61135382826001612dbf565b5050565b6065546001600160a01b031633146113815760405162461bcd60e51b8152600401610b0290614041565b60fb546001600160a01b03828116911614156113f65760405162461bcd60e51b815260206004820152602e60248201527f526574726f4e656b6f3a2054686520726f7574657220616c726561647920686160448201526d732074686174206164647265737360901b6064820152608401610b02565b60fb546040805163c45a015560e01b815290516001600160a01b039283169284926000929184169163c45a0155916004808201926020929091908290030181865afa158015611449573d6000803e3d6000fd5b505050506040513d601f19601f8201168201806040525081019061146d9190613efc565b6001600160a01b031663c9c6539630846001600160a01b031663ad5c46486040518163ffffffff1660e01b8152600401602060405180830381865afa1580156114ba573d6000803e3d6000fd5b505050506040513d601f19601f820116820180604052508101906114de9190613efc565b6040516001600160e01b031960e085901b1681526001600160a01b039283166004820152911660248201526044016020604051808303816000875af115801561152b573d6000803e3d6000fd5b505050506040513d601f19601f8201168201806040525081019061154f9190613efc565b905061155c816001612938565b60fb80546001600160a01b0319166001600160a01b0386811691821790925560405190918516907feb8d61f6daf24f1091115a70adc941fd8537cfa96f53bfaf282c6bb3cfc5e6e690600090a350505050565b6065546001600160a01b031633146115d95760405162461bcd60e51b8152600401610b0290614041565b6101035481141561164d5760405162461bcd60e51b815260206004820152603860248201527f526574726f4e656b6f3a204d61726b6574696e672062757920666565732068616044820152777320616c7265616479207468652073616d652076616c756560401b6064820152608401610b02565b61010380549082905560408051828152602081018490527f4c71888bec86dade21b0f5ccbc072fadcbc580bee085bb9fce19e659784dec619101610ebc565b6065546001600160a01b031633146116b65760405162461bcd60e51b8152600401610b0290614041565b6116c06000612f0a565b565b6065546001600160a01b031633146116ec5760405162461bcd60e51b8152600401610b0290614041565b61010e546001600160a01b03828116911614156117675760405162461bcd60e51b815260206004820152603360248201527f526574726f4e656b6f3a20546865207465616d2077616c6c657420616c7265616044820152726479206861732074686174206164647265737360681b6064820152608401610b02565b61010e80546001600160a01b038381166001600160a01b0319831681179093556040519116919082907fd9a2a08302ed3220f4e646ff99d6780d87e27baddf1af05679dc930ce811309590600090a35050565b6065546001600160a01b031633146117e45760405162461bcd60e51b8152600401610b0290614041565b610107548114156118545760405162461bcd60e51b815260206004820152603460248201527f526574726f4e656b6f3a205465616d2073656c6c20666565732068617320616c6044820152737265616479207468652073616d652076616c756560601b6064820152608401610b02565b61010780549082905560408051828152602081018490527f1411c13e99a1d7ff9c4b0c46eb216b98e5a03de615570d8489494a80a81195c29101610ebc565b6065546001600160a01b031633146118bd5760405162461bcd60e51b8152600401610b0290614041565b62030d4081101580156118d357506207a1208111155b61193a5760405162461bcd60e51b815260206004820152603260248201527f526574726f4e656b6f3a20676173206d757374206265206265747765656e2032604482015271030302c30303020616e64203530302c3030360741b6064820152608401610b02565b61010d548114156119a05760405162461bcd60e51b815260206004820152602a60248201527f526574726f4e656b6f3a2043616e6e6f74207570646174652067617320746f2060448201526973616d652076616c756560b01b6064820152608401610b02565b61010d546040518291907f40d7e40e79af4e8e5a9b3c57030d8ea93f13d669c06d448c4d631d4ae7d23db790600090a361010d55565b6065546001600160a01b03163314611a005760405162461bcd60e51b8152600401610b0290614041565b61010154811415611a6f5760405162461bcd60e51b815260206004820152603360248201527f526574726f4e656b6f3a205465616d2062757920666565732068617320616c7260448201527265616479207468652073616d652076616c756560681b6064820152608401610b02565b61010180549082905560408051828152602081018490527f332821edfcffb11ebe88bfc8180c2d6aec66e2401deca90ff933f2562f10929c9101610ebc565b6060603780546109ea90613ec1565b6065546001600160a01b03163314611ae75760405162461bcd60e51b8152600401610b0290614041565b6113538282612938565b6065546001600160a01b03163314611b1b5760405162461bcd60e51b8152600401610b0290614041565b61010a54811415611b945760405162461bcd60e51b815260206004820152603760248201527f526574726f4e656b6f3a205374616b696e672073656c6c20666565732068617360448201527f20616c7265616479207468652073616d652076616c75650000000000000000006064820152608401610b02565b61010a80549082905560408051828152602081018490527f7de936d1619d507a68508ac930b920d7b3aeb5c7b6a02127a36198d3407899379101610ebc565b3360009081526034602090815260408083206001600160a01b038616845290915281205482811015611c555760405162461bcd60e51b815260206004820152602560248201527f45524332303a2064656372656173656420616c6c6f77616e63652062656c6f77604482015264207a65726f60d81b6064820152608401610b02565b611c62338585840361276d565b5060019392505050565b6000610a7a338484612b0c565b6065546001600160a01b03163314611ca35760405162461bcd60e51b8152600401610b0290614041565b61010f546001600160a01b0382811691161415611d285760405162461bcd60e51b815260206004820152603860248201527f526574726f4e656b6f3a20546865206d61726b6574696e672077616c6c65742060448201527f616c7265616479206861732074686174206164647265737300000000000000006064820152608401610b02565b61010f80546001600160a01b038381166001600160a01b0319831681179093556040519116919082907f8616c7a330e3cf61290821331585511f1e2778171e2b005fb5ec60cfe874dc6790600090a35050565b6065546001600160a01b03163314611da55760405162461bcd60e51b8152600401610b0290614041565b61010454811415611e175760405162461bcd60e51b815260206004820152603660248201527f526574726f4e656b6f3a205374616b696e672062757920666565732068617320604482015275616c7265616479207468652073616d652076616c756560501b6064820152608401610b02565b61010480549082905560408051828152602081018490527f8e0c9dc02e1da3386b1f448f654ef1c3db968b77a5a7c2efc14113f17f890a189101610ebc565b6065546001600160a01b03163314611e805760405162461bcd60e51b8152600401610b0290614041565b61010054811415611ef45760405162461bcd60e51b815260206004820152603860248201527f526574726f4e656b6f3a204c69717569646974792062757920666565732068616044820152777320616c7265616479207468652073616d652076616c756560401b6064820152608401610b02565b61010080549082905560408051828152602081018490527f070e7d79f58271466523967a3ba6e1dd467a704e664c801648eff938aa7c8aee9101610ebc565b6065546001600160a01b03163314611f5d5760405162461bcd60e51b8152600401610b0290614041565b6001600160a01b038216600090815260fd602052604090205460ff1615158115151415611fea5760405162461bcd60e51b815260206004820152603560248201527f526574726f4e656b6f3a204163636f756e7420697320616c7265616479207468604482015274652076616c7565206f6620276578636c756465642760581b6064820152608401610b02565b6001600160a01b038216600081815260fd6020908152604091829020805460ff191685151590811790915591519182527f3499bfcf9673677ba552f3fe2ea274ec7e6246da31c3c87e115b45a9b0db2efb910160405180910390a25050565b6065546001600160a01b031633146120735760405162461bcd60e51b8152600401610b0290614041565b61207f6012600a614013565b6120899082614022565b61010c5550565b6065546001600160a01b031633146120ba5760405162461bcd60e51b8152600401610b0290614041565b6101065481141561212f5760405162461bcd60e51b815260206004820152603960248201527f526574726f4e656b6f3a204c69717569646974792073656c6c20666565732068604482015278617320616c7265616479207468652073616d652076616c756560381b6064820152608401610b02565b61010680549082905560408051828152602081018490527ff0af897f1c506324133d9169fa14f1e409ebe2e16a98b9e53a241643bdbf2b069101610ebc565b6065546001600160a01b031633146121985760405162461bcd60e51b8152600401610b0290614041565b6101095481141561220d5760405162461bcd60e51b815260206004820152603960248201527f526574726f4e656b6f3a204d61726b6574696e672073656c6c20666565732068604482015278617320616c7265616479207468652073616d652076616c756560381b6064820152608401610b02565b61010980549082905560408051828152602081018490527fd09b72602a0b4d8607b87041d4b295778f7d64c85934bf6428adaa84e93b4b669101610ebc565b6000806000806000806101066000015461010660010154610106600301546101066004015461010660050154612280612f5c565b949b939a50919850965094509092509050565b6000806000806000806101006000015461010060010154610100600301546101006004015461010060050154612280612fa2565b6065546001600160a01b031633146122f15760405162461bcd60e51b8152600401610b0290614041565b610110546001600160a01b038281169116141561236f5760405162461bcd60e51b815260206004820152603660248201527f526574726f4e656b6f3a20546865207374616b696e672077616c6c657420616c6044820152757265616479206861732074686174206164647265737360501b6064820152608401610b02565b61011080546001600160a01b038381166001600160a01b0319831681179093556040519116919082907f0b2d487c578ee8721e04056e667d57d860842931c083fecd93631e22510ec36b90600090a35050565b6065546001600160a01b031633146123ec5760405162461bcd60e51b8152600401610b0290614041565b61010054851415806124015750610101548414155b8061240f5750610103548314155b8061241d5750610104548214155b8061242b5750610105548114155b61248f5760405162461bcd60e51b815260206004820152602f60248201527f526574726f4e656b6f3a2042757920666565732068617320616c72656164792060448201526e7468652073616d652076616c75657360881b6064820152608401610b02565b60006101006000015490508561010060000181905550600061010060010154905085610100600101819055506000610100600301549050856101006003018190555060006101006004015490508561010060040181905550600061010060050154905085610100600501819055507faf0694d1174825ee4698206774f111466e2b166d08603353f86ea5cf70cf0901858b868c878d888e898f60405161253e9a99989796959493929190614126565b60405180910390a150505050505050505050565b6065546001600160a01b0316331461257c5760405162461bcd60e51b8152600401610b0290614041565b6001600160a01b0381166125e15760405162461bcd60e51b815260206004820152602660248201527f4f776e61626c653a206e6577206f776e657220697320746865207a65726f206160448201526564647265737360d01b6064820152608401610b02565b61103a81612f0a565b6065546001600160a01b031633146126145760405162461bcd60e51b8152600401610b0290614041565b61010654851415806126295750610107548414155b806126375750610109548314155b80612645575061010a548214155b80612653575061010b548114155b6126b85760405162461bcd60e51b815260206004820152603060248201527f526574726f4e656b6f3a2053656c6c20666565732068617320616c726561647960448201526f207468652073616d652076616c75657360801b6064820152608401610b02565b60006101066000015490508561010660000181905550600061010660010154905085610106600101819055506000610106600301549050856101066003018190555060006101066004015490508561010660040181905550600061010660050154905085610106600501819055507f2decc87f95dd422b46f67d72cf82bbef56a5685acb65edfd26c641dcaf6b2a9c858b868c878d888e898f60405161253e9a99989796959493929190614126565b3b151590565b6001600160a01b0383166127cf5760405162461bcd60e51b8152602060048201526024808201527f45524332303a20617070726f76652066726f6d20746865207a65726f206164646044820152637265737360e01b6064820152608401610b02565b6001600160a01b0382166128305760405162461bcd60e51b815260206004820152602260248201527f45524332303a20617070726f766520746f20746865207a65726f206164647265604482015261737360f01b6064820152608401610b02565b6001600160a01b0383811660008181526034602090815260408083209487168084529482529182902085905590518481527f8c5be1e5ebec7d5bd14f71427d1e84f3dd0314c0f7b2291e5b200ac8c7c3b925910160405180910390a3505050565b600054610100900460ff166128b85760405162461bcd60e51b8152600401610b029061416b565b6128c0612fc5565b6113538282612fec565b600054610100900460ff166128f15760405162461bcd60e51b8152600401610b029061416b565b6128f9612fc5565b6116c061303a565b600054610100900460ff166129285760405162461bcd60e51b8152600401610b029061416b565b612930612fc5565b6116c0612fc5565b6001600160a01b038216600090815260fc602052604090205460ff16151581151514156129d95760405162461bcd60e51b815260206004820152604360248201527f526574726f4e656b6f3a204175746f6d61746564206d61726b6574206d616b6560448201527f72207061697220697320616c72656164792073657420746f20746861742076616064820152626c756560e81b608482015260a401610b02565b6001600160a01b038216600081815260fc6020526040808220805460ff191685151590811790915590519092917f167fec55059eb0be5a803ca151d74e2f1df0223b4482c9eb80a57be642be0bf591a35050565b6001600160a01b038216612a835760405162461bcd60e51b815260206004820152601f60248201527f45524332303a206d696e7420746f20746865207a65726f2061646472657373006044820152606401610b02565b8060356000828254612a95919061410e565b90915550506001600160a01b03821660009081526033602052604081208054839290612ac290849061410e565b90915550506040518181526001600160a01b038316906000907fddf252ad1be2c89b69c2b068fc378daa952ba7f163c4a11628f55a4df523b3ef9060200160405180910390a35050565b6001600160a01b038316612b745760405162461bcd60e51b815260206004820152602960248201527f526574726f4e656b6f3a205472616e736665722066726f6d20746865207a65726044820152686f206164647265737360b81b6064820152608401610b02565b6001600160a01b038216612bda5760405162461bcd60e51b815260206004820152602760248201527f526574726f4e656b6f3a205472616e7366657220746f20746865207a65726f206044820152666164647265737360c81b6064820152608401610b02565b60008111612c2a5760405162461bcd60e51b815260206004820152601e60248201527f526574726f4e656b6f3a205472616e73666572207a65726f20746f6b656e00006044820152606401610b02565b6001600160a01b038316600090815260fe602052604090205460ff16158015612c6c57506001600160a01b038216600090815260fe602052604090205460ff16155b612cb85760405162461bcd60e51b815260206004820152601e60248201527f526574726f4e656b6f3a20426c61636b6c6973746564206164647265737300006044820152606401610b02565b6001600160a01b038316600090815260fc602052604090205460ff805460ff19169181161515919091179055612cee838361306a565b15612d3a576000612cfd6131d6565b90506000612710612d0e8385614022565b612d1891906141b6565b9050612d2481846141d8565b92508015612d3757612d378530836131f2565b50505b8015612d4b57612d4b8383836131f2565b612d5583836133c2565b15612d6257612d6261342b565b505050565b7f360894a13ba1a3210667c828492db98dca3e2076cc3735a920a3ca505d382bbc546001600160a01b031690565b6065546001600160a01b0316331461103a5760405162461bcd60e51b8152600401610b0290614041565b6000612dc9612d67565b9050612dd4846135be565b600083511180612de15750815b15612df257612df08484613663565b505b7f4910fdfa16fed3260ed0e7147f7cc6da11a60208b5b9406d12a635614ffd9143805460ff16612f0357805460ff191660011781556040516001600160a01b0383166024820152612e7190869060440160408051601f198184030181529190526020810180516001600160e01b0316631b2ce7f360e11b179052613663565b50805460ff19168155612e82612d67565b6001600160a01b0316826001600160a01b031614612efa5760405162461bcd60e51b815260206004820152602f60248201527f45524331393637557067726164653a207570677261646520627265616b73206660448201526e75727468657220757067726164657360881b6064820152608401610b02565b612f038561374e565b5050505050565b606580546001600160a01b038381166001600160a01b0319831681179093556040519116919082907f8be0079c531659141344cd1fd0a4f28419497f9722a3daafe3b4186f6b6457e090600090a35050565b61010b5461010a54610109546101075461010654600094939291612f7f9161410e565b612f89919061410e565b612f93919061410e565b612f9d919061410e565b905090565b6101055461010454610103546101015461010054600094939291612f7f9161410e565b600054610100900460ff166116c05760405162461bcd60e51b8152600401610b029061416b565b600054610100900460ff166130135760405162461bcd60e51b8152600401610b029061416b565b8151613026906036906020850190613b1f565b508051612d62906037906020840190613b1f565b600054610100900460ff166130615760405162461bcd60e51b8152600401610b029061416b565b6116c033612f0a565b61011154600090600160a01b900460ff1615801561309657506065546001600160a01b03848116911614155b80156130b057506065546001600160a01b03838116911614155b80156130cb575061010e546001600160a01b03848116911614155b80156130e6575061010e546001600160a01b03838116911614155b8015613101575061010f546001600160a01b03848116911614155b801561311c575061010f546001600160a01b03838116911614155b80156131375750610110546001600160a01b03848116911614155b80156131525750610110546001600160a01b03838116911614155b801561316d5750610111546001600160a01b03848116911614155b80156131885750610111546001600160a01b03838116911614155b80156131ad57506001600160a01b038316600090815260fd602052604090205460ff16155b8015610f6d5750506001600160a01b0316600090815260fd602052604090205460ff1615919050565b60ff8054600091166131ea57612f9d612f5c565b612f9d612fa2565b6001600160a01b0383166132565760405162461bcd60e51b815260206004820152602560248201527f45524332303a207472616e736665722066726f6d20746865207a65726f206164604482015264647265737360d81b6064820152608401610b02565b6001600160a01b0382166132b85760405162461bcd60e51b815260206004820152602360248201527f45524332303a207472616e7366657220746f20746865207a65726f206164647260448201526265737360e81b6064820152608401610b02565b6001600160a01b038316600090815260336020526040902054818110156133305760405162461bcd60e51b815260206004820152602660248201527f45524332303a207472616e7366657220616d6f756e7420657863656564732062604482015265616c616e636560d01b6064820152608401610b02565b6001600160a01b0380851660009081526033602052604080822085850390559185168152908120805484929061336790849061410e565b92505081905550826001600160a01b0316846001600160a01b03167fddf252ad1be2c89b69c2b068fc378daa952ba7f163c4a11628f55a4df523b3ef846040516133b391815260200190565b60405180910390a35b50505050565b61011154600090600160a01b900460ff161580156133f2575061010c543060009081526033602052604090205410155b801561340c57506065546001600160a01b03848116911614155b8015610f6d5750506065546001600160a01b0391821691161415919050565b610111805460ff60a01b1916600160a01b17905530600090815260336020526040812054905060008060008060008061346261378e565b9550955095509550955095506000600282888a61347f9190614022565b61348991906141b6565b61349391906141b6565b905060006134a1828a6141d8565b90506134ac816137b9565b476000846134ba8a84614022565b6134c491906141b6565b61010e549091506134de906001600160a01b031682613911565b6000856134eb8a85614022565b6134f591906141b6565b61010f5490915061350f906001600160a01b031682613911565b60008661351c8a86614022565b61352691906141b6565b61011054909150613540906001600160a01b031682613911565b60008761354d8a87614022565b61355791906141b6565b61011154909150613571906001600160a01b031682613911565b6000818461357f87896141d8565b61358991906141d8565b61359391906141d8565b905061359f88826139bb565b5050610111805460ff60a01b1916905550505050505050505050505050565b803b6136225760405162461bcd60e51b815260206004820152602d60248201527f455243313936373a206e657720696d706c656d656e746174696f6e206973206e60448201526c1bdd08184818dbdb9d1c9858dd609a1b6064820152608401610b02565b7f360894a13ba1a3210667c828492db98dca3e2076cc3735a920a3ca505d382bbc80546001600160a01b0319166001600160a01b0392909216919091179055565b6060823b6136c25760405162461bcd60e51b815260206004820152602660248201527f416464726573733a2064656c65676174652063616c6c20746f206e6f6e2d636f6044820152651b9d1c9858dd60d21b6064820152608401610b02565b600080846001600160a01b0316846040516136dd91906141ef565b600060405180830381855af49150503d8060008114613718576040519150601f19603f3d011682016040523d82523d6000602084013e61371d565b606091505b509150915061374582826040518060600160405280602781526020016142c160279139613a18565b95945050505050565b613757816135be565b6040516001600160a01b038216907fbc7cd75a20ee27fd9adebab32041f755214dbc6bffa90cc0225b39da2e5c2d3b90600090a250565b60ff805460009182918291829182918291166137b1576137ac61224c565b612280565b612280612293565b801561103a5760408051600280825260608201835260009260208301908036833701905050905030816000815181106137f4576137f461420b565b6001600160a01b0392831660209182029290920181019190915260fb54604080516315ab88c960e31b81529051919093169263ad5c46489260048083019391928290030181865afa15801561384d573d6000803e3d6000fd5b505050506040513d601f19601f820116820180604052508101906138719190613efc565b816001815181106138845761388461420b565b6001600160a01b03928316602091820292909201015260fb546138aa913091168461276d565b60fb5460405163791ac94760e01b81526001600160a01b039091169063791ac947906138e3908590600090869030904290600401614221565b600060405180830381600087803b1580156138fd57600080fd5b505af1158015610de1573d6000803e3d6000fd5b8015611353576000826001600160a01b03168260405160006040518083038185875af1925050503d8060008114613964576040519150601f19603f3d011682016040523d82523d6000602084013e613969565b606091505b505090508015612d6257826001600160a01b03167f951187f2fc3f183ebdc238898fc9563f0a7d2956d726dd22c4fff10cd6ad910d836040516139ae91815260200190565b60405180910390a2505050565b6000821180156139cb5750600081115b15611353576139da8282613a51565b60408051838152602081018390529081018390527f0990fc5ce44d4f819866e6e93c5c708084e19d57849a66fa65cd90bcb0d6fc7190606001610ebc565b60608315613a27575081610f6d565b825115613a375782518084602001fd5b8160405162461bcd60e51b8152600401610b029190613be4565b60fb54613a699030906001600160a01b03168461276d565b60fb546001600160a01b031663f305d719823085600080613a926065546001600160a01b031690565b60405160e088901b6001600160e01b03191681526001600160a01b03958616600482015260248101949094526044840192909252606483015290911660848201524260a482015260c40160606040518083038185885af1158015613afa573d6000803e3d6000fd5b50505050506040513d601f19601f82011682018060405250810190612f039190614292565b828054613b2b90613ec1565b90600052602060002090601f016020900481019282613b4d5760008555613b93565b82601f10613b6657805160ff1916838001178555613b93565b82800160010185558215613b93579182015b82811115613b93578251825591602001919060010190613b78565b50613b9f929150613ba3565b5090565b5b80821115613b9f5760008155600101613ba4565b60005b83811015613bd3578181015183820152602001613bbb565b838111156133bc5750506000910152565b6020815260008251806020840152613c03816040850160208701613bb8565b601f01601f19169190910160400192915050565b6001600160a01b038116811461103a57600080fd5b60008060408385031215613c3f57600080fd5b8235613c4a81613c17565b946020939093013593505050565b600080600080600060a08688031215613c7057600080fd5b8535613c7b81613c17565b94506020860135613c8b81613c17565b93506040860135613c9b81613c17565b92506060860135613cab81613c17565b91506080860135613cbb81613c17565b809150509295509295909350565b600060208284031215613cdb57600080fd5b5035919050565b600080600060608486031215613cf757600080fd5b8335613d0281613c17565b92506020840135613d1281613c17565b929592945050506040919091013590565b600060208284031215613d3557600080fd5b8135610f6d81613c17565b60008060408385031215613d5357600080fd5b8235613d5e81613c17565b915060208301358015158114613d7357600080fd5b809150509250929050565b634e487b7160e01b600052604160045260246000fd5b60008060408385031215613da757600080fd5b8235613db281613c17565b9150602083013567ffffffffffffffff80821115613dcf57600080fd5b818501915085601f830112613de357600080fd5b813581811115613df557613df5613d7e565b604051601f8201601f19908116603f01168101908382118183101715613e1d57613e1d613d7e565b81604052828152886020848701011115613e3657600080fd5b8260208601602083013760006020848301015280955050505050509250929050565b60008060408385031215613e6b57600080fd5b8235613e7681613c17565b91506020830135613d7381613c17565b600080600080600060a08688031215613e9e57600080fd5b505083359560208501359550604085013594606081013594506080013592509050565b600181811c90821680613ed557607f821691505b60208210811415613ef657634e487b7160e01b600052602260045260246000fd5b50919050565b600060208284031215613f0e57600080fd5b8151610f6d81613c17565b634e487b7160e01b600052601160045260246000fd5b600181815b80851115613f6a578160001904821115613f5057613f50613f19565b80851615613f5d57918102915b93841c9390800290613f34565b509250929050565b600082613f8157506001610a7e565b81613f8e57506000610a7e565b8160018114613fa45760028114613fae57613fca565b6001915050610a7e565b60ff841115613fbf57613fbf613f19565b50506001821b610a7e565b5060208310610133831016604e8410600b8410161715613fed575081810a610a7e565b613ff78383613f2f565b806000190482111561400b5761400b613f19565b029392505050565b6000610f6d60ff841683613f72565b600081600019048311821515161561403c5761403c613f19565b500290565b6020808252818101527f4f776e61626c653a2063616c6c6572206973206e6f7420746865206f776e6572604082015260600190565b6020808252602c908201527f46756e6374696f6e206d7573742062652063616c6c6564207468726f7567682060408201526b19195b1959d85d1958d85b1b60a21b606082015260800190565b6020808252602c908201527f46756e6374696f6e206d7573742062652063616c6c6564207468726f7567682060408201526b6163746976652070726f787960a01b606082015260800190565b6000821982111561412157614121613f19565b500190565b998a5260208a019890985260408901969096526060880194909452608087019290925260a086015260c085015260e08401526101008301526101208201526101400190565b6020808252602b908201527f496e697469616c697a61626c653a20636f6e7472616374206973206e6f74206960408201526a6e697469616c697a696e6760a81b606082015260800190565b6000826141d357634e487b7160e01b600052601260045260246000fd5b500490565b6000828210156141ea576141ea613f19565b500390565b60008251614201818460208701613bb8565b9190910192915050565b634e487b7160e01b600052603260045260246000fd5b600060a082018783526020878185015260a0604085015281875180845260c086019150828901935060005b818110156142715784516001600160a01b03168352938301939183019160010161424c565b50506001600160a01b03969096166060850152505050608001529392505050565b6000806000606084860312156142a757600080fd5b835192506020840151915060408401519050925092509256fe416464726573733a206c6f772d6c6576656c2064656c65676174652063616c6c206661696c6564a264697066735822122059d85bc76f952536e4c283729ab2b3e26b4fde156f35c51bfe4e0f5c988b8db164736f6c634300080b0033",
  "linkReferences": {},
  "deployedLinkReferences": {}
}