{
  "_format": "hh-sol-artifact-1",
  "contractName": "Multisender",
  "sourceName": "contracts/multisender/Multisender.sol",
  "abi": [
    {
      "inputs": [],
      "stateMutability": "nonpayable",
      "type": "constructor"
    },
    {
      "anonymous": false,
      "inputs": [
        {
          "indexed": false,
          "internalType": "address",
          "name": "previousAdmin",
          "type": "address"
        },
        {
          "indexed": false,
          "internalType": "address",
          "name": "newAdmin",
          "type": "address"
        }
      ],
      "name": "AdminChanged",
      "type": "event"
    },
    {
      "anonymous": false,
      "inputs": [
        {
          "indexed": true,
          "internalType": "address",
          "name": "beacon",
          "type": "address"
        }
      ],
      "name": "BeaconUpgraded",
      "type": "event"
    },
    {
      "anonymous": false,
      "inputs": [
        {
          "indexed": true,
          "internalType": "address",
          "name": "previousOwner",
          "type": "address"
        },
        {
          "indexed": true,
          "internalType": "address",
          "name": "newOwner",
          "type": "address"
        }
      ],
      "name": "OwnershipTransferred",
      "type": "event"
    },
    {
      "anonymous": false,
      "inputs": [
        {
          "indexed": true,
          "internalType": "address",
          "name": "implementation",
          "type": "address"
        }
      ],
      "name": "Upgraded",
      "type": "event"
    },
    {
      "inputs": [],
      "name": "initialize",
      "outputs": [],
      "stateMutability": "nonpayable",
      "type": "function"
    },
    {
      "inputs": [
        {
          "internalType": "address",
          "name": "token",
          "type": "address"
        },
        {
          "internalType": "address[]",
          "name": "contributors",
          "type": "address[]"
        },
        {
          "internalType": "uint256[]",
          "name": "balances",
          "type": "uint256[]"
        }
      ],
      "name": "multisendToken",
      "outputs": [],
      "stateMutability": "nonpayable",
      "type": "function"
    },
    {
      "inputs": [
        {
          "internalType": "address",
          "name": "token",
          "type": "address"
        },
        {
          "internalType": "address[]",
          "name": "contributors",
          "type": "address[]"
        },
        {
          "internalType": "uint256",
          "name": "balance",
          "type": "uint256"
        }
      ],
      "name": "multisendTokenSameAmount",
      "outputs": [],
      "stateMutability": "nonpayable",
      "type": "function"
    },
    {
      "inputs": [],
      "name": "owner",
      "outputs": [
        {
          "internalType": "address",
          "name": "",
          "type": "address"
        }
      ],
      "stateMutability": "view",
      "type": "function"
    },
    {
      "inputs": [],
      "name": "renounceOwnership",
      "outputs": [],
      "stateMutability": "nonpayable",
      "type": "function"
    },
    {
      "inputs": [
        {
          "internalType": "address",
          "name": "newOwner",
          "type": "address"
        }
      ],
      "name": "transferOwnership",
      "outputs": [],
      "stateMutability": "nonpayable",
      "type": "function"
    },
    {
      "inputs": [
        {
          "internalType": "address",
          "name": "newImplementation",
          "type": "address"
        }
      ],
      "name": "upgradeTo",
      "outputs": [],
      "stateMutability": "nonpayable",
      "type": "function"
    },
    {
      "inputs": [
        {
          "internalType": "address",
          "name": "newImplementation",
          "type": "address"
        },
        {
          "internalType": "bytes",
          "name": "data",
          "type": "bytes"
        }
      ],
      "name": "upgradeToAndCall",
      "outputs": [],
      "stateMutability": "payable",
      "type": "function"
    }
  ],
  "bytecode": "0x60a06040523060805234801561001457600080fd5b50600054610100900460ff166100305760005460ff1615610038565b6100386100d9565b61009f5760405162461bcd60e51b815260206004820152602e60248201527f496e697469616c697a61626c653a20636f6e747261637420697320616c72656160448201526d191e481a5b9a5d1a585b1a5e995960921b606482015260840160405180910390fd5b600054610100900460ff161580156100c1576000805461ffff19166101011790555b80156100d3576000805461ff00191690555b506100fa565b60006100ee306100f460201b6107581760201c565b15905090565b3b151590565b6080516111fb61012a6000396000818161044a0152818161048a01528181610513015261055301526111fb6000f3fe60806040526004361061007b5760003560e01c8063715018a61161004e578063715018a6146100f55780638129fc1c1461010a5780638da5cb5b1461011f578063f2fde38b1461014b57600080fd5b80630b66f3f5146100805780633312362a146100a25780633659cfe6146100c25780634f1ef286146100e2575b600080fd5b34801561008c57600080fd5b506100a061009b366004610d1a565b61016b565b005b3480156100ae57600080fd5b506100a06100bd366004610de4565b61032d565b3480156100ce57600080fd5b506100a06100dd366004610e3b565b61043f565b6100a06100f0366004610e56565b610508565b34801561010157600080fd5b506100a06105c2565b34801561011657600080fd5b506100a06105f8565b34801561012b57600080fd5b50603354604080516001600160a01b039092168252519081900360200190f35b34801561015757600080fd5b506100a0610166366004610e3b565b6106c0565b6002825110156101965760405162461bcd60e51b815260040161018d90610efc565b60405180910390fd5b61ffff825111156101b95760405162461bcd60e51b815260040161018d90610f4c565b805182511461023b5760405162461bcd60e51b815260206004820152604260248201527f4d756c746973656e6465723a2044697363726570616e6369657320626574776560448201527f656e20636f6e7472696275746f7220616e642062616c616e6365206c656e6774606482015261687360f01b608482015260a40161018d565b8260005b83518161ffff16101561032657816001600160a01b03166323b872dd33868461ffff168151811061027257610272610f9f565b6020026020010151868561ffff168151811061029057610290610f9f565b60209081029190910101516040516001600160e01b031960e086901b1681526001600160a01b03938416600482015292909116602483015260448201526064016020604051808303816000875af11580156102ef573d6000803e3d6000fd5b505050506040513d601f19601f820116820180604052508101906103139190610fb5565b508061031e81610fd7565b91505061023f565b5050505050565b60028251101561034f5760405162461bcd60e51b815260040161018d90610efc565b61ffff825111156103725760405162461bcd60e51b815260040161018d90610f4c565b8260005b83518161ffff16101561032657816001600160a01b03166323b872dd33868461ffff16815181106103a9576103a9610f9f565b60209081029190910101516040516001600160e01b031960e085901b1681526001600160a01b03928316600482015291166024820152604481018690526064016020604051808303816000875af1158015610408573d6000803e3d6000fd5b505050506040513d601f19601f8201168201806040525081019061042c9190610fb5565b508061043781610fd7565b915050610376565b306001600160a01b037f00000000000000000000000000000000000000000000000000000000000000001614156104885760405162461bcd60e51b815260040161018d90611007565b7f00000000000000000000000000000000000000000000000000000000000000006001600160a01b03166104ba61075e565b6001600160a01b0316146104e05760405162461bcd60e51b815260040161018d90611053565b6104e98161078c565b60408051600080825260208201909252610505918391906107b6565b50565b306001600160a01b037f00000000000000000000000000000000000000000000000000000000000000001614156105515760405162461bcd60e51b815260040161018d90611007565b7f00000000000000000000000000000000000000000000000000000000000000006001600160a01b031661058361075e565b6001600160a01b0316146105a95760405162461bcd60e51b815260040161018d90611053565b6105b28261078c565b6105be828260016107b6565b5050565b6033546001600160a01b031633146105ec5760405162461bcd60e51b815260040161018d9061109f565b6105f660006108fa565b565b600054610100900460ff166106135760005460ff1615610617565b303b155b61067a5760405162461bcd60e51b815260206004820152602e60248201527f496e697469616c697a61626c653a20636f6e747261637420697320616c72656160448201526d191e481a5b9a5d1a585b1a5e995960921b606482015260840161018d565b600054610100900460ff1615801561069c576000805461ffff19166101011790555b6106a461094c565b6106ac610983565b8015610505576000805461ff001916905550565b6033546001600160a01b031633146106ea5760405162461bcd60e51b815260040161018d9061109f565b6001600160a01b03811661074f5760405162461bcd60e51b815260206004820152602660248201527f4f776e61626c653a206e6577206f776e657220697320746865207a65726f206160448201526564647265737360d01b606482015260840161018d565b610505816108fa565b3b151590565b7f360894a13ba1a3210667c828492db98dca3e2076cc3735a920a3ca505d382bbc546001600160a01b031690565b6033546001600160a01b031633146105055760405162461bcd60e51b815260040161018d9061109f565b60006107c061075e565b90506107cb846109ba565b6000835111806107d85750815b156107e9576107e78484610a5f565b505b7f4910fdfa16fed3260ed0e7147f7cc6da11a60208b5b9406d12a635614ffd9143805460ff1661032657805460ff191660011781556040516001600160a01b038316602482015261086890869060440160408051601f198184030181529190526020810180516001600160e01b0316631b2ce7f360e11b179052610a5f565b50805460ff1916815561087961075e565b6001600160a01b0316826001600160a01b0316146108f15760405162461bcd60e51b815260206004820152602f60248201527f45524331393637557067726164653a207570677261646520627265616b73206660448201526e75727468657220757067726164657360881b606482015260840161018d565b61032685610b4a565b603380546001600160a01b038381166001600160a01b0319831681179093556040519116919082907f8be0079c531659141344cd1fd0a4f28419497f9722a3daafe3b4186f6b6457e090600090a35050565b600054610100900460ff166109735760405162461bcd60e51b815260040161018d906110d4565b61097b610b8a565b6105f6610bb1565b600054610100900460ff166109aa5760405162461bcd60e51b815260040161018d906110d4565b6109b2610b8a565b6105f6610b8a565b803b610a1e5760405162461bcd60e51b815260206004820152602d60248201527f455243313936373a206e657720696d706c656d656e746174696f6e206973206e60448201526c1bdd08184818dbdb9d1c9858dd609a1b606482015260840161018d565b7f360894a13ba1a3210667c828492db98dca3e2076cc3735a920a3ca505d382bbc80546001600160a01b0319166001600160a01b0392909216919091179055565b6060823b610abe5760405162461bcd60e51b815260206004820152602660248201527f416464726573733a2064656c65676174652063616c6c20746f206e6f6e2d636f6044820152651b9d1c9858dd60d21b606482015260840161018d565b600080846001600160a01b031684604051610ad9919061114f565b600060405180830381855af49150503d8060008114610b14576040519150601f19603f3d011682016040523d82523d6000602084013e610b19565b606091505b5091509150610b41828260405180606001604052806027815260200161119f60279139610be1565b95945050505050565b610b53816109ba565b6040516001600160a01b038216907fbc7cd75a20ee27fd9adebab32041f755214dbc6bffa90cc0225b39da2e5c2d3b90600090a250565b600054610100900460ff166105f65760405162461bcd60e51b815260040161018d906110d4565b600054610100900460ff16610bd85760405162461bcd60e51b815260040161018d906110d4565b6105f6336108fa565b60608315610bf0575081610c1a565b825115610c005782518084602001fd5b8160405162461bcd60e51b815260040161018d919061116b565b9392505050565b80356001600160a01b0381168114610c3857600080fd5b919050565b634e487b7160e01b600052604160045260246000fd5b604051601f8201601f1916810167ffffffffffffffff81118282101715610c7c57610c7c610c3d565b604052919050565b600067ffffffffffffffff821115610c9e57610c9e610c3d565b5060051b60200190565b600082601f830112610cb957600080fd5b81356020610cce610cc983610c84565b610c53565b82815260059290921b84018101918181019086841115610ced57600080fd5b8286015b84811015610d0f57610d0281610c21565b8352918301918301610cf1565b509695505050505050565b600080600060608486031215610d2f57600080fd5b610d3884610c21565b925060208085013567ffffffffffffffff80821115610d5657600080fd5b610d6288838901610ca8565b94506040870135915080821115610d7857600080fd5b508501601f81018713610d8a57600080fd5b8035610d98610cc982610c84565b81815260059190911b82018301908381019089831115610db757600080fd5b928401925b82841015610dd557833582529284019290840190610dbc565b80955050505050509250925092565b600080600060608486031215610df957600080fd5b610e0284610c21565b9250602084013567ffffffffffffffff811115610e1e57600080fd5b610e2a86828701610ca8565b925050604084013590509250925092565b600060208284031215610e4d57600080fd5b610c1a82610c21565b60008060408385031215610e6957600080fd5b610e7283610c21565b915060208084013567ffffffffffffffff80821115610e9057600080fd5b818601915086601f830112610ea457600080fd5b813581811115610eb657610eb6610c3d565b610ec8601f8201601f19168501610c53565b91508082528784828501011115610ede57600080fd5b80848401858401376000848284010152508093505050509250929050565b60208082526030908201527f4d756c746973656e6465723a204174206c65617374203220636f6e747269627560408201526f1d1bdc9cc81a5cc81c995c5d5a5c995960821b606082015260800190565b60208082526033908201527f4d756c746973656e6465723a204174206d6f737420363535333520636f6e74726040820152721a589d5d1bdc9cc81a5cc81c995c5d5a5c9959606a1b606082015260800190565b634e487b7160e01b600052603260045260246000fd5b600060208284031215610fc757600080fd5b81518015158114610c1a57600080fd5b600061ffff80831681811415610ffd57634e487b7160e01b600052601160045260246000fd5b6001019392505050565b6020808252602c908201527f46756e6374696f6e206d7573742062652063616c6c6564207468726f7567682060408201526b19195b1959d85d1958d85b1b60a21b606082015260800190565b6020808252602c908201527f46756e6374696f6e206d7573742062652063616c6c6564207468726f7567682060408201526b6163746976652070726f787960a01b606082015260800190565b6020808252818101527f4f776e61626c653a2063616c6c6572206973206e6f7420746865206f776e6572604082015260600190565b6020808252602b908201527f496e697469616c697a61626c653a20636f6e7472616374206973206e6f74206960408201526a6e697469616c697a696e6760a81b606082015260800190565b60005b8381101561113a578181015183820152602001611122565b83811115611149576000848401525b50505050565b6000825161116181846020870161111f565b9190910192915050565b602081526000825180602084015261118a81604085016020870161111f565b601f01601f1916919091016040019291505056fe416464726573733a206c6f772d6c6576656c2064656c65676174652063616c6c206661696c6564a264697066735822122028fd340054925d872f924fd54e2a63e622994f42b9d46b3042d643591ac894f964736f6c634300080b0033",
  "linkReferences": {},
  "deployedLinkReferences": {}
}