{
  "_format": "hh-sol-artifact-1",
  "contractName": "Staking",
  "sourceName": "contracts/staking/Staking.sol",
  "abi": [
    {
      "inputs": [],
      "stateMutability": "nonpayable",
      "type": "constructor"
    },
    {
      "anonymous": false,
      "inputs": [
        {
          "indexed": false,
          "internalType": "address",
          "name": "previousAdmin",
          "type": "address"
        },
        {
          "indexed": false,
          "internalType": "address",
          "name": "newAdmin",
          "type": "address"
        }
      ],
      "name": "AdminChanged",
      "type": "event"
    },
    {
      "anonymous": false,
      "inputs": [
        {
          "indexed": true,
          "internalType": "address",
          "name": "beacon",
          "type": "address"
        }
      ],
      "name": "BeaconUpgraded",
      "type": "event"
    },
    {
      "anonymous": false,
      "inputs": [
        {
          "indexed": true,
          "internalType": "address",
          "name": "previousOwner",
          "type": "address"
        },
        {
          "indexed": true,
          "internalType": "address",
          "name": "newOwner",
          "type": "address"
        }
      ],
      "name": "OwnershipTransferred",
      "type": "event"
    },
    {
      "anonymous": false,
      "inputs": [
        {
          "indexed": true,
          "internalType": "address",
          "name": "holder",
          "type": "address"
        },
        {
          "indexed": false,
          "internalType": "uint256",
          "name": "stakeholderIndex",
          "type": "uint256"
        },
        {
          "indexed": false,
          "internalType": "uint256",
          "name": "amount",
          "type": "uint256"
        },
        {
          "indexed": false,
          "internalType": "uint256",
          "name": "timestamp",
          "type": "uint256"
        }
      ],
      "name": "Staked",
      "type": "event"
    },
    {
      "anonymous": false,
      "inputs": [
        {
          "indexed": true,
          "internalType": "address",
          "name": "implementation",
          "type": "address"
        }
      ],
      "name": "Upgraded",
      "type": "event"
    },
    {
      "anonymous": false,
      "inputs": [
        {
          "indexed": true,
          "internalType": "address",
          "name": "holder",
          "type": "address"
        },
        {
          "indexed": false,
          "internalType": "uint256",
          "name": "stakeholderIndex",
          "type": "uint256"
        },
        {
          "indexed": false,
          "internalType": "uint256",
          "name": "amount",
          "type": "uint256"
        },
        {
          "indexed": false,
          "internalType": "uint256",
          "name": "timestamp",
          "type": "uint256"
        }
      ],
      "name": "Withdrawn",
      "type": "event"
    },
    {
      "inputs": [],
      "name": "diamondLockPeriod",
      "outputs": [
        {
          "internalType": "uint256",
          "name": "",
          "type": "uint256"
        }
      ],
      "stateMutability": "view",
      "type": "function"
    },
    {
      "inputs": [],
      "name": "goldLockPeriod",
      "outputs": [
        {
          "internalType": "uint256",
          "name": "",
          "type": "uint256"
        }
      ],
      "stateMutability": "view",
      "type": "function"
    },
    {
      "inputs": [
        {
          "internalType": "address",
          "name": "token_",
          "type": "address"
        },
        {
          "internalType": "address",
          "name": "rewardsCalculator_",
          "type": "address"
        }
      ],
      "name": "initialize",
      "outputs": [],
      "stateMutability": "nonpayable",
      "type": "function"
    },
    {
      "inputs": [],
      "name": "owner",
      "outputs": [
        {
          "internalType": "address",
          "name": "",
          "type": "address"
        }
      ],
      "stateMutability": "view",
      "type": "function"
    },
    {
      "inputs": [],
      "name": "packAmount",
      "outputs": [
        {
          "internalType": "uint256",
          "name": "",
          "type": "uint256"
        }
      ],
      "stateMutability": "view",
      "type": "function"
    },
    {
      "inputs": [],
      "name": "renounceOwnership",
      "outputs": [],
      "stateMutability": "nonpayable",
      "type": "function"
    },
    {
      "inputs": [],
      "name": "rewardsCalculator",
      "outputs": [
        {
          "internalType": "address",
          "name": "",
          "type": "address"
        }
      ],
      "stateMutability": "view",
      "type": "function"
    },
    {
      "inputs": [],
      "name": "silverLockPeriod",
      "outputs": [
        {
          "internalType": "uint256",
          "name": "",
          "type": "uint256"
        }
      ],
      "stateMutability": "view",
      "type": "function"
    },
    {
      "inputs": [
        {
          "internalType": "uint8",
          "name": "stakeIndex",
          "type": "uint8"
        }
      ],
      "name": "stakeDiamond",
      "outputs": [],
      "stateMutability": "nonpayable",
      "type": "function"
    },
    {
      "inputs": [
        {
          "internalType": "uint8",
          "name": "stakeIndex",
          "type": "uint8"
        }
      ],
      "name": "stakeGold",
      "outputs": [],
      "stateMutability": "nonpayable",
      "type": "function"
    },
    {
      "inputs": [
        {
          "internalType": "uint8",
          "name": "stakeIndex",
          "type": "uint8"
        }
      ],
      "name": "stakeSilver",
      "outputs": [],
      "stateMutability": "nonpayable",
      "type": "function"
    },
    {
      "inputs": [
        {
          "internalType": "address",
          "name": "stakeholder",
          "type": "address"
        }
      ],
      "name": "stakeSummary",
      "outputs": [
        {
          "components": [
            {
              "internalType": "uint256",
              "name": "totalStakedAmount",
              "type": "uint256"
            },
            {
              "components": [
                {
                  "internalType": "address",
                  "name": "holder",
                  "type": "address"
                },
                {
                  "internalType": "uint256",
                  "name": "amount",
                  "type": "uint256"
                },
                {
                  "internalType": "uint256",
                  "name": "since",
                  "type": "uint256"
                },
                {
                  "internalType": "uint256",
                  "name": "claimableAmount",
                  "type": "uint256"
                }
              ],
              "internalType": "struct Staking.Stake[9]",
              "name": "stakes",
              "type": "tuple[9]"
            }
          ],
          "internalType": "struct Staking.StakingSummary",
          "name": "",
          "type": "tuple"
        }
      ],
      "stateMutability": "view",
      "type": "function"
    },
    {
      "inputs": [
        {
          "internalType": "uint256",
          "name": "stakeholderIndex",
          "type": "uint256"
        }
      ],
      "name": "stakeholderAtIndex",
      "outputs": [
        {
          "internalType": "address",
          "name": "",
          "type": "address"
        }
      ],
      "stateMutability": "view",
      "type": "function"
    },
    {
      "inputs": [],
      "name": "token",
      "outputs": [
        {
          "internalType": "address",
          "name": "",
          "type": "address"
        }
      ],
      "stateMutability": "view",
      "type": "function"
    },
    {
      "inputs": [],
      "name": "totalClaimableAmount",
      "outputs": [
        {
          "internalType": "uint256",
          "name": "",
          "type": "uint256"
        }
      ],
      "stateMutability": "view",
      "type": "function"
    },
    {
      "inputs": [],
      "name": "totalClaimedAmount",
      "outputs": [
        {
          "internalType": "uint256",
          "name": "",
          "type": "uint256"
        }
      ],
      "stateMutability": "view",
      "type": "function"
    },
    {
      "inputs": [],
      "name": "totalStakedAmount",
      "outputs": [
        {
          "internalType": "uint256",
          "name": "",
          "type": "uint256"
        }
      ],
      "stateMutability": "view",
      "type": "function"
    },
    {
      "inputs": [
        {
          "internalType": "address",
          "name": "newOwner",
          "type": "address"
        }
      ],
      "name": "transferOwnership",
      "outputs": [],
      "stateMutability": "nonpayable",
      "type": "function"
    },
    {
      "inputs": [
        {
          "internalType": "uint256",
          "name": "lockPeriod",
          "type": "uint256"
        }
      ],
      "name": "updateDiamondLockPeriod",
      "outputs": [],
      "stateMutability": "nonpayable",
      "type": "function"
    },
    {
      "inputs": [
        {
          "internalType": "uint256",
          "name": "lockPeriod",
          "type": "uint256"
        }
      ],
      "name": "updateGoldLockPeriod",
      "outputs": [],
      "stateMutability": "nonpayable",
      "type": "function"
    },
    {
      "inputs": [
        {
          "internalType": "uint256",
          "name": "amount",
          "type": "uint256"
        }
      ],
      "name": "updatePackAmount",
      "outputs": [],
      "stateMutability": "nonpayable",
      "type": "function"
    },
    {
      "inputs": [
        {
          "internalType": "address",
          "name": "rewardsCalculator_",
          "type": "address"
        }
      ],
      "name": "updateRewardsCalculator",
      "outputs": [],
      "stateMutability": "nonpayable",
      "type": "function"
    },
    {
      "inputs": [
        {
          "internalType": "uint256",
          "name": "lockPeriod",
          "type": "uint256"
        }
      ],
      "name": "updateSilverLockPeriod",
      "outputs": [],
      "stateMutability": "nonpayable",
      "type": "function"
    },
    {
      "inputs": [
        {
          "internalType": "address",
          "name": "newImplementation",
          "type": "address"
        }
      ],
      "name": "upgradeTo",
      "outputs": [],
      "stateMutability": "nonpayable",
      "type": "function"
    },
    {
      "inputs": [
        {
          "internalType": "address",
          "name": "newImplementation",
          "type": "address"
        },
        {
          "internalType": "bytes",
          "name": "data",
          "type": "bytes"
        }
      ],
      "name": "upgradeToAndCall",
      "outputs": [],
      "stateMutability": "payable",
      "type": "function"
    },
    {
      "inputs": [
        {
          "internalType": "uint8",
          "name": "stakeIndex",
          "type": "uint8"
        }
      ],
      "name": "withdrawDiamond",
      "outputs": [],
      "stateMutability": "nonpayable",
      "type": "function"
    },
    {
      "inputs": [
        {
          "internalType": "uint8",
          "name": "stakeIndex",
          "type": "uint8"
        }
      ],
      "name": "withdrawGold",
      "outputs": [],
      "stateMutability": "nonpayable",
      "type": "function"
    },
    {
      "inputs": [
        {
          "internalType": "uint8",
          "name": "stakeIndex",
          "type": "uint8"
        }
      ],
      "name": "withdrawSilver",
      "outputs": [],
      "stateMutability": "nonpayable",
      "type": "function"
    }
  ],
  "bytecode": "0x60a0604052306080523480156200001557600080fd5b50600054610100900460ff16620000335760005460ff16156200003d565b6200003d620000e2565b620000a55760405162461bcd60e51b815260206004820152602e60248201527f496e697469616c697a61626c653a20636f6e747261637420697320616c72656160448201526d191e481a5b9a5d1a585b1a5e995960921b606482015260840160405180910390fd5b600054610100900460ff16158015620000c8576000805461ffff19166101011790555b8015620000db576000805461ff00191690555b5062000106565b6000620000fa306200010060201b620010601760201c565b15905090565b3b151590565b6080516129696200013760003960008181610579015281816105b90152818161097901526109b901526129696000f3fe6080604052600436106101b75760003560e01c80636d878d10116100ec578063a89989dd1161008a578063d968a5c611610064578063d968a5c614610489578063ea320004146104a9578063f2fde38b146104c9578063fc0c546a146104e957600080fd5b8063a89989dd14610427578063b09d4b4e1461043c578063ceef54311461046957600080fd5b80638da5cb5b116100c65780638da5cb5b146103bf57806392d06c2e146103dd5780639661cb0d146103f2578063a35f4adf1461040757600080fd5b80636d878d101461036c578063715018a61461038a57806371b0be551461039f57600080fd5b80634f1ef286116101595780635adc7db8116101335780635adc7db8146102df5780635d9132de146102ff57806365e99df21461031f5780636cb858eb1461035757600080fd5b80634f1ef286146102975780634fa3cb91146102aa578063567e98f9146102ca57600080fd5b80633659cfe6116101955780633659cfe614610222578063460703f414610242578063485cc955146102625780634e37e72c1461028257600080fd5b80631aaf6641146101bc5780631b80bf4b146101de5780632fc99b4d146101fe575b600080fd5b3480156101c857600080fd5b506101dc6101d73660046122ba565b610507565b005b3480156101ea57600080fd5b506101dc6101f93660046122ba565b61053f565b34801561020a57600080fd5b5060cf545b6040519081526020015b60405180910390f35b34801561022e57600080fd5b506101dc61023d3660046122ef565b61056e565b34801561024e57600080fd5b506101dc61025d3660046122ba565b610637565b34801561026e57600080fd5b506101dc61027d36600461230a565b61074e565b34801561028e57600080fd5b5061020f6108e3565b6101dc6102a5366004612353565b61096e565b3480156102b657600080fd5b506101dc6102c5366004612424565b610a28565b3480156102d657600080fd5b5061020f610a87565b3480156102eb57600080fd5b506101dc6102fa3660046122ba565b610b0d565b34801561030b57600080fd5b506101dc61031a366004612424565b610b3c565b34801561032b57600080fd5b5061033f61033a3660046122ba565b610b72565b6040516001600160a01b039091168152602001610219565b34801561036357600080fd5b5060ce5461020f565b34801561037857600080fd5b5060ca546001600160a01b031661033f565b34801561039657600080fd5b506101dc610ba7565b3480156103ab57600080fd5b506101dc6103ba3660046122ef565b610bdd565b3480156103cb57600080fd5b506033546001600160a01b031661033f565b3480156103e957600080fd5b5060d05461020f565b3480156103fe57600080fd5b5061020f610c29565b34801561041357600080fd5b506101dc610422366004612424565b610caf565b34801561043357600080fd5b5061020f610ce8565b34801561044857600080fd5b5061045c6104573660046122ef565b610e8b565b6040516102199190612441565b34801561047557600080fd5b506101dc610484366004612424565b610ea2565b34801561049557600080fd5b506101dc6104a4366004612424565b610f03565b3480156104b557600080fd5b506101dc6104c4366004612424565b610f5f565b3480156104d557600080fd5b506101dc6104e43660046122ef565b610fc8565b3480156104f557600080fd5b5060c9546001600160a01b031661033f565b6033546001600160a01b0316331461053a5760405162461bcd60e51b8152600401610531906124a8565b60405180910390fd5b60ce55565b6033546001600160a01b031633146105695760405162461bcd60e51b8152600401610531906124a8565b60d055565b306001600160a01b037f00000000000000000000000000000000000000000000000000000000000000001614156105b75760405162461bcd60e51b8152600401610531906124dd565b7f00000000000000000000000000000000000000000000000000000000000000006001600160a01b03166105e9611066565b6001600160a01b03161461060f5760405162461bcd60e51b815260040161053190612529565b61061881611094565b60408051600080825260208201909252610634918391906110be565b50565b6033546001600160a01b031633146106615760405162461bcd60e51b8152600401610531906124a8565b600081116106bc5760405162461bcd60e51b815260206004820152602260248201527f5374616b696e673a2053686f756c64206e6f74207374616b6520666f72206672604482015261656560f01b6064820152608401610531565b60c960009054906101000a90046001600160a01b03166001600160a01b031663313ce5676040518163ffffffff1660e01b8152600401602060405180830381865afa15801561070f573d6000803e3d6000fd5b505050506040513d601f19601f820116820180604052508101906107339190612575565b61073e90600a61268c565b610748908261269b565b60cb5550565b600054610100900460ff166107695760005460ff161561076d565b303b155b6107d05760405162461bcd60e51b815260206004820152602e60248201527f496e697469616c697a61626c653a20636f6e747261637420697320616c72656160448201526d191e481a5b9a5d1a585b1a5e995960921b6064820152608401610531565b600054610100900460ff161580156107f2576000805461ffff19166101011790555b6107fa611209565b610802611240565b60c980546001600160a01b038086166001600160a01b0319928316811790935560ca8054918616919092161790556040805163313ce56760e01b8152905163313ce567916004808201926020929091908290030181865afa15801561086b573d6000803e3d6000fd5b505050506040513d601f19601f8201168201806040525081019061088f9190612575565b61089a90600a61268c565b6108a7906298968061269b565b60cb556276a70060ce5562ed4e0060cf55630163f50060d05560d18054600101815560005280156108de576000805461ff00191690555b505050565b60c9546040805163313ce56760e01b815290516000926001600160a01b03169163313ce5679160048083019260209291908290030181865afa15801561092d573d6000803e3d6000fd5b505050506040513d601f19601f820116820180604052508101906109519190612575565b61095c90600a61268c565b60cb5461096991906126ba565b905090565b306001600160a01b037f00000000000000000000000000000000000000000000000000000000000000001614156109b75760405162461bcd60e51b8152600401610531906124dd565b7f00000000000000000000000000000000000000000000000000000000000000006001600160a01b03166109e9611066565b6001600160a01b031614610a0f5760405162461bcd60e51b815260040161053190612529565b610a1882611094565b610a24828260016110be565b5050565b60038160ff1610610a7b5760405162461bcd60e51b815260206004820181905260248201527f5374616b696e673a2053696c76657220686173206f6e6c79203320736c6f74736044820152606401610531565b6106348160ce54611277565b60c9546040805163313ce56760e01b815290516000926001600160a01b03169163313ce5679160048083019260209291908290030181865afa158015610ad1573d6000803e3d6000fd5b505050506040513d601f19601f82011682018060405250810190610af59190612575565b610b0090600a61268c565b60cc5461096991906126ba565b6033546001600160a01b03163314610b375760405162461bcd60e51b8152600401610531906124a8565b60cf55565b60038160ff1610610b5f5760405162461bcd60e51b8152600401610531906126dc565b610634610b6d82600661271d565b6114ed565b600060d18281548110610b8757610b87612742565b60009182526020909120602590910201546001600160a01b031692915050565b6033546001600160a01b03163314610bd15760405162461bcd60e51b8152600401610531906124a8565b610bdb6000611761565b565b6033546001600160a01b03163314610c075760405162461bcd60e51b8152600401610531906124a8565b60ca80546001600160a01b0319166001600160a01b0392909216919091179055565b60c9546040805163313ce56760e01b815290516000926001600160a01b03169163313ce5679160048083019260209291908290030181865afa158015610c73573d6000803e3d6000fd5b505050506040513d601f19601f82011682018060405250810190610c979190612575565b610ca290600a61268c565b60cd5461096991906126ba565b60038160ff1610610cd25760405162461bcd60e51b8152600401610531906126dc565b610634610ce082600661271d565b60d054611277565b60008060015b60d15460ff82161015610df857600060d18260ff1681548110610d1357610d13612742565b9060005260206000209060250201600101600980602002604051908101604052809291906000905b82821015610d93576040805160808101825260048402860180546001600160a01b0316825260018082015460208085019190915260028301549484019490945260039091015460608301529083529092019101610d3b565b50505050905060005b60098160ff161015610de3576000610dcd82848460ff1660098110610dc357610dc3612742565b60200201516117b3565b9450819050610ddb81612758565b915050610d9c565b50508080610df090612758565b915050610cee565b5060c960009054906101000a90046001600160a01b03166001600160a01b031663313ce5676040518163ffffffff1660e01b8152600401602060405180830381865afa158015610e4c573d6000803e3d6000fd5b505050506040513d601f19601f82011682018060405250810190610e709190612575565b610e7b90600a61268c565b610e8590826126ba565b91505090565b610e93612241565b610e9c82611960565b92915050565b60038160ff1610610ef55760405162461bcd60e51b815260206004820152601e60248201527f5374616b696e673a20476f6c6420686173206f6e6c79203320736c6f747300006044820152606401610531565b610634610b6d82600361271d565b60038160ff1610610f565760405162461bcd60e51b815260206004820181905260248201527f5374616b696e673a2053696c76657220686173206f6e6c79203320736c6f74736044820152606401610531565b610634816114ed565b60038160ff1610610fb25760405162461bcd60e51b815260206004820152601e60248201527f5374616b696e673a20476f6c6420686173206f6e6c79203320736c6f747300006044820152606401610531565b610634610fc082600361271d565b60cf54611277565b6033546001600160a01b03163314610ff25760405162461bcd60e51b8152600401610531906124a8565b6001600160a01b0381166110575760405162461bcd60e51b815260206004820152602660248201527f4f776e61626c653a206e6577206f776e657220697320746865207a65726f206160448201526564647265737360d01b6064820152608401610531565b61063481611761565b3b151590565b7f360894a13ba1a3210667c828492db98dca3e2076cc3735a920a3ca505d382bbc546001600160a01b031690565b6033546001600160a01b031633146106345760405162461bcd60e51b8152600401610531906124a8565b60006110c8611066565b90506110d384611ac2565b6000835111806110e05750815b156110f1576110ef8484611b67565b505b7f4910fdfa16fed3260ed0e7147f7cc6da11a60208b5b9406d12a635614ffd9143805460ff1661120257805460ff191660011781556040516001600160a01b038316602482015261117090869060440160408051601f198184030181529190526020810180516001600160e01b0316631b2ce7f360e11b179052611b67565b50805460ff19168155611181611066565b6001600160a01b0316826001600160a01b0316146111f95760405162461bcd60e51b815260206004820152602f60248201527f45524331393637557067726164653a207570677261646520627265616b73206660448201526e75727468657220757067726164657360881b6064820152608401610531565b61120285611c52565b5050505050565b600054610100900460ff166112305760405162461bcd60e51b815260040161053190612778565b611238611c92565b610bdb611cb9565b600054610100900460ff166112675760405162461bcd60e51b815260040161053190612778565b61126f611c92565b610bdb611c92565b60098260ff161061129a5760405162461bcd60e51b8152600401610531906127c3565b33600090815260d2602052604081205460d1805490919081106112bf576112bf612742565b90600052602060002090602502016001018360ff16600981106112e4576112e4612742565b604080516080810182526004929092029290920180546001600160a01b03168252600181015460208301819052600282015493830193909352600301546060820152915061136d5760405162461bcd60e51b81526020600482015260166024820152755374616b696e673a20536c6f7420697320656d70747960501b6044820152606401610531565b600061137e84836020015185611ce9565b60c9546040516370a0823160e01b81523060048201529192506001600160a01b0316906370a0823190602401602060405180830381865afa1580156113c7573d6000803e3d6000fd5b505050506040513d601f19601f820116820180604052508101906113eb919061280d565b8111156114565760405162461bcd60e51b815260206004820152603360248201527f5374616b696e673a205374616b696e6720636f6e747261637420646f6573206e60448201527237ba1037bbb71032b737bab3b4103a37b5b2b760691b6064820152608401610531565b60c95460405163a9059cbb60e01b8152336004820152602481018390526001600160a01b039091169063a9059cbb906044016020604051808303816000875af11580156114a7573d6000803e3d6000fd5b505050506040513d601f19601f820116820180604052508101906114cb9190612826565b50816020015160cc60008282546114e29190612848565b909155505050505050565b60098160ff16106115105760405162461bcd60e51b8152600401610531906127c3565b33600090815260d2602052604081205460d18054909190811061153557611535612742565b90600052602060002090602502016001018260ff166009811061155a5761155a612742565b604080516080810182526004929092029290920180546001600160a01b031682526001810154602083018190526002820154938301939093526003015460608201529150156115eb5760405162461bcd60e51b815260206004820152601d60248201527f5374616b696e673a20536c6f7420697320616c726561647920757365640000006044820152606401610531565b60c9546040516370a0823160e01b81523360048201526001600160a01b03909116906370a0823190602401602060405180830381865afa158015611633573d6000803e3d6000fd5b505050506040513d601f19601f82011682018060405250810190611657919061280d565b60cb5411156116b85760405162461bcd60e51b815260206004820152602760248201527f5374616b696e673a2043616e6e6f74207374616b65206d6f7265207468616e206044820152663cb7ba9037bbb760c91b6064820152608401610531565b6116c48260cb5461202e565b60c95460cb546040516323b872dd60e01b815233600482015230602482015260448101919091526001600160a01b03909116906323b872dd906064016020604051808303816000875af115801561171f573d6000803e3d6000fd5b505050506040513d601f19601f820116820180604052508101906117439190612826565b5060cb5460cc6000828254611758919061285f565b90915550505050565b603380546001600160a01b038381166001600160a01b0319831681179093556040519116919082907f8be0079c531659141344cd1fd0a4f28419497f9722a3daafe3b4186f6b6457e090600090a35050565b6000806117bf8461213c565b9050600060028260028111156117d7576117d7612877565b141561186b5760ca5484516020860151604080880151905163e6fbdce160e01b81526001600160a01b0393841660048201526024810192909252604482015291169063e6fbdce1906064015b602060405180830381865afa158015611840573d6000803e3d6000fd5b505050506040513d601f19601f82011682018060405250810190611864919061280d565b9050611958565b600182600281111561187f5761187f612877565b14156118cf5760ca5484516020860151604080880151905163daebe22560e01b81526001600160a01b0393841660048201526024810192909252604482015291169063daebe22590606401611823565b60ca5484516020860151604080880151905163269ed78960e21b81526001600160a01b03938416600482015260248101929092526044820152911690639a7b5e2490606401602060405180830381865afa158015611931573d6000803e3d6000fd5b505050506040513d601f19601f82011682018060405250810190611955919061280d565b90505b949350505050565b611968612241565b6001600160a01b038216600090815260d2602052604081205460d180548391908390811061199857611998612742565b9060005260206000209060250201600101600980602002604051908101604052809291906000905b82821015611a18576040805160808101825260048402860180546001600160a01b03168252600180820154602080850191909152600283015494840194909452600390910154606083015290835290920191016119c0565b50505050905060005b60098160ff161015611aa8576000611a4882848460ff1660098110610dc357610dc3612742565b905080838360ff1660098110611a6057611a60612742565b6020020151606001528260ff831660098110611a7e57611a7e612742565b60200201516020015185611a92919061285f565b9450508080611aa090612758565b915050611a21565b506040805180820190915292835260208301525092915050565b803b611b265760405162461bcd60e51b815260206004820152602d60248201527f455243313936373a206e657720696d706c656d656e746174696f6e206973206e60448201526c1bdd08184818dbdb9d1c9858dd609a1b6064820152608401610531565b7f360894a13ba1a3210667c828492db98dca3e2076cc3735a920a3ca505d382bbc80546001600160a01b0319166001600160a01b0392909216919091179055565b6060823b611bc65760405162461bcd60e51b815260206004820152602660248201527f416464726573733a2064656c65676174652063616c6c20746f206e6f6e2d636f6044820152651b9d1c9858dd60d21b6064820152608401610531565b600080846001600160a01b031684604051611be191906128bd565b600060405180830381855af49150503d8060008114611c1c576040519150601f19603f3d011682016040523d82523d6000602084013e611c21565b606091505b5091509150611c49828260405180606001604052806027815260200161290d60279139612192565b95945050505050565b611c5b81611ac2565b6040516001600160a01b038216907fbc7cd75a20ee27fd9adebab32041f755214dbc6bffa90cc0225b39da2e5c2d3b90600090a250565b600054610100900460ff16610bdb5760405162461bcd60e51b815260040161053190612778565b600054610100900460ff16611ce05760405162461bcd60e51b815260040161053190612778565b610bdb33611761565b33600090815260d2602052604081205460d1805483919083908110611d1057611d10612742565b90600052602060002090602502016001018660ff1660098110611d3557611d35612742565b604080516080810182526004929092029290920180546001600160a01b031682526001810154602083018190526002820154938301939093526003015460608201529150851115611de35760405162461bcd60e51b815260206004820152603260248201527f5374616b696e673a2043616e6e6f74207769746864726177206d6f7265207468604482015271185b881e5bdd481a185d99481cdd185ad95960721b6064820152608401610531565b6000848260400151611df5919061285f565b421015611e03576000611e0d565b611e0d87836117b3565b90508582602001818151611e219190612848565b905250602082015115611ebf57816020015160d18481548110611e4657611e46612742565b90600052602060002090602502016001018860ff1660098110611e6b57611e6b612742565b60040201600101819055504260d18481548110611e8a57611e8a612742565b90600052602060002090602502016001018860ff1660098110611eaf57611eaf612742565b6004020160020181905550611fd5565b60d18381548110611ed257611ed2612742565b90600052602060002090602502016001018760ff1660098110611ef757611ef7612742565b600402016003015460cd81905550600060d18481548110611f1a57611f1a612742565b90600052602060002090602502016001018860ff1660098110611f3f57611f3f612742565b6004020160010181905550600060d18481548110611f5f57611f5f612742565b90600052602060002090602502016001018860ff1660098110611f8457611f84612742565b6004020160020181905550600060d18481548110611fa457611fa4612742565b90600052602060002090602502016001018860ff1660098110611fc957611fc9612742565b60040201600301819055505b60408051848152602081018890524281830152905133917f75e161b3e824b114fc1a33274bd7091918dd4e639cede50b78b15a4eea956a21919081900360600190a2612021818761285f565b93505050505b9392505050565b33600090815260d260205260409020548061204f5761204c336121cb565b90505b6040805160808101825233815260208101849052429181018290526000606082015260d180548490811061208557612085612742565b90600052602060002090602502016001018560ff16600981106120aa576120aa612742565b82516004919091029190910180546001600160a01b0319166001600160a01b0390921691909117815560208083015160018301556040808401516002840155606093840151600390930192909255815185815290810186905290810183905233917fb4caaf29adda3eefee3ad552a8e85058589bf834c7466cae4ee58787f70589ed910160405180910390a250505050565b60008060068360ff1610158015612157575060088360ff1611155b1561216457506002610e9c565b60038360ff161015801561217c575060058360ff1611155b1561218957506001610e9c565b50600092915050565b606083156121a1575081612027565b8251156121b15782518084602001fd5b8160405162461bcd60e51b815260040161053191906128d9565b60d180546001908101808355600092835282916121e791612848565b90508260d182815481106121fd576121fd612742565b6000918252602080832060259290920290910180546001600160a01b0319166001600160a01b0394851617905594909116815260d290935260409092208290555090565b60405180604001604052806000815260200161225b612260565b905290565b6040518061012001604052806009905b6122a4604051806080016040528060006001600160a01b031681526020016000815260200160008152602001600081525090565b8152602001906001900390816122705790505090565b6000602082840312156122cc57600080fd5b5035919050565b80356001600160a01b03811681146122ea57600080fd5b919050565b60006020828403121561230157600080fd5b612027826122d3565b6000806040838503121561231d57600080fd5b612326836122d3565b9150612334602084016122d3565b90509250929050565b634e487b7160e01b600052604160045260246000fd5b6000806040838503121561236657600080fd5b61236f836122d3565b9150602083013567ffffffffffffffff8082111561238c57600080fd5b818501915085601f8301126123a057600080fd5b8135818111156123b2576123b261233d565b604051601f8201601f19908116603f011681019083821181831017156123da576123da61233d565b816040528281528860208487010111156123f357600080fd5b8260208601602083013760006020848301015280955050505050509250929050565b60ff8116811461063457600080fd5b60006020828403121561243657600080fd5b813561202781612415565b815181526020808301516104a08301919081840160005b600981101561249e57825180516001600160a01b031683528481015185840152604080820151908401526060908101519083015291830191608090910190600101612458565b5050505092915050565b6020808252818101527f4f776e61626c653a2063616c6c6572206973206e6f7420746865206f776e6572604082015260600190565b6020808252602c908201527f46756e6374696f6e206d7573742062652063616c6c6564207468726f7567682060408201526b19195b1959d85d1958d85b1b60a21b606082015260800190565b6020808252602c908201527f46756e6374696f6e206d7573742062652063616c6c6564207468726f7567682060408201526b6163746976652070726f787960a01b606082015260800190565b60006020828403121561258757600080fd5b815161202781612415565b634e487b7160e01b600052601160045260246000fd5b600181815b808511156125e35781600019048211156125c9576125c9612592565b808516156125d657918102915b93841c93908002906125ad565b509250929050565b6000826125fa57506001610e9c565b8161260757506000610e9c565b816001811461261d576002811461262757612643565b6001915050610e9c565b60ff84111561263857612638612592565b50506001821b610e9c565b5060208310610133831016604e8410600b8410161715612666575081810a610e9c565b61267083836125a8565b806000190482111561268457612684612592565b029392505050565b600061202760ff8416836125eb565b60008160001904831182151516156126b5576126b5612592565b500290565b6000826126d757634e487b7160e01b600052601260045260246000fd5b500490565b60208082526021908201527f5374616b696e673a204469616d6f6e6420686173206f6e6c79203320736c6f746040820152607360f81b606082015260800190565b600060ff821660ff84168060ff0382111561273a5761273a612592565b019392505050565b634e487b7160e01b600052603260045260246000fd5b600060ff821660ff81141561276f5761276f612592565b60010192915050565b6020808252602b908201527f496e697469616c697a61626c653a20636f6e7472616374206973206e6f74206960408201526a6e697469616c697a696e6760a81b606082015260800190565b6020808252602a908201527f5374616b696e673a205468657265206973206f6e6c79203920736c6f7473202860408201526933206f6620656163682960b01b606082015260800190565b60006020828403121561281f57600080fd5b5051919050565b60006020828403121561283857600080fd5b8151801515811461202757600080fd5b60008282101561285a5761285a612592565b500390565b6000821982111561287257612872612592565b500190565b634e487b7160e01b600052602160045260246000fd5b60005b838110156128a8578181015183820152602001612890565b838111156128b7576000848401525b50505050565b600082516128cf81846020870161288d565b9190910192915050565b60208152600082518060208401526128f881604085016020870161288d565b601f01601f1916919091016040019291505056fe416464726573733a206c6f772d6c6576656c2064656c65676174652063616c6c206661696c6564a2646970667358221220155e8fd33df5fbfefd14ea543b9073c131267d8321a0f7aeb7a5f4d67d791f1264736f6c634300080b0033",
  "linkReferences": {},
  "deployedLinkReferences": {}
}