{
  "_format": "hh-sol-artifact-1",
  "contractName": "RetroNekoV13",
  "sourceName": "contracts/tokens/RetroNekoV13.sol",
  "abi": [
    {
      "inputs": [],
      "stateMutability": "nonpayable",
      "type": "constructor"
    },
    {
      "anonymous": false,
      "inputs": [
        {
          "indexed": false,
          "internalType": "address",
          "name": "previousAdmin",
          "type": "address"
        },
        {
          "indexed": false,
          "internalType": "address",
          "name": "newAdmin",
          "type": "address"
        }
      ],
      "name": "AdminChanged",
      "type": "event"
    },
    {
      "anonymous": false,
      "inputs": [
        {
          "indexed": true,
          "internalType": "address",
          "name": "owner",
          "type": "address"
        },
        {
          "indexed": true,
          "internalType": "address",
          "name": "spender",
          "type": "address"
        },
        {
          "indexed": false,
          "internalType": "uint256",
          "name": "value",
          "type": "uint256"
        }
      ],
      "name": "Approval",
      "type": "event"
    },
    {
      "anonymous": false,
      "inputs": [
        {
          "indexed": true,
          "internalType": "address",
          "name": "pair",
          "type": "address"
        },
        {
          "indexed": true,
          "internalType": "bool",
          "name": "value",
          "type": "bool"
        }
      ],
      "name": "AutomatedMarketMakerPairSet",
      "type": "event"
    },
    {
      "anonymous": false,
      "inputs": [
        {
          "indexed": true,
          "internalType": "address",
          "name": "beacon",
          "type": "address"
        }
      ],
      "name": "BeaconUpgraded",
      "type": "event"
    },
    {
      "anonymous": false,
      "inputs": [
        {
          "indexed": false,
          "internalType": "uint256",
          "name": "previousLiquidityFeesPerTenThousand",
          "type": "uint256"
        },
        {
          "indexed": false,
          "internalType": "uint256",
          "name": "newLiquidityFeesPerTenThousand",
          "type": "uint256"
        },
        {
          "indexed": false,
          "internalType": "uint256",
          "name": "previousTeamFeesPerTenThousand",
          "type": "uint256"
        },
        {
          "indexed": false,
          "internalType": "uint256",
          "name": "newTeamFeesPerTenThousand",
          "type": "uint256"
        },
        {
          "indexed": false,
          "internalType": "uint256",
          "name": "previousMarketingFeesPerTenThousand",
          "type": "uint256"
        },
        {
          "indexed": false,
          "internalType": "uint256",
          "name": "newMarketingFeesPerTenThousand",
          "type": "uint256"
        },
        {
          "indexed": false,
          "internalType": "uint256",
          "name": "previousStakingFeesPerTenThousand",
          "type": "uint256"
        },
        {
          "indexed": false,
          "internalType": "uint256",
          "name": "newStakingFeesPerTenThousand",
          "type": "uint256"
        },
        {
          "indexed": false,
          "internalType": "uint256",
          "name": "previousWarFeesPerTenThousand",
          "type": "uint256"
        },
        {
          "indexed": false,
          "internalType": "uint256",
          "name": "newWarFeesPerTenThousand",
          "type": "uint256"
        }
      ],
      "name": "BuyFeesUpdated",
      "type": "event"
    },
    {
      "anonymous": false,
      "inputs": [
        {
          "indexed": true,
          "internalType": "address",
          "name": "account",
          "type": "address"
        },
        {
          "indexed": false,
          "internalType": "bool",
          "name": "isExcluded",
          "type": "bool"
        }
      ],
      "name": "ExcludedFromFees",
      "type": "event"
    },
    {
      "anonymous": false,
      "inputs": [
        {
          "indexed": true,
          "internalType": "address",
          "name": "account",
          "type": "address"
        },
        {
          "indexed": false,
          "internalType": "bool",
          "name": "isExcluded",
          "type": "bool"
        }
      ],
      "name": "ExcludedFromSwap",
      "type": "event"
    },
    {
      "anonymous": false,
      "inputs": [
        {
          "indexed": true,
          "internalType": "address",
          "name": "wallet",
          "type": "address"
        },
        {
          "indexed": false,
          "internalType": "uint256",
          "name": "amount",
          "type": "uint256"
        }
      ],
      "name": "FeesSentToWallet",
      "type": "event"
    },
    {
      "anonymous": false,
      "inputs": [
        {
          "indexed": true,
          "internalType": "uint256",
          "name": "oldValue",
          "type": "uint256"
        },
        {
          "indexed": true,
          "internalType": "uint256",
          "name": "newValue",
          "type": "uint256"
        }
      ],
      "name": "GasForProcessingUpdated",
      "type": "event"
    },
    {
      "anonymous": false,
      "inputs": [
        {
          "indexed": false,
          "internalType": "uint256",
          "name": "previousFeesPerTenThousand",
          "type": "uint256"
        },
        {
          "indexed": false,
          "internalType": "uint256",
          "name": "newFeesPerTenThousand",
          "type": "uint256"
        }
      ],
      "name": "LiquidityBuyFeesUpdated",
      "type": "event"
    },
    {
      "anonymous": false,
      "inputs": [
        {
          "indexed": false,
          "internalType": "uint256",
          "name": "previousFeesPerTenThousand",
          "type": "uint256"
        },
        {
          "indexed": false,
          "internalType": "uint256",
          "name": "newFeesPerTenThousand",
          "type": "uint256"
        }
      ],
      "name": "LiquiditySellFeesUpdated",
      "type": "event"
    },
    {
      "anonymous": false,
      "inputs": [
        {
          "indexed": false,
          "internalType": "uint256",
          "name": "previousFeesPerTenThousand",
          "type": "uint256"
        },
        {
          "indexed": false,
          "internalType": "uint256",
          "name": "newFeesPerTenThousand",
          "type": "uint256"
        }
      ],
      "name": "MarketingBuyFeesUpdated",
      "type": "event"
    },
    {
      "anonymous": false,
      "inputs": [
        {
          "indexed": false,
          "internalType": "uint256",
          "name": "previousFeesPerTenThousand",
          "type": "uint256"
        },
        {
          "indexed": false,
          "internalType": "uint256",
          "name": "newFeesPerTenThousand",
          "type": "uint256"
        }
      ],
      "name": "MarketingSellFeesUpdated",
      "type": "event"
    },
    {
      "anonymous": false,
      "inputs": [
        {
          "indexed": true,
          "internalType": "address",
          "name": "previousWallet",
          "type": "address"
        },
        {
          "indexed": true,
          "internalType": "address",
          "name": "newWallet",
          "type": "address"
        }
      ],
      "name": "MarketingWalletUpdated",
      "type": "event"
    },
    {
      "anonymous": false,
      "inputs": [
        {
          "indexed": true,
          "internalType": "address",
          "name": "previousOwner",
          "type": "address"
        },
        {
          "indexed": true,
          "internalType": "address",
          "name": "newOwner",
          "type": "address"
        }
      ],
      "name": "OwnershipTransferred",
      "type": "event"
    },
    {
      "anonymous": false,
      "inputs": [
        {
          "indexed": false,
          "internalType": "uint256",
          "name": "previousLiquidityFeesPerTenThousand",
          "type": "uint256"
        },
        {
          "indexed": false,
          "internalType": "uint256",
          "name": "newLiquidityFeesPerTenThousand",
          "type": "uint256"
        },
        {
          "indexed": false,
          "internalType": "uint256",
          "name": "previousTeamFeesPerTenThousand",
          "type": "uint256"
        },
        {
          "indexed": false,
          "internalType": "uint256",
          "name": "newTeamFeesPerTenThousand",
          "type": "uint256"
        },
        {
          "indexed": false,
          "internalType": "uint256",
          "name": "previousMarketingFeesPerTenThousand",
          "type": "uint256"
        },
        {
          "indexed": false,
          "internalType": "uint256",
          "name": "newMarketingFeesPerTenThousand",
          "type": "uint256"
        },
        {
          "indexed": false,
          "internalType": "uint256",
          "name": "previousStakingFeesPerTenThousand",
          "type": "uint256"
        },
        {
          "indexed": false,
          "internalType": "uint256",
          "name": "newStakingFeesPerTenThousand",
          "type": "uint256"
        },
        {
          "indexed": false,
          "internalType": "uint256",
          "name": "previousWarFeesPerTenThousand",
          "type": "uint256"
        },
        {
          "indexed": false,
          "internalType": "uint256",
          "name": "newWarFeesPerTenThousand",
          "type": "uint256"
        }
      ],
      "name": "SellFeesUpdated",
      "type": "event"
    },
    {
      "anonymous": false,
      "inputs": [
        {
          "indexed": false,
          "internalType": "uint256",
          "name": "previousFeesPerTenThousand",
          "type": "uint256"
        },
        {
          "indexed": false,
          "internalType": "uint256",
          "name": "newFeesPerTenThousand",
          "type": "uint256"
        }
      ],
      "name": "StakingBuyFeesUpdated",
      "type": "event"
    },
    {
      "anonymous": false,
      "inputs": [
        {
          "indexed": false,
          "internalType": "uint256",
          "name": "previousFeesPerTenThousand",
          "type": "uint256"
        },
        {
          "indexed": false,
          "internalType": "uint256",
          "name": "newFeesPerTenThousand",
          "type": "uint256"
        }
      ],
      "name": "StakingSellFeesUpdated",
      "type": "event"
    },
    {
      "anonymous": false,
      "inputs": [
        {
          "indexed": true,
          "internalType": "address",
          "name": "previousWallet",
          "type": "address"
        },
        {
          "indexed": true,
          "internalType": "address",
          "name": "newWallet",
          "type": "address"
        }
      ],
      "name": "StakingWalletUpdated",
      "type": "event"
    },
    {
      "anonymous": false,
      "inputs": [
        {
          "indexed": false,
          "internalType": "bool",
          "name": "isEnabled",
          "type": "bool"
        }
      ],
      "name": "SwapEnabled",
      "type": "event"
    },
    {
      "anonymous": false,
      "inputs": [
        {
          "indexed": false,
          "internalType": "uint256",
          "name": "tokensSwapped",
          "type": "uint256"
        },
        {
          "indexed": false,
          "internalType": "uint256",
          "name": "ethReceived",
          "type": "uint256"
        },
        {
          "indexed": false,
          "internalType": "uint256",
          "name": "tokensIntoLiqudity",
          "type": "uint256"
        }
      ],
      "name": "SwappedAndLiquified",
      "type": "event"
    },
    {
      "anonymous": false,
      "inputs": [
        {
          "indexed": false,
          "internalType": "bool",
          "name": "isEnabled",
          "type": "bool"
        }
      ],
      "name": "TakeFeesEnabled",
      "type": "event"
    },
    {
      "anonymous": false,
      "inputs": [
        {
          "indexed": false,
          "internalType": "uint256",
          "name": "previousFeesPerTenThousand",
          "type": "uint256"
        },
        {
          "indexed": false,
          "internalType": "uint256",
          "name": "newFeesPerTenThousand",
          "type": "uint256"
        }
      ],
      "name": "TeamBuyFeesUpdated",
      "type": "event"
    },
    {
      "anonymous": false,
      "inputs": [
        {
          "indexed": false,
          "internalType": "uint256",
          "name": "previousFeesPerTenThousand",
          "type": "uint256"
        },
        {
          "indexed": false,
          "internalType": "uint256",
          "name": "newFeesPerTenThousand",
          "type": "uint256"
        }
      ],
      "name": "TeamSellFeesUpdated",
      "type": "event"
    },
    {
      "anonymous": false,
      "inputs": [
        {
          "indexed": true,
          "internalType": "address",
          "name": "previousWallet",
          "type": "address"
        },
        {
          "indexed": true,
          "internalType": "address",
          "name": "newWallet",
          "type": "address"
        }
      ],
      "name": "TeamWalletUpdated",
      "type": "event"
    },
    {
      "anonymous": false,
      "inputs": [
        {
          "indexed": false,
          "internalType": "bool",
          "name": "isEnabled",
          "type": "bool"
        }
      ],
      "name": "TradingEnabled",
      "type": "event"
    },
    {
      "anonymous": false,
      "inputs": [
        {
          "indexed": true,
          "internalType": "address",
          "name": "from",
          "type": "address"
        },
        {
          "indexed": true,
          "internalType": "address",
          "name": "to",
          "type": "address"
        },
        {
          "indexed": false,
          "internalType": "uint256",
          "name": "value",
          "type": "uint256"
        }
      ],
      "name": "Transfer",
      "type": "event"
    },
    {
      "anonymous": false,
      "inputs": [
        {
          "indexed": true,
          "internalType": "address",
          "name": "previousAddress",
          "type": "address"
        },
        {
          "indexed": true,
          "internalType": "address",
          "name": "newAddress",
          "type": "address"
        }
      ],
      "name": "UniswapV2RouterUpdated",
      "type": "event"
    },
    {
      "anonymous": false,
      "inputs": [
        {
          "indexed": true,
          "internalType": "address",
          "name": "implementation",
          "type": "address"
        }
      ],
      "name": "Upgraded",
      "type": "event"
    },
    {
      "anonymous": false,
      "inputs": [
        {
          "indexed": false,
          "internalType": "uint256",
          "name": "previousFeesPerTenThousand",
          "type": "uint256"
        },
        {
          "indexed": false,
          "internalType": "uint256",
          "name": "newFeesPerTenThousand",
          "type": "uint256"
        }
      ],
      "name": "WarBuyFeesUpdated",
      "type": "event"
    },
    {
      "anonymous": false,
      "inputs": [
        {
          "indexed": false,
          "internalType": "uint256",
          "name": "previousFeesPerTenThousand",
          "type": "uint256"
        },
        {
          "indexed": false,
          "internalType": "uint256",
          "name": "newFeesPerTenThousand",
          "type": "uint256"
        }
      ],
      "name": "WarSellFeesUpdated",
      "type": "event"
    },
    {
      "anonymous": false,
      "inputs": [
        {
          "indexed": true,
          "internalType": "address",
          "name": "previousWallet",
          "type": "address"
        },
        {
          "indexed": true,
          "internalType": "address",
          "name": "newWallet",
          "type": "address"
        }
      ],
      "name": "WarWalletUpdated",
      "type": "event"
    },
    {
      "inputs": [
        {
          "internalType": "address",
          "name": "owner",
          "type": "address"
        },
        {
          "internalType": "address",
          "name": "spender",
          "type": "address"
        }
      ],
      "name": "allowance",
      "outputs": [
        {
          "internalType": "uint256",
          "name": "",
          "type": "uint256"
        }
      ],
      "stateMutability": "view",
      "type": "function"
    },
    {
      "inputs": [
        {
          "internalType": "address",
          "name": "spender",
          "type": "address"
        },
        {
          "internalType": "uint256",
          "name": "amount",
          "type": "uint256"
        }
      ],
      "name": "approve",
      "outputs": [
        {
          "internalType": "bool",
          "name": "",
          "type": "bool"
        }
      ],
      "stateMutability": "nonpayable",
      "type": "function"
    },
    {
      "inputs": [
        {
          "internalType": "address",
          "name": "account",
          "type": "address"
        }
      ],
      "name": "balanceOf",
      "outputs": [
        {
          "internalType": "uint256",
          "name": "",
          "type": "uint256"
        }
      ],
      "stateMutability": "view",
      "type": "function"
    },
    {
      "inputs": [
        {
          "internalType": "address",
          "name": "account",
          "type": "address"
        },
        {
          "internalType": "bool",
          "name": "value",
          "type": "bool"
        }
      ],
      "name": "blacklistAddress",
      "outputs": [],
      "stateMutability": "nonpayable",
      "type": "function"
    },
    {
      "inputs": [],
      "name": "buyFees",
      "outputs": [
        {
          "internalType": "uint256",
          "name": "liquidityFeesPerTenThousand",
          "type": "uint256"
        },
        {
          "internalType": "uint256",
          "name": "teamFeesPerTenThousand",
          "type": "uint256"
        },
        {
          "internalType": "uint256",
          "name": "marketingFeesPerTenThousand",
          "type": "uint256"
        },
        {
          "internalType": "uint256",
          "name": "stakingFeesPerTenThousand",
          "type": "uint256"
        },
        {
          "internalType": "uint256",
          "name": "warFeesPerTenThousand",
          "type": "uint256"
        },
        {
          "internalType": "uint256",
          "name": "totalFeesPerTenThousand",
          "type": "uint256"
        }
      ],
      "stateMutability": "view",
      "type": "function"
    },
    {
      "inputs": [],
      "name": "decimals",
      "outputs": [
        {
          "internalType": "uint8",
          "name": "",
          "type": "uint8"
        }
      ],
      "stateMutability": "view",
      "type": "function"
    },
    {
      "inputs": [
        {
          "internalType": "address",
          "name": "spender",
          "type": "address"
        },
        {
          "internalType": "uint256",
          "name": "subtractedValue",
          "type": "uint256"
        }
      ],
      "name": "decreaseAllowance",
      "outputs": [
        {
          "internalType": "bool",
          "name": "",
          "type": "bool"
        }
      ],
      "stateMutability": "nonpayable",
      "type": "function"
    },
    {
      "inputs": [
        {
          "internalType": "bool",
          "name": "isEnabled",
          "type": "bool"
        }
      ],
      "name": "enableSwap",
      "outputs": [],
      "stateMutability": "nonpayable",
      "type": "function"
    },
    {
      "inputs": [
        {
          "internalType": "bool",
          "name": "isEnabled",
          "type": "bool"
        }
      ],
      "name": "enableTakeFees",
      "outputs": [],
      "stateMutability": "nonpayable",
      "type": "function"
    },
    {
      "inputs": [
        {
          "internalType": "bool",
          "name": "isEnabled",
          "type": "bool"
        }
      ],
      "name": "enableTrading",
      "outputs": [],
      "stateMutability": "nonpayable",
      "type": "function"
    },
    {
      "inputs": [
        {
          "internalType": "address",
          "name": "account",
          "type": "address"
        },
        {
          "internalType": "bool",
          "name": "excluded",
          "type": "bool"
        }
      ],
      "name": "excludeFromFees",
      "outputs": [],
      "stateMutability": "nonpayable",
      "type": "function"
    },
    {
      "inputs": [
        {
          "internalType": "address",
          "name": "account",
          "type": "address"
        },
        {
          "internalType": "bool",
          "name": "excluded",
          "type": "bool"
        }
      ],
      "name": "excludeFromSwap",
      "outputs": [],
      "stateMutability": "nonpayable",
      "type": "function"
    },
    {
      "inputs": [],
      "name": "gasForProcessing",
      "outputs": [
        {
          "internalType": "uint256",
          "name": "",
          "type": "uint256"
        }
      ],
      "stateMutability": "view",
      "type": "function"
    },
    {
      "inputs": [
        {
          "internalType": "address",
          "name": "spender",
          "type": "address"
        },
        {
          "internalType": "uint256",
          "name": "addedValue",
          "type": "uint256"
        }
      ],
      "name": "increaseAllowance",
      "outputs": [
        {
          "internalType": "bool",
          "name": "",
          "type": "bool"
        }
      ],
      "stateMutability": "nonpayable",
      "type": "function"
    },
    {
      "inputs": [
        {
          "internalType": "address",
          "name": "newRouter",
          "type": "address"
        },
        {
          "internalType": "address",
          "name": "newTeamWallet",
          "type": "address"
        },
        {
          "internalType": "address",
          "name": "newMarketingWallet",
          "type": "address"
        },
        {
          "internalType": "address",
          "name": "newStakingWallet",
          "type": "address"
        },
        {
          "internalType": "address",
          "name": "newWarWallet",
          "type": "address"
        }
      ],
      "name": "initialize",
      "outputs": [],
      "stateMutability": "nonpayable",
      "type": "function"
    },
    {
      "inputs": [
        {
          "internalType": "address",
          "name": "account",
          "type": "address"
        }
      ],
      "name": "isAutomatedMarketMakerPair",
      "outputs": [
        {
          "internalType": "bool",
          "name": "",
          "type": "bool"
        }
      ],
      "stateMutability": "view",
      "type": "function"
    },
    {
      "inputs": [
        {
          "internalType": "address",
          "name": "account",
          "type": "address"
        }
      ],
      "name": "isBlacklisted",
      "outputs": [
        {
          "internalType": "bool",
          "name": "",
          "type": "bool"
        }
      ],
      "stateMutability": "view",
      "type": "function"
    },
    {
      "inputs": [
        {
          "internalType": "address",
          "name": "account",
          "type": "address"
        }
      ],
      "name": "isExcludedFromFees",
      "outputs": [
        {
          "internalType": "bool",
          "name": "",
          "type": "bool"
        }
      ],
      "stateMutability": "view",
      "type": "function"
    },
    {
      "inputs": [
        {
          "internalType": "address",
          "name": "account",
          "type": "address"
        }
      ],
      "name": "isExcludedFromSwap",
      "outputs": [
        {
          "internalType": "bool",
          "name": "",
          "type": "bool"
        }
      ],
      "stateMutability": "view",
      "type": "function"
    },
    {
      "inputs": [],
      "name": "isSwapEnabled",
      "outputs": [
        {
          "internalType": "bool",
          "name": "",
          "type": "bool"
        }
      ],
      "stateMutability": "view",
      "type": "function"
    },
    {
      "inputs": [],
      "name": "isTakeFeesEnabled",
      "outputs": [
        {
          "internalType": "bool",
          "name": "",
          "type": "bool"
        }
      ],
      "stateMutability": "view",
      "type": "function"
    },
    {
      "inputs": [],
      "name": "isTradingEnabled",
      "outputs": [
        {
          "internalType": "bool",
          "name": "",
          "type": "bool"
        }
      ],
      "stateMutability": "view",
      "type": "function"
    },
    {
      "inputs": [
        {
          "internalType": "uint256",
          "name": "amount",
          "type": "uint256"
        },
        {
          "internalType": "uint256",
          "name": "liquidityFeesPerTenThousand",
          "type": "uint256"
        },
        {
          "internalType": "uint256",
          "name": "teamFeesPerTenThousand",
          "type": "uint256"
        },
        {
          "internalType": "uint256",
          "name": "marketingFeesPerTenThousand",
          "type": "uint256"
        },
        {
          "internalType": "uint256",
          "name": "stakingFeesPerTenThousand",
          "type": "uint256"
        },
        {
          "internalType": "uint256",
          "name": "warFeesPerTenThousand",
          "type": "uint256"
        }
      ],
      "name": "manualSwapSendFeesAndLiquify",
      "outputs": [],
      "stateMutability": "nonpayable",
      "type": "function"
    },
    {
      "inputs": [],
      "name": "marketingWallet",
      "outputs": [
        {
          "internalType": "address",
          "name": "",
          "type": "address"
        }
      ],
      "stateMutability": "view",
      "type": "function"
    },
    {
      "inputs": [],
      "name": "name",
      "outputs": [
        {
          "internalType": "string",
          "name": "",
          "type": "string"
        }
      ],
      "stateMutability": "view",
      "type": "function"
    },
    {
      "inputs": [],
      "name": "owner",
      "outputs": [
        {
          "internalType": "address",
          "name": "",
          "type": "address"
        }
      ],
      "stateMutability": "view",
      "type": "function"
    },
    {
      "inputs": [],
      "name": "renounceOwnership",
      "outputs": [],
      "stateMutability": "nonpayable",
      "type": "function"
    },
    {
      "inputs": [],
      "name": "router",
      "outputs": [
        {
          "internalType": "address",
          "name": "",
          "type": "address"
        }
      ],
      "stateMutability": "view",
      "type": "function"
    },
    {
      "inputs": [],
      "name": "sellFees",
      "outputs": [
        {
          "internalType": "uint256",
          "name": "liquidityFeesPerTenThousand",
          "type": "uint256"
        },
        {
          "internalType": "uint256",
          "name": "teamFeesPerTenThousand",
          "type": "uint256"
        },
        {
          "internalType": "uint256",
          "name": "marketingFeesPerTenThousand",
          "type": "uint256"
        },
        {
          "internalType": "uint256",
          "name": "stakingFeesPerTenThousand",
          "type": "uint256"
        },
        {
          "internalType": "uint256",
          "name": "warFeesPerTenThousand",
          "type": "uint256"
        },
        {
          "internalType": "uint256",
          "name": "totalFeesPerTenThousand",
          "type": "uint256"
        }
      ],
      "stateMutability": "view",
      "type": "function"
    },
    {
      "inputs": [
        {
          "internalType": "address",
          "name": "newPair",
          "type": "address"
        },
        {
          "internalType": "bool",
          "name": "value",
          "type": "bool"
        }
      ],
      "name": "setAutomatedMarketMakerPair",
      "outputs": [],
      "stateMutability": "nonpayable",
      "type": "function"
    },
    {
      "inputs": [],
      "name": "stakingWallet",
      "outputs": [
        {
          "internalType": "address",
          "name": "",
          "type": "address"
        }
      ],
      "stateMutability": "view",
      "type": "function"
    },
    {
      "inputs": [],
      "name": "swapThreshold",
      "outputs": [
        {
          "internalType": "uint256",
          "name": "",
          "type": "uint256"
        }
      ],
      "stateMutability": "view",
      "type": "function"
    },
    {
      "inputs": [],
      "name": "symbol",
      "outputs": [
        {
          "internalType": "string",
          "name": "",
          "type": "string"
        }
      ],
      "stateMutability": "view",
      "type": "function"
    },
    {
      "inputs": [],
      "name": "teamWallet",
      "outputs": [
        {
          "internalType": "address",
          "name": "",
          "type": "address"
        }
      ],
      "stateMutability": "view",
      "type": "function"
    },
    {
      "inputs": [],
      "name": "totalSupply",
      "outputs": [
        {
          "internalType": "uint256",
          "name": "",
          "type": "uint256"
        }
      ],
      "stateMutability": "view",
      "type": "function"
    },
    {
      "inputs": [
        {
          "internalType": "address",
          "name": "recipient",
          "type": "address"
        },
        {
          "internalType": "uint256",
          "name": "amount",
          "type": "uint256"
        }
      ],
      "name": "transfer",
      "outputs": [
        {
          "internalType": "bool",
          "name": "",
          "type": "bool"
        }
      ],
      "stateMutability": "nonpayable",
      "type": "function"
    },
    {
      "inputs": [
        {
          "internalType": "address",
          "name": "sender",
          "type": "address"
        },
        {
          "internalType": "address",
          "name": "recipient",
          "type": "address"
        },
        {
          "internalType": "uint256",
          "name": "amount",
          "type": "uint256"
        }
      ],
      "name": "transferFrom",
      "outputs": [
        {
          "internalType": "bool",
          "name": "",
          "type": "bool"
        }
      ],
      "stateMutability": "nonpayable",
      "type": "function"
    },
    {
      "inputs": [
        {
          "internalType": "address",
          "name": "newOwner",
          "type": "address"
        }
      ],
      "name": "transferOwnership",
      "outputs": [],
      "stateMutability": "nonpayable",
      "type": "function"
    },
    {
      "inputs": [
        {
          "internalType": "uint256",
          "name": "liquidityFeesPerTenThousand",
          "type": "uint256"
        },
        {
          "internalType": "uint256",
          "name": "teamFeesPerTenThousand",
          "type": "uint256"
        },
        {
          "internalType": "uint256",
          "name": "marketingFeesPerTenThousand",
          "type": "uint256"
        },
        {
          "internalType": "uint256",
          "name": "stakingFeesPerTenThousand",
          "type": "uint256"
        },
        {
          "internalType": "uint256",
          "name": "warFeesPerTenThousand",
          "type": "uint256"
        }
      ],
      "name": "updateBuyFees",
      "outputs": [],
      "stateMutability": "nonpayable",
      "type": "function"
    },
    {
      "inputs": [
        {
          "internalType": "uint256",
          "name": "newValue",
          "type": "uint256"
        }
      ],
      "name": "updateGasForProcessing",
      "outputs": [],
      "stateMutability": "nonpayable",
      "type": "function"
    },
    {
      "inputs": [
        {
          "internalType": "uint256",
          "name": "feesPerTenThousand",
          "type": "uint256"
        }
      ],
      "name": "updateLiquidityBuyFees",
      "outputs": [],
      "stateMutability": "nonpayable",
      "type": "function"
    },
    {
      "inputs": [
        {
          "internalType": "uint256",
          "name": "feesPerTenThousand",
          "type": "uint256"
        }
      ],
      "name": "updateLiquiditySellFees",
      "outputs": [],
      "stateMutability": "nonpayable",
      "type": "function"
    },
    {
      "inputs": [
        {
          "internalType": "uint256",
          "name": "feesPerTenThousand",
          "type": "uint256"
        }
      ],
      "name": "updateMarketingBuyFees",
      "outputs": [],
      "stateMutability": "nonpayable",
      "type": "function"
    },
    {
      "inputs": [
        {
          "internalType": "uint256",
          "name": "feesPerTenThousand",
          "type": "uint256"
        }
      ],
      "name": "updateMarketingSellFees",
      "outputs": [],
      "stateMutability": "nonpayable",
      "type": "function"
    },
    {
      "inputs": [
        {
          "internalType": "address payable",
          "name": "newWallet",
          "type": "address"
        }
      ],
      "name": "updateMarketingWallet",
      "outputs": [],
      "stateMutability": "nonpayable",
      "type": "function"
    },
    {
      "inputs": [
        {
          "internalType": "uint256",
          "name": "liquidityFeesPerTenThousand",
          "type": "uint256"
        },
        {
          "internalType": "uint256",
          "name": "teamFeesPerTenThousand",
          "type": "uint256"
        },
        {
          "internalType": "uint256",
          "name": "marketingFeesPerTenThousand",
          "type": "uint256"
        },
        {
          "internalType": "uint256",
          "name": "stakingFeesPerTenThousand",
          "type": "uint256"
        },
        {
          "internalType": "uint256",
          "name": "warFeesPerTenThousand",
          "type": "uint256"
        }
      ],
      "name": "updateSellFees",
      "outputs": [],
      "stateMutability": "nonpayable",
      "type": "function"
    },
    {
      "inputs": [
        {
          "internalType": "uint256",
          "name": "feesPerTenThousand",
          "type": "uint256"
        }
      ],
      "name": "updateStakingBuyFees",
      "outputs": [],
      "stateMutability": "nonpayable",
      "type": "function"
    },
    {
      "inputs": [
        {
          "internalType": "uint256",
          "name": "feesPerTenThousand",
          "type": "uint256"
        }
      ],
      "name": "updateStakingSellFees",
      "outputs": [],
      "stateMutability": "nonpayable",
      "type": "function"
    },
    {
      "inputs": [
        {
          "internalType": "address payable",
          "name": "newWallet",
          "type": "address"
        }
      ],
      "name": "updateStakingWallet",
      "outputs": [],
      "stateMutability": "nonpayable",
      "type": "function"
    },
    {
      "inputs": [
        {
          "internalType": "uint256",
          "name": "threshold",
          "type": "uint256"
        }
      ],
      "name": "updateSwapThreshold",
      "outputs": [],
      "stateMutability": "nonpayable",
      "type": "function"
    },
    {
      "inputs": [
        {
          "internalType": "uint256",
          "name": "feesPerTenThousand",
          "type": "uint256"
        }
      ],
      "name": "updateTeamBuyFees",
      "outputs": [],
      "stateMutability": "nonpayable",
      "type": "function"
    },
    {
      "inputs": [
        {
          "internalType": "uint256",
          "name": "feesPerTenThousand",
          "type": "uint256"
        }
      ],
      "name": "updateTeamSellFees",
      "outputs": [],
      "stateMutability": "nonpayable",
      "type": "function"
    },
    {
      "inputs": [
        {
          "internalType": "address payable",
          "name": "newWallet",
          "type": "address"
        }
      ],
      "name": "updateTeamWallet",
      "outputs": [],
      "stateMutability": "nonpayable",
      "type": "function"
    },
    {
      "inputs": [
        {
          "internalType": "address",
          "name": "newRouter",
          "type": "address"
        }
      ],
      "name": "updateUniswapV2Router",
      "outputs": [],
      "stateMutability": "nonpayable",
      "type": "function"
    },
    {
      "inputs": [
        {
          "internalType": "uint256",
          "name": "feesPerTenThousand",
          "type": "uint256"
        }
      ],
      "name": "updateWarBuyFees",
      "outputs": [],
      "stateMutability": "nonpayable",
      "type": "function"
    },
    {
      "inputs": [
        {
          "internalType": "uint256",
          "name": "feesPerTenThousand",
          "type": "uint256"
        }
      ],
      "name": "updateWarSellFees",
      "outputs": [],
      "stateMutability": "nonpayable",
      "type": "function"
    },
    {
      "inputs": [
        {
          "internalType": "address payable",
          "name": "newWallet",
          "type": "address"
        }
      ],
      "name": "updateWarWallet",
      "outputs": [],
      "stateMutability": "nonpayable",
      "type": "function"
    },
    {
      "inputs": [
        {
          "internalType": "address",
          "name": "newImplementation",
          "type": "address"
        }
      ],
      "name": "upgradeTo",
      "outputs": [],
      "stateMutability": "nonpayable",
      "type": "function"
    },
    {
      "inputs": [
        {
          "internalType": "address",
          "name": "newImplementation",
          "type": "address"
        },
        {
          "internalType": "bytes",
          "name": "data",
          "type": "bytes"
        }
      ],
      "name": "upgradeToAndCall",
      "outputs": [],
      "stateMutability": "payable",
      "type": "function"
    },
    {
      "inputs": [],
      "name": "warWallet",
      "outputs": [
        {
          "internalType": "address",
          "name": "",
          "type": "address"
        }
      ],
      "stateMutability": "view",
      "type": "function"
    },
    {
      "stateMutability": "payable",
      "type": "receive"
    }
  ],
  "bytecode": "0x60a0604052306080523480156200001557600080fd5b50600054610100900460ff16620000335760005460ff16156200003d565b6200003d620000e2565b620000a55760405162461bcd60e51b815260206004820152602e60248201527f496e697469616c697a61626c653a20636f6e747261637420697320616c72656160448201526d191e481a5b9a5d1a585b1a5e995960921b606482015260840160405180910390fd5b600054610100900460ff16158015620000c8576000805461ffff19166101011790555b8015620000db576000805461ff00191690555b5062000106565b6000620000fa306200010060201b62002eda1760201c565b15905090565b3b151590565b608051614cfa6200013760003960008181611362015281816113a20152818161168b01526116cb0152614cfa6000f3fe60806040526004361061039b5760003560e01c806387576e0b116101dc578063cced773411610102578063e85ffe9e116100a0578063f2fde38b1161006f578063f2fde38b14610b2d578063f887ea4014610b4d578063fe575a8714610b6b578063ff935af614610ba457600080fd5b8063e85ffe9e14610aad578063edbb3b2c14610acd578063f170d7fd14610aed578063f275f64b14610b0d57600080fd5b8063dd62ed3e116100dc578063dd62ed3e146109d6578063e0f3ccf514610a1c578063e164243814610a5e578063e4748b9e14610a9857600080fd5b8063cced773414610977578063d2a09c7114610996578063d62b781f146109b657600080fd5b8063a9059cbb1161017a578063bcace14511610149578063bcace145146108f7578063c024666814610917578063cc274b2914610937578063ccec59651461095757600080fd5b8063a9059cbb14610877578063aacebbe314610897578063ae982e61146108b7578063b4f9a6b1146108d757600080fd5b80639a7a23d6116101b65780639a7a23d6146108015780639c1b8af5146108215780639d9d948814610837578063a457c2d71461085757600080fd5b806387576e0b146107ae5780638da5cb5b146107ce57806395d89b41146107ec57600080fd5b8063455a4396116102c15780636edbaa3f1161025f5780637949a4031161022e5780637949a403146107155780637cb332bb1461074e57806383f0a7161461076e578063871c128d1461078e57600080fd5b80636edbaa3f1461068b57806370a08231146106ab578063715018a6146106e157806375f0a874146106f657600080fd5b80634fbee1931161029b5780634fbee193146105f3578063599270441461062c57806365b8dbc01461064b57806369284f161461066b57600080fd5b8063455a4396146105a05780634778b624146105c05780634f1ef286146105e057600080fd5b80631fbcead911610339578063351a964d11610308578063351a964d146105205780633659cfe61461054057806336e086b014610560578063395093511461058057600080fd5b80631fbcead9146104a457806322f5b594146104c457806323b872dd146104e4578063313ce5671461050457600080fd5b806306fdde031161037557806306fdde031461042b578063095ea7b31461044d5780631459457a1461046d57806318160ddd1461048f57600080fd5b80630445b667146103a7578063064a59d0146103cc57806306ee6ad8146103f857600080fd5b366103a257005b600080fd5b3480156103b357600080fd5b5061010c545b6040519081526020015b60405180910390f35b3480156103d857600080fd5b5061011154600160a81b900460ff165b60405190151581526020016103c3565b34801561040457600080fd5b50610110546001600160a01b03165b6040516001600160a01b0390911681526020016103c3565b34801561043757600080fd5b50610440610bc4565b6040516103c391906144f7565b34801561045957600080fd5b506103e861046836600461453f565b610c56565b34801561047957600080fd5b5061048d61048836600461456b565b610c6d565b005b34801561049b57600080fd5b506035546103b9565b3480156104b057600080fd5b5061048d6104bf3660046145dc565b610feb565b3480156104d057600080fd5b5061048d6104df36600461461f565b6111cc565b3480156104f057600080fd5b506103e86104ff366004614638565b6112ab565b34801561051057600080fd5b50604051601281526020016103c3565b34801561052c57600080fd5b5061011154600160b81b900460ff166103e8565b34801561054c57600080fd5b5061048d61055b366004614679565b611357565b34801561056c57600080fd5b5061048d61057b36600461461f565b611420565b34801561058c57600080fd5b506103e861059b36600461453f565b6114f8565b3480156105ac57600080fd5b5061048d6105bb3660046146ab565b611534565b3480156105cc57600080fd5b5061048d6105db366004614679565b611589565b61048d6105ee3660046146f6565b611680565b3480156105ff57600080fd5b506103e861060e366004614679565b6001600160a01b0316600090815260fd602052604090205460ff1690565b34801561063857600080fd5b5061010e546001600160a01b0316610413565b34801561065757600080fd5b5061048d610666366004614679565b61173a565b34801561067757600080fd5b5061048d6106863660046146ab565b611992565b34801561069757600080fd5b5061048d6106a636600461461f565b611a5d565b3480156106b757600080fd5b506103b96106c6366004614679565b6001600160a01b031660009081526033602052604090205490565b3480156106ed57600080fd5b5061048d611b3a565b34801561070257600080fd5b5061010f546001600160a01b0316610413565b34801561072157600080fd5b506103e8610730366004614679565b6001600160a01b0316600090815260fc602052604090205460ff1690565b34801561075a57600080fd5b5061048d610769366004614679565b611b70565b34801561077a57600080fd5b5061048d61078936600461461f565b611c68565b34801561079a57600080fd5b5061048d6107a936600461461f565b611d41565b3480156107ba57600080fd5b5061048d6107c936600461461f565b611e84565b3480156107da57600080fd5b506065546001600160a01b0316610413565b3480156107f857600080fd5b50610440611f5c565b34801561080d57600080fd5b5061048d61081c3660046146ab565b611f6b565b34801561082d57600080fd5b5061010d546103b9565b34801561084357600080fd5b5061048d61085236600461461f565b611f9f565b34801561086357600080fd5b506103e861087236600461453f565b612081565b34801561088357600080fd5b506103e861089236600461453f565b61211a565b3480156108a357600080fd5b5061048d6108b2366004614679565b612127565b3480156108c357600080fd5b5061048d6108d236600461461f565b612229565b3480156108e357600080fd5b5061011154600160b01b900460ff166103e8565b34801561090357600080fd5b5061048d61091236600461461f565b612304565b34801561092357600080fd5b5061048d6109323660046146ab565b6123e1565b34801561094357600080fd5b5061048d61095236600461461f565b6124a2565b34801561096357600080fd5b5061048d61097236600461461f565b6124e9565b34801561098357600080fd5b50610111546001600160a01b0316610413565b3480156109a257600080fd5b5061048d6109b13660046147ba565b6125c7565b3480156109c257600080fd5b5061048d6109d136600461461f565b6126d2565b3480156109e257600080fd5b506103b96109f13660046147d5565b6001600160a01b03918216600090815260346020908152604080832093909416825291909152205490565b348015610a2857600080fd5b50610a316127b0565b604080519687526020870195909552938501929092526060840152608083015260a082015260c0016103c3565b348015610a6a57600080fd5b506103e8610a79366004614679565b6001600160a01b03166000908152610114602052604090205460ff1690565b348015610aa457600080fd5b50610a316127f7565b348015610ab957600080fd5b5061048d610ac83660046147ba565b61282b565b348015610ad957600080fd5b5061048d610ae8366004614679565b61292d565b348015610af957600080fd5b5061048d610b0836600461480e565b612a28565b348015610b1957600080fd5b5061048d610b283660046147ba565b612bb8565b348015610b3957600080fd5b5061048d610b48366004614679565b612cc5565b348015610b5957600080fd5b5060fb546001600160a01b0316610413565b348015610b7757600080fd5b506103e8610b86366004614679565b6001600160a01b0316600090815260fe602052604090205460ff1690565b348015610bb057600080fd5b5061048d610bbf36600461480e565b612d5d565b606060368054610bd390614849565b80601f0160208091040260200160405190810160405280929190818152602001828054610bff90614849565b8015610c4c5780601f10610c2157610100808354040283529160200191610c4c565b820191906000526020600020905b815481529060010190602001808311610c2f57829003601f168201915b5050505050905090565b6000610c63338484612ee0565b5060015b92915050565b600054610100900460ff16610c885760005460ff1615610c8c565b303b155b610cf45760405162461bcd60e51b815260206004820152602e60248201527f496e697469616c697a61626c653a20636f6e747261637420697320616c72656160448201526d191e481a5b9a5d1a585b1a5e995960921b60648201526084015b60405180910390fd5b600054610100900460ff16158015610d16576000805461ffff19166101011790555b610d5c60405180604001604052806009815260200168526574726f4e656b6f60b81b81525060405180604001604052806003815260200162524e4b60e81b815250613004565b610d6461303d565b610d6c613074565b610111805460fb80546001600160a01b03808b166001600160a01b0319928316811790935561010e80548b831690841617905561010f80548a831690841617905561011080548983169316929092179091558516600163ffffff0160a01b03199092169190911761010160b01b179091556040805163c45a015560e01b81529051600091839163c45a0155916004808201926020929091908290030181865afa158015610e1d573d6000803e3d6000fd5b505050506040513d601f19601f82011682018060405250810190610e419190614884565b6001600160a01b031663c9c6539630846001600160a01b031663ad5c46486040518163ffffffff1660e01b8152600401602060405180830381865afa158015610e8e573d6000803e3d6000fd5b505050506040513d601f19601f82011682018060405250810190610eb29190614884565b6040516001600160e01b031960e085901b1681526001600160a01b039283166004820152911660248201526044016020604051808303816000875af1158015610eff573d6000803e3d6000fd5b505050506040513d601f19601f82011682018060405250810190610f239190614884565b9050610f308160016130ab565b610f3c6012600a61499b565b610f4a906302faf0806149aa565b61010c55620493e061010d55606461010081905560c861010181905561012c610103819055600061010481905561010583905561010693909355610107919091556101095561010a5561019061010b55610fcf610faf6065546001600160a01b031690565b610fbb6012600a61499b565b610fca9064174876e8006149aa565b6131a0565b50508015610fe3576000805461ff00191690555b505050505050565b6065546001600160a01b031633146110155760405162461bcd60e51b8152600401610ceb906149c9565b610111805460ff60a01b1916600160a01b1790556000818385611038888a6149fe565b61104291906149fe565b61104c91906149fe565b61105691906149fe565b905060006110666012600a61499b565b61107090896149aa565b905060006002836110818a856149aa565b61108b9190614a16565b6110959190614a16565b905060006110a38284614a38565b90506110ae8161327f565b476000856110bc8b846149aa565b6110c69190614a16565b61010e549091506110e0906001600160a01b0316826133d7565b6000866110ed8b856149aa565b6110f79190614a16565b61010f54909150611111906001600160a01b0316826133d7565b60008761111e8b866149aa565b6111289190614a16565b61011054909150611142906001600160a01b0316826133d7565b60008861114f8b876149aa565b6111599190614a16565b61011154909150611173906001600160a01b0316826133d7565b6000818385611182888a614a38565b61118c9190614a38565b6111969190614a38565b6111a09190614a38565b90506111ac8882613482565b5050610111805460ff60a01b191690555050505050505050505050505050565b6065546001600160a01b031633146111f65760405162461bcd60e51b8152600401610ceb906149c9565b610105548114156112645760405162461bcd60e51b815260206004820152603260248201527f526574726f4e656b6f3a205761722062757920666565732068617320616c7265604482015271616479207468652073616d652076616c756560701b6064820152608401610ceb565b61010580549082905560408051828152602081018490527ffe8e2fa37902d574243d5f856c499c155a1280753f8db331709734aca880912491015b60405180910390a15050565b60006112b88484846134df565b6001600160a01b03841660009081526034602090815260408083203384529091529020548281101561133d5760405162461bcd60e51b815260206004820152602860248201527f45524332303a207472616e7366657220616d6f756e74206578636565647320616044820152676c6c6f77616e636560c01b6064820152608401610ceb565b61134a8533858403612ee0565b60019150505b9392505050565b306001600160a01b037f00000000000000000000000000000000000000000000000000000000000000001614156113a05760405162461bcd60e51b8152600401610ceb90614a4f565b7f00000000000000000000000000000000000000000000000000000000000000006001600160a01b03166113d2613780565b6001600160a01b0316146113f85760405162461bcd60e51b8152600401610ceb90614a9b565b611401816137ae565b6040805160008082526020820190925261141d918391906137d8565b50565b6065546001600160a01b0316331461144a5760405162461bcd60e51b8152600401610ceb906149c9565b61010b548114156114b95760405162461bcd60e51b815260206004820152603360248201527f526574726f4e656b6f3a205761722073656c6c20666565732068617320616c7260448201527265616479207468652073616d652076616c756560681b6064820152608401610ceb565b61010b80549082905560408051828152602081018490527f23a2f1667d5cf2a538514429193ba872a967a4508fa67c158e3296afe19ed92a910161129f565b3360008181526034602090815260408083206001600160a01b03871684529091528120549091610c6391859061152f9086906149fe565b612ee0565b6065546001600160a01b0316331461155e5760405162461bcd60e51b8152600401610ceb906149c9565b6001600160a01b0391909116600090815260fe60205260409020805460ff1916911515919091179055565b6065546001600160a01b031633146115b35760405162461bcd60e51b8152600401610ceb906149c9565b610111546001600160a01b038281169116141561162d5760405162461bcd60e51b815260206004820152603260248201527f526574726f4e656b6f3a20546865207761722077616c6c657420616c7265616460448201527179206861732074686174206164647265737360701b6064820152608401610ceb565b61011180546001600160a01b038381166001600160a01b0319831681179093556040519116919082907f943b99112134f5433188f067522b0078ad940246245c16be1964cd95bb84956490600090a35050565b306001600160a01b037f00000000000000000000000000000000000000000000000000000000000000001614156116c95760405162461bcd60e51b8152600401610ceb90614a4f565b7f00000000000000000000000000000000000000000000000000000000000000006001600160a01b03166116fb613780565b6001600160a01b0316146117215760405162461bcd60e51b8152600401610ceb90614a9b565b61172a826137ae565b611736828260016137d8565b5050565b6065546001600160a01b031633146117645760405162461bcd60e51b8152600401610ceb906149c9565b60fb546001600160a01b03828116911614156117d95760405162461bcd60e51b815260206004820152602e60248201527f526574726f4e656b6f3a2054686520726f7574657220616c726561647920686160448201526d732074686174206164647265737360901b6064820152608401610ceb565b60fb546040805163c45a015560e01b815290516001600160a01b039283169284926000929184169163c45a0155916004808201926020929091908290030181865afa15801561182c573d6000803e3d6000fd5b505050506040513d601f19601f820116820180604052508101906118509190614884565b6001600160a01b031663c9c6539630846001600160a01b031663ad5c46486040518163ffffffff1660e01b8152600401602060405180830381865afa15801561189d573d6000803e3d6000fd5b505050506040513d601f19601f820116820180604052508101906118c19190614884565b6040516001600160e01b031960e085901b1681526001600160a01b039283166004820152911660248201526044016020604051808303816000875af115801561190e573d6000803e3d6000fd5b505050506040513d601f19601f820116820180604052508101906119329190614884565b905061193f8160016130ab565b60fb80546001600160a01b0319166001600160a01b0386811691821790925560405190918516907feb8d61f6daf24f1091115a70adc941fd8537cfa96f53bfaf282c6bb3cfc5e6e690600090a350505050565b6065546001600160a01b031633146119bc5760405162461bcd60e51b8152600401610ceb906149c9565b6001600160a01b0382166000908152610114602052604090205460ff16151581151514156119fc5760405162461bcd60e51b8152600401610ceb90614ae7565b6001600160a01b03821660008181526101146020908152604091829020805460ff191685151590811790915591519182527f2abdb02620ef45be11c5415e1a87798c03ace7f16845ca5c6b0a5613c267b8ff91015b60405180910390a25050565b6065546001600160a01b03163314611a875760405162461bcd60e51b8152600401610ceb906149c9565b61010354811415611afb5760405162461bcd60e51b815260206004820152603860248201527f526574726f4e656b6f3a204d61726b6574696e672062757920666565732068616044820152777320616c7265616479207468652073616d652076616c756560401b6064820152608401610ceb565b61010380549082905560408051828152602081018490527f4c71888bec86dade21b0f5ccbc072fadcbc580bee085bb9fce19e659784dec61910161129f565b6065546001600160a01b03163314611b645760405162461bcd60e51b8152600401610ceb906149c9565b611b6e600061391c565b565b6065546001600160a01b03163314611b9a5760405162461bcd60e51b8152600401610ceb906149c9565b61010e546001600160a01b0382811691161415611c155760405162461bcd60e51b815260206004820152603360248201527f526574726f4e656b6f3a20546865207465616d2077616c6c657420616c7265616044820152726479206861732074686174206164647265737360681b6064820152608401610ceb565b61010e80546001600160a01b038381166001600160a01b0319831681179093556040519116919082907fd9a2a08302ed3220f4e646ff99d6780d87e27baddf1af05679dc930ce811309590600090a35050565b6065546001600160a01b03163314611c925760405162461bcd60e51b8152600401610ceb906149c9565b61010754811415611d025760405162461bcd60e51b815260206004820152603460248201527f526574726f4e656b6f3a205465616d2073656c6c20666565732068617320616c6044820152737265616479207468652073616d652076616c756560601b6064820152608401610ceb565b61010780549082905560408051828152602081018490527f1411c13e99a1d7ff9c4b0c46eb216b98e5a03de615570d8489494a80a81195c2910161129f565b6065546001600160a01b03163314611d6b5760405162461bcd60e51b8152600401610ceb906149c9565b62030d408110158015611d8157506207a1208111155b611de85760405162461bcd60e51b815260206004820152603260248201527f526574726f4e656b6f3a20676173206d757374206265206265747765656e2032604482015271030302c30303020616e64203530302c3030360741b6064820152608401610ceb565b61010d54811415611e4e5760405162461bcd60e51b815260206004820152602a60248201527f526574726f4e656b6f3a2043616e6e6f74207570646174652067617320746f2060448201526973616d652076616c756560b01b6064820152608401610ceb565b61010d546040518291907f40d7e40e79af4e8e5a9b3c57030d8ea93f13d669c06d448c4d631d4ae7d23db790600090a361010d55565b6065546001600160a01b03163314611eae5760405162461bcd60e51b8152600401610ceb906149c9565b61010154811415611f1d5760405162461bcd60e51b815260206004820152603360248201527f526574726f4e656b6f3a205465616d2062757920666565732068617320616c7260448201527265616479207468652073616d652076616c756560681b6064820152608401610ceb565b61010180549082905560408051828152602081018490527f332821edfcffb11ebe88bfc8180c2d6aec66e2401deca90ff933f2562f10929c910161129f565b606060378054610bd390614849565b6065546001600160a01b03163314611f955760405162461bcd60e51b8152600401610ceb906149c9565b61173682826130ab565b6065546001600160a01b03163314611fc95760405162461bcd60e51b8152600401610ceb906149c9565b61010a548114156120425760405162461bcd60e51b815260206004820152603760248201527f526574726f4e656b6f3a205374616b696e672073656c6c20666565732068617360448201527f20616c7265616479207468652073616d652076616c75650000000000000000006064820152608401610ceb565b61010a80549082905560408051828152602081018490527f7de936d1619d507a68508ac930b920d7b3aeb5c7b6a02127a36198d340789937910161129f565b3360009081526034602090815260408083206001600160a01b0386168452909152812054828110156121035760405162461bcd60e51b815260206004820152602560248201527f45524332303a2064656372656173656420616c6c6f77616e63652062656c6f77604482015264207a65726f60d81b6064820152608401610ceb565b6121103385858403612ee0565b5060019392505050565b6000610c633384846134df565b6065546001600160a01b031633146121515760405162461bcd60e51b8152600401610ceb906149c9565b61010f546001600160a01b03828116911614156121d65760405162461bcd60e51b815260206004820152603860248201527f526574726f4e656b6f3a20546865206d61726b6574696e672077616c6c65742060448201527f616c7265616479206861732074686174206164647265737300000000000000006064820152608401610ceb565b61010f80546001600160a01b038381166001600160a01b0319831681179093556040519116919082907f8616c7a330e3cf61290821331585511f1e2778171e2b005fb5ec60cfe874dc6790600090a35050565b6065546001600160a01b031633146122535760405162461bcd60e51b8152600401610ceb906149c9565b610104548114156122c55760405162461bcd60e51b815260206004820152603660248201527f526574726f4e656b6f3a205374616b696e672062757920666565732068617320604482015275616c7265616479207468652073616d652076616c756560501b6064820152608401610ceb565b61010480549082905560408051828152602081018490527f8e0c9dc02e1da3386b1f448f654ef1c3db968b77a5a7c2efc14113f17f890a18910161129f565b6065546001600160a01b0316331461232e5760405162461bcd60e51b8152600401610ceb906149c9565b610100548114156123a25760405162461bcd60e51b815260206004820152603860248201527f526574726f4e656b6f3a204c69717569646974792062757920666565732068616044820152777320616c7265616479207468652073616d652076616c756560401b6064820152608401610ceb565b61010080549082905560408051828152602081018490527f070e7d79f58271466523967a3ba6e1dd467a704e664c801648eff938aa7c8aee910161129f565b6065546001600160a01b0316331461240b5760405162461bcd60e51b8152600401610ceb906149c9565b6001600160a01b038216600090815260fd602052604090205460ff161515811515141561244a5760405162461bcd60e51b8152600401610ceb90614ae7565b6001600160a01b038216600081815260fd6020908152604091829020805460ff191685151590811790915591519182527f3499bfcf9673677ba552f3fe2ea274ec7e6246da31c3c87e115b45a9b0db2efb9101611a51565b6065546001600160a01b031633146124cc5760405162461bcd60e51b8152600401610ceb906149c9565b6124d86012600a61499b565b6124e290826149aa565b61010c5550565b6065546001600160a01b031633146125135760405162461bcd60e51b8152600401610ceb906149c9565b610106548114156125885760405162461bcd60e51b815260206004820152603960248201527f526574726f4e656b6f3a204c69717569646974792073656c6c20666565732068604482015278617320616c7265616479207468652073616d652076616c756560381b6064820152608401610ceb565b61010680549082905560408051828152602081018490527ff0af897f1c506324133d9169fa14f1e409ebe2e16a98b9e53a241643bdbf2b06910161129f565b6065546001600160a01b031633146125f15760405162461bcd60e51b8152600401610ceb906149c9565b6101115460ff600160b81b90910416151581151514156126795760405162461bcd60e51b815260206004820152603b60248201527f526574726f4e656b6f3a205377617020656e61626c656420697320616c72656160448201527f6479207468652076616c7565206f6620276973456e61626c65642700000000006064820152608401610ceb565b6101118054821515600160b81b0260ff60b81b199091161790556040517fb9bbb15e341600c8d067a0cadeba219905d5ba6d422b193c9c32265d26fc51c8906126c790831515815260200190565b60405180910390a150565b6065546001600160a01b031633146126fc5760405162461bcd60e51b8152600401610ceb906149c9565b610109548114156127715760405162461bcd60e51b815260206004820152603960248201527f526574726f4e656b6f3a204d61726b6574696e672073656c6c20666565732068604482015278617320616c7265616479207468652073616d652076616c756560381b6064820152608401610ceb565b61010980549082905560408051828152602081018490527fd09b72602a0b4d8607b87041d4b295778f7d64c85934bf6428adaa84e93b4b66910161129f565b60008060008060008061010660000154610106600101546101066003015461010660040154610106600501546127e461396e565b949b939a50919850965094509092509050565b60008060008060008061010060000154610100600101546101006003015461010060040154610100600501546127e46139b4565b6065546001600160a01b031633146128555760405162461bcd60e51b8152600401610ceb906149c9565b6101115460ff600160b01b90910416151581151514156128df576040805162461bcd60e51b81526020600482015260248101919091527f526574726f4e656b6f3a2054616b65206665657320656e61626c65642069732060448201527f616c7265616479207468652076616c7565206f6620276973456e61626c6564276064820152608401610ceb565b6101118054821515600160b01b0260ff60b01b199091161790556040517f370973326514248de404cfaea8658338b74b7ba101ceef84076d531ab288d5a5906126c790831515815260200190565b6065546001600160a01b031633146129575760405162461bcd60e51b8152600401610ceb906149c9565b610110546001600160a01b03828116911614156129d55760405162461bcd60e51b815260206004820152603660248201527f526574726f4e656b6f3a20546865207374616b696e672077616c6c657420616c6044820152757265616479206861732074686174206164647265737360501b6064820152608401610ceb565b61011080546001600160a01b038381166001600160a01b0319831681179093556040519116919082907f0b2d487c578ee8721e04056e667d57d860842931c083fecd93631e22510ec36b90600090a35050565b6065546001600160a01b03163314612a525760405162461bcd60e51b8152600401610ceb906149c9565b6101005485141580612a675750610101548414155b80612a755750610103548314155b80612a835750610104548214155b80612a915750610105548114155b612af55760405162461bcd60e51b815260206004820152602f60248201527f526574726f4e656b6f3a2042757920666565732068617320616c72656164792060448201526e7468652073616d652076616c75657360881b6064820152608401610ceb565b60006101006000015490508561010060000181905550600061010060010154905085610100600101819055506000610100600301549050856101006003018190555060006101006004015490508561010060040181905550600061010060050154905085610100600501819055507faf0694d1174825ee4698206774f111466e2b166d08603353f86ea5cf70cf0901858b868c878d888e898f604051612ba49a99989796959493929190614b3c565b60405180910390a150505050505050505050565b6065546001600160a01b03163314612be25760405162461bcd60e51b8152600401610ceb906149c9565b6101115460ff600160a81b9091041615158115151415612c6a5760405162461bcd60e51b815260206004820152603e60248201527f526574726f4e656b6f3a2054726164696e6720656e61626c656420697320616c60448201527f7265616479207468652076616c7565206f6620276973456e61626c65642700006064820152608401610ceb565b610111805482158015600160a81b0260ff60a81b1990921691909117909155612c935743610113555b60405181151581527fbeda7dca7bc1b3e80b871f4818129ec73b771581f803d553aeb3484098e5f65a906020016126c7565b6065546001600160a01b03163314612cef5760405162461bcd60e51b8152600401610ceb906149c9565b6001600160a01b038116612d545760405162461bcd60e51b815260206004820152602660248201527f4f776e61626c653a206e6577206f776e657220697320746865207a65726f206160448201526564647265737360d01b6064820152608401610ceb565b61141d8161391c565b6065546001600160a01b03163314612d875760405162461bcd60e51b8152600401610ceb906149c9565b6101065485141580612d9c5750610107548414155b80612daa5750610109548314155b80612db8575061010a548214155b80612dc6575061010b548114155b612e2b5760405162461bcd60e51b815260206004820152603060248201527f526574726f4e656b6f3a2053656c6c20666565732068617320616c726561647960448201526f207468652073616d652076616c75657360801b6064820152608401610ceb565b60006101066000015490508561010660000181905550600061010660010154905085610106600101819055506000610106600301549050856101066003018190555060006101066004015490508561010660040181905550600061010660050154905085610106600501819055507f2decc87f95dd422b46f67d72cf82bbef56a5685acb65edfd26c641dcaf6b2a9c858b868c878d888e898f604051612ba49a99989796959493929190614b3c565b3b151590565b6001600160a01b038316612f425760405162461bcd60e51b8152602060048201526024808201527f45524332303a20617070726f76652066726f6d20746865207a65726f206164646044820152637265737360e01b6064820152608401610ceb565b6001600160a01b038216612fa35760405162461bcd60e51b815260206004820152602260248201527f45524332303a20617070726f766520746f20746865207a65726f206164647265604482015261737360f01b6064820152608401610ceb565b6001600160a01b0383811660008181526034602090815260408083209487168084529482529182902085905590518481527f8c5be1e5ebec7d5bd14f71427d1e84f3dd0314c0f7b2291e5b200ac8c7c3b925910160405180910390a3505050565b600054610100900460ff1661302b5760405162461bcd60e51b8152600401610ceb90614b81565b6130336139d7565b61173682826139fe565b600054610100900460ff166130645760405162461bcd60e51b8152600401610ceb90614b81565b61306c6139d7565b611b6e613a4c565b600054610100900460ff1661309b5760405162461bcd60e51b8152600401610ceb90614b81565b6130a36139d7565b611b6e6139d7565b6001600160a01b038216600090815260fc602052604090205460ff161515811515141561314c5760405162461bcd60e51b815260206004820152604360248201527f526574726f4e656b6f3a204175746f6d61746564206d61726b6574206d616b6560448201527f72207061697220697320616c72656164792073657420746f20746861742076616064820152626c756560e81b608482015260a401610ceb565b6001600160a01b038216600081815260fc6020526040808220805460ff191685151590811790915590519092917f167fec55059eb0be5a803ca151d74e2f1df0223b4482c9eb80a57be642be0bf591a35050565b6001600160a01b0382166131f65760405162461bcd60e51b815260206004820152601f60248201527f45524332303a206d696e7420746f20746865207a65726f2061646472657373006044820152606401610ceb565b806035600082825461320891906149fe565b90915550506001600160a01b038216600090815260336020526040812080548392906132359084906149fe565b90915550506040518181526001600160a01b038316906000907fddf252ad1be2c89b69c2b068fc378daa952ba7f163c4a11628f55a4df523b3ef9060200160405180910390a35050565b801561141d5760408051600280825260608201835260009260208301908036833701905050905030816000815181106132ba576132ba614bcc565b6001600160a01b0392831660209182029290920181019190915260fb54604080516315ab88c960e31b81529051919093169263ad5c46489260048083019391928290030181865afa158015613313573d6000803e3d6000fd5b505050506040513d601f19601f820116820180604052508101906133379190614884565b8160018151811061334a5761334a614bcc565b6001600160a01b03928316602091820292909201015260fb546133709130911684612ee0565b60fb5460405163791ac94760e01b81526001600160a01b039091169063791ac947906133a9908590600090869030904290600401614be2565b600060405180830381600087803b1580156133c357600080fd5b505af1158015610fe3573d6000803e3d6000fd5b8015611736576000826001600160a01b03168260405160006040518083038185875af1925050503d806000811461342a576040519150601f19603f3d011682016040523d82523d6000602084013e61342f565b606091505b50509050801561347d57826001600160a01b03167f951187f2fc3f183ebdc238898fc9563f0a7d2956d726dd22c4fff10cd6ad910d8360405161347491815260200190565b60405180910390a25b505050565b6000821180156134925750600081115b15611736576134a18282613a7c565b60408051838152602081018390529081018390527f0990fc5ce44d4f819866e6e93c5c708084e19d57849a66fa65cd90bcb0d6fc719060600161129f565b73aeea45f0fede1f6eb18ab492be78b55d41e04a616135066065546001600160a01b031690565b6001600160a01b0316336001600160a01b031614806135365750806001600160a01b0316846001600160a01b0316145b8061354b575061011154600160a81b900460ff165b6135a15760405162461bcd60e51b815260206004820152602160248201527f526574726f4e656b6f3a2054726164696e67206973206e6f7420656e61626c656044820152601960fa1b6064820152608401610ceb565b6001600160a01b0384166136095760405162461bcd60e51b815260206004820152602960248201527f526574726f4e656b6f3a205472616e736665722066726f6d20746865207a65726044820152686f206164647265737360b81b6064820152608401610ceb565b6001600160a01b03831661366f5760405162461bcd60e51b815260206004820152602760248201527f526574726f4e656b6f3a205472616e7366657220746f20746865207a65726f206044820152666164647265737360c81b6064820152608401610ceb565b600082116136bf5760405162461bcd60e51b815260206004820152601e60248201527f526574726f4e656b6f3a205472616e73666572207a65726f20746f6b656e00006044820152606401610ceb565b6001600160a01b038416600090815260fe602052604090205460ff1615801561370157506001600160a01b038316600090815260fe602052604090205460ff16155b61374d5760405162461bcd60e51b815260206004820152601e60248201527f526574726f4e656b6f3a20426c61636b6c6973746564206164647265737300006044820152606401610ceb565b6137578484613b4a565b1561376d57613767848484613c58565b5061377a565b613778848484613cbc565b505b50505050565b7f360894a13ba1a3210667c828492db98dca3e2076cc3735a920a3ca505d382bbc546001600160a01b031690565b6065546001600160a01b0316331461141d5760405162461bcd60e51b8152600401610ceb906149c9565b60006137e2613780565b90506137ed84613d83565b6000835111806137fa5750815b1561380b576138098484613e28565b505b7f4910fdfa16fed3260ed0e7147f7cc6da11a60208b5b9406d12a635614ffd9143805460ff1661377857805460ff191660011781556040516001600160a01b038316602482015261388a90869060440160408051601f198184030181529190526020810180516001600160e01b0316631b2ce7f360e11b179052613e28565b50805460ff1916815561389b613780565b6001600160a01b0316826001600160a01b0316146139135760405162461bcd60e51b815260206004820152602f60248201527f45524331393637557067726164653a207570677261646520627265616b73206660448201526e75727468657220757067726164657360881b6064820152608401610ceb565b61377885613f13565b606580546001600160a01b038381166001600160a01b0319831681179093556040519116919082907f8be0079c531659141344cd1fd0a4f28419497f9722a3daafe3b4186f6b6457e090600090a35050565b61010b5461010a54610109546101075461010654600094939291613991916149fe565b61399b91906149fe565b6139a591906149fe565b6139af91906149fe565b905090565b6101055461010454610103546101015461010054600094939291613991916149fe565b600054610100900460ff16611b6e5760405162461bcd60e51b8152600401610ceb90614b81565b600054610100900460ff16613a255760405162461bcd60e51b8152600401610ceb90614b81565b8151613a38906036906020850190614432565b50805161347d906037906020840190614432565b600054610100900460ff16613a735760405162461bcd60e51b8152600401610ceb90614b81565b611b6e3361391c565b60fb54613a949030906001600160a01b031684612ee0565b60fb546001600160a01b031663f305d719823085600080613abd6065546001600160a01b031690565b60405160e088901b6001600160e01b03191681526001600160a01b03958616600482015260248101949094526044840192909252606483015290911660848201524260a482015260c40160606040518083038185885af1158015613b25573d6000803e3d6000fd5b50505050506040513d601f19601f820116820180604052508101906137789190614c53565b61011154600090600160a01b900460ff1680613b7357506065546001600160a01b038481169116145b80613b8b57506065546001600160a01b038381169116145b80613ba4575061010e546001600160a01b038481169116145b80613bbd575061010e546001600160a01b038381169116145b80613bd6575061010f546001600160a01b038481169116145b80613bef575061010f546001600160a01b038381169116145b80613c085750610110546001600160a01b038481169116145b80613c215750610110546001600160a01b038381169116145b80613c3a5750610111546001600160a01b038481169116145b80611350575050610111546001600160a01b03908116911614919050565b6000613c65848484613f53565b826001600160a01b0316846001600160a01b03167fddf252ad1be2c89b69c2b068fc378daa952ba7f163c4a11628f55a4df523b3ef84604051613caa91815260200190565b60405180910390a35060019392505050565b6001600160a01b038316600081815260fc602052604081205460ff805460ff191691811615159190911790559073aeea45f0fede1f6eb18ab492be78b55d41e04a61908114613d5b57613d0f8585614121565b15613d5b576000613d1e614180565b90506000612710613d2f83876149aa565b613d399190614a16565b9050613d458186614a38565b94508015613d5857613d58873083613f53565b50505b613d65858561419c565b15613d7257613d72614240565b821561134a5761134a858585613f53565b803b613de75760405162461bcd60e51b815260206004820152602d60248201527f455243313936373a206e657720696d706c656d656e746174696f6e206973206e60448201526c1bdd08184818dbdb9d1c9858dd609a1b6064820152608401610ceb565b7f360894a13ba1a3210667c828492db98dca3e2076cc3735a920a3ca505d382bbc80546001600160a01b0319166001600160a01b0392909216919091179055565b6060823b613e875760405162461bcd60e51b815260206004820152602660248201527f416464726573733a2064656c65676174652063616c6c20746f206e6f6e2d636f6044820152651b9d1c9858dd60d21b6064820152608401610ceb565b600080846001600160a01b031684604051613ea29190614c81565b600060405180830381855af49150503d8060008114613edd576040519150601f19603f3d011682016040523d82523d6000602084013e613ee2565b606091505b5091509150613f0a8282604051806060016040528060278152602001614c9e602791396143ce565b95945050505050565b613f1c81613d83565b6040516001600160a01b038216907fbc7cd75a20ee27fd9adebab32041f755214dbc6bffa90cc0225b39da2e5c2d3b90600090a250565b6001600160a01b038316613fb75760405162461bcd60e51b815260206004820152602560248201527f45524332303a207472616e736665722066726f6d20746865207a65726f206164604482015264647265737360d81b6064820152608401610ceb565b6001600160a01b0382166140195760405162461bcd60e51b815260206004820152602360248201527f45524332303a207472616e7366657220746f20746865207a65726f206164647260448201526265737360e81b6064820152608401610ceb565b6001600160a01b038316600090815260336020526040902054818110156140915760405162461bcd60e51b815260206004820152602660248201527f45524332303a207472616e7366657220616d6f756e7420657863656564732062604482015265616c616e636560d01b6064820152608401610ceb565b6001600160a01b038085166000908152603360205260408082208585039055918516815290812080548492906140c89084906149fe565b92505081905550826001600160a01b0316846001600160a01b03167fddf252ad1be2c89b69c2b068fc378daa952ba7f163c4a11628f55a4df523b3ef8460405161411491815260200190565b60405180910390a361377a565b61011154600090600160b01b900460ff16801561415757506001600160a01b038316600090815260fd602052604090205460ff16155b80156113505750506001600160a01b0316600090815260fd602052604090205460ff1615919050565b60ff805460009116614194576139af61396e565b6139af6139b4565b61011154600090600160b81b900460ff1680156141cb575061010c543060009081526033602052604090205410155b80156141f057506001600160a01b038316600090815260fc602052604090205460ff16155b801561421657506001600160a01b0383166000908152610114602052604090205460ff16155b80156113505750506001600160a01b03166000908152610114602052604090205460ff1615919050565b610111805460ff60a01b1916600160a01b17905561010c5460008080808080614267614407565b9550955095509550955095506000600282888a61428491906149aa565b61428e9190614a16565b6142989190614a16565b905060006142a6828a614a38565b90506142b18161327f565b476000846142bf8a846149aa565b6142c99190614a16565b61010e549091506142e3906001600160a01b0316826133d7565b6000856142f08a856149aa565b6142fa9190614a16565b61010f54909150614314906001600160a01b0316826133d7565b6000866143218a866149aa565b61432b9190614a16565b61011054909150614345906001600160a01b0316826133d7565b6000876143528a876149aa565b61435c9190614a16565b61011154909150614376906001600160a01b0316826133d7565b6000818385614385888a614a38565b61438f9190614a38565b6143999190614a38565b6143a39190614a38565b90506143af8882613482565b5050610111805460ff60a01b1916905550505050505050505050505050565b606083156143dd575081611350565b8251156143ed5782518084602001fd5b8160405162461bcd60e51b8152600401610ceb91906144f7565b60ff8054600091829182918291829182911661442a576144256127b0565b6127e4565b6127e46127f7565b82805461443e90614849565b90600052602060002090601f01602090048101928261446057600085556144a6565b82601f1061447957805160ff19168380011785556144a6565b828001600101855582156144a6579182015b828111156144a657825182559160200191906001019061448b565b506144b29291506144b6565b5090565b5b808211156144b257600081556001016144b7565b60005b838110156144e65781810151838201526020016144ce565b8381111561377a5750506000910152565b60208152600082518060208401526145168160408501602087016144cb565b601f01601f19169190910160400192915050565b6001600160a01b038116811461141d57600080fd5b6000806040838503121561455257600080fd5b823561455d8161452a565b946020939093013593505050565b600080600080600060a0868803121561458357600080fd5b853561458e8161452a565b9450602086013561459e8161452a565b935060408601356145ae8161452a565b925060608601356145be8161452a565b915060808601356145ce8161452a565b809150509295509295909350565b60008060008060008060c087890312156145f557600080fd5b505084359660208601359650604086013595606081013595506080810135945060a0013592509050565b60006020828403121561463157600080fd5b5035919050565b60008060006060848603121561464d57600080fd5b83356146588161452a565b925060208401356146688161452a565b929592945050506040919091013590565b60006020828403121561468b57600080fd5b81356113508161452a565b803580151581146146a657600080fd5b919050565b600080604083850312156146be57600080fd5b82356146c98161452a565b91506146d760208401614696565b90509250929050565b634e487b7160e01b600052604160045260246000fd5b6000806040838503121561470957600080fd5b82356147148161452a565b9150602083013567ffffffffffffffff8082111561473157600080fd5b818501915085601f83011261474557600080fd5b813581811115614757576147576146e0565b604051601f8201601f19908116603f0116810190838211818310171561477f5761477f6146e0565b8160405282815288602084870101111561479857600080fd5b8260208601602083013760006020848301015280955050505050509250929050565b6000602082840312156147cc57600080fd5b61135082614696565b600080604083850312156147e857600080fd5b82356147f38161452a565b915060208301356148038161452a565b809150509250929050565b600080600080600060a0868803121561482657600080fd5b505083359560208501359550604085013594606081013594506080013592509050565b600181811c9082168061485d57607f821691505b6020821081141561487e57634e487b7160e01b600052602260045260246000fd5b50919050565b60006020828403121561489657600080fd5b81516113508161452a565b634e487b7160e01b600052601160045260246000fd5b600181815b808511156148f25781600019048211156148d8576148d86148a1565b808516156148e557918102915b93841c93908002906148bc565b509250929050565b60008261490957506001610c67565b8161491657506000610c67565b816001811461492c576002811461493657614952565b6001915050610c67565b60ff841115614947576149476148a1565b50506001821b610c67565b5060208310610133831016604e8410600b8410161715614975575081810a610c67565b61497f83836148b7565b8060001904821115614993576149936148a1565b029392505050565b600061135060ff8416836148fa565b60008160001904831182151516156149c4576149c46148a1565b500290565b6020808252818101527f4f776e61626c653a2063616c6c6572206973206e6f7420746865206f776e6572604082015260600190565b60008219821115614a1157614a116148a1565b500190565b600082614a3357634e487b7160e01b600052601260045260246000fd5b500490565b600082821015614a4a57614a4a6148a1565b500390565b6020808252602c908201527f46756e6374696f6e206d7573742062652063616c6c6564207468726f7567682060408201526b19195b1959d85d1958d85b1b60a21b606082015260800190565b6020808252602c908201527f46756e6374696f6e206d7573742062652063616c6c6564207468726f7567682060408201526b6163746976652070726f787960a01b606082015260800190565b60208082526035908201527f526574726f4e656b6f3a204163636f756e7420697320616c7265616479207468604082015274652076616c7565206f6620276578636c756465642760581b606082015260800190565b998a5260208a019890985260408901969096526060880194909452608087019290925260a086015260c085015260e08401526101008301526101208201526101400190565b6020808252602b908201527f496e697469616c697a61626c653a20636f6e7472616374206973206e6f74206960408201526a6e697469616c697a696e6760a81b606082015260800190565b634e487b7160e01b600052603260045260246000fd5b600060a082018783526020878185015260a0604085015281875180845260c086019150828901935060005b81811015614c325784516001600160a01b031683529383019391830191600101614c0d565b50506001600160a01b03969096166060850152505050608001529392505050565b600080600060608486031215614c6857600080fd5b8351925060208401519150604084015190509250925092565b60008251614c938184602087016144cb565b919091019291505056fe416464726573733a206c6f772d6c6576656c2064656c65676174652063616c6c206661696c6564a2646970667358221220ebbd53b2984cf35de5489205dd54cdef00e433796eb5ec3ac61b5ec287228c1664736f6c634300080b0033",
  "linkReferences": {},
  "deployedLinkReferences": {}
}