{
  "_format": "hh-sol-artifact-1",
  "contractName": "RetroNekoV7",
  "sourceName": "contracts/tokens/RetroNekoV7.sol",
  "abi": [
    {
      "inputs": [],
      "stateMutability": "nonpayable",
      "type": "constructor"
    },
    {
      "anonymous": false,
      "inputs": [
        {
          "indexed": false,
          "internalType": "address",
          "name": "previousAdmin",
          "type": "address"
        },
        {
          "indexed": false,
          "internalType": "address",
          "name": "newAdmin",
          "type": "address"
        }
      ],
      "name": "AdminChanged",
      "type": "event"
    },
    {
      "anonymous": false,
      "inputs": [
        {
          "indexed": true,
          "internalType": "address",
          "name": "owner",
          "type": "address"
        },
        {
          "indexed": true,
          "internalType": "address",
          "name": "spender",
          "type": "address"
        },
        {
          "indexed": false,
          "internalType": "uint256",
          "name": "value",
          "type": "uint256"
        }
      ],
      "name": "Approval",
      "type": "event"
    },
    {
      "anonymous": false,
      "inputs": [
        {
          "indexed": true,
          "internalType": "address",
          "name": "pair",
          "type": "address"
        },
        {
          "indexed": true,
          "internalType": "bool",
          "name": "value",
          "type": "bool"
        }
      ],
      "name": "AutomatedMarketMakerPairSet",
      "type": "event"
    },
    {
      "anonymous": false,
      "inputs": [
        {
          "indexed": true,
          "internalType": "address",
          "name": "beacon",
          "type": "address"
        }
      ],
      "name": "BeaconUpgraded",
      "type": "event"
    },
    {
      "anonymous": false,
      "inputs": [
        {
          "indexed": false,
          "internalType": "uint256",
          "name": "previousLiquidityFeesPerTenThousand",
          "type": "uint256"
        },
        {
          "indexed": false,
          "internalType": "uint256",
          "name": "newLiquidityFeesPerTenThousand",
          "type": "uint256"
        },
        {
          "indexed": false,
          "internalType": "uint256",
          "name": "previousTeamFeesPerTenThousand",
          "type": "uint256"
        },
        {
          "indexed": false,
          "internalType": "uint256",
          "name": "newTeamFeesPerTenThousand",
          "type": "uint256"
        },
        {
          "indexed": false,
          "internalType": "uint256",
          "name": "previousMarketingFeesPerTenThousand",
          "type": "uint256"
        },
        {
          "indexed": false,
          "internalType": "uint256",
          "name": "newMarketingFeesPerTenThousand",
          "type": "uint256"
        },
        {
          "indexed": false,
          "internalType": "uint256",
          "name": "previousStakingFeesPerTenThousand",
          "type": "uint256"
        },
        {
          "indexed": false,
          "internalType": "uint256",
          "name": "newStakingFeesPerTenThousand",
          "type": "uint256"
        },
        {
          "indexed": false,
          "internalType": "uint256",
          "name": "previousWarFeesPerTenThousand",
          "type": "uint256"
        },
        {
          "indexed": false,
          "internalType": "uint256",
          "name": "newWarFeesPerTenThousand",
          "type": "uint256"
        }
      ],
      "name": "BuyFeesUpdated",
      "type": "event"
    },
    {
      "anonymous": false,
      "inputs": [
        {
          "indexed": true,
          "internalType": "address",
          "name": "account",
          "type": "address"
        },
        {
          "indexed": false,
          "internalType": "bool",
          "name": "isExcluded",
          "type": "bool"
        }
      ],
      "name": "ExcludedFromFees",
      "type": "event"
    },
    {
      "anonymous": false,
      "inputs": [
        {
          "indexed": true,
          "internalType": "address",
          "name": "account",
          "type": "address"
        },
        {
          "indexed": false,
          "internalType": "bool",
          "name": "isExcluded",
          "type": "bool"
        }
      ],
      "name": "ExcludedFromSwap",
      "type": "event"
    },
    {
      "anonymous": false,
      "inputs": [
        {
          "indexed": true,
          "internalType": "address",
          "name": "wallet",
          "type": "address"
        },
        {
          "indexed": false,
          "internalType": "uint256",
          "name": "amount",
          "type": "uint256"
        }
      ],
      "name": "FeesSentToWallet",
      "type": "event"
    },
    {
      "anonymous": false,
      "inputs": [
        {
          "indexed": true,
          "internalType": "uint256",
          "name": "oldValue",
          "type": "uint256"
        },
        {
          "indexed": true,
          "internalType": "uint256",
          "name": "newValue",
          "type": "uint256"
        }
      ],
      "name": "GasForProcessingUpdated",
      "type": "event"
    },
    {
      "anonymous": false,
      "inputs": [
        {
          "indexed": false,
          "internalType": "uint256",
          "name": "previousFeesPerTenThousand",
          "type": "uint256"
        },
        {
          "indexed": false,
          "internalType": "uint256",
          "name": "newFeesPerTenThousand",
          "type": "uint256"
        }
      ],
      "name": "LiquidityBuyFeesUpdated",
      "type": "event"
    },
    {
      "anonymous": false,
      "inputs": [
        {
          "indexed": false,
          "internalType": "uint256",
          "name": "previousFeesPerTenThousand",
          "type": "uint256"
        },
        {
          "indexed": false,
          "internalType": "uint256",
          "name": "newFeesPerTenThousand",
          "type": "uint256"
        }
      ],
      "name": "LiquiditySellFeesUpdated",
      "type": "event"
    },
    {
      "anonymous": false,
      "inputs": [
        {
          "indexed": false,
          "internalType": "uint256",
          "name": "previousFeesPerTenThousand",
          "type": "uint256"
        },
        {
          "indexed": false,
          "internalType": "uint256",
          "name": "newFeesPerTenThousand",
          "type": "uint256"
        }
      ],
      "name": "MarketingBuyFeesUpdated",
      "type": "event"
    },
    {
      "anonymous": false,
      "inputs": [
        {
          "indexed": false,
          "internalType": "uint256",
          "name": "previousFeesPerTenThousand",
          "type": "uint256"
        },
        {
          "indexed": false,
          "internalType": "uint256",
          "name": "newFeesPerTenThousand",
          "type": "uint256"
        }
      ],
      "name": "MarketingSellFeesUpdated",
      "type": "event"
    },
    {
      "anonymous": false,
      "inputs": [
        {
          "indexed": true,
          "internalType": "address",
          "name": "previousWallet",
          "type": "address"
        },
        {
          "indexed": true,
          "internalType": "address",
          "name": "newWallet",
          "type": "address"
        }
      ],
      "name": "MarketingWalletUpdated",
      "type": "event"
    },
    {
      "anonymous": false,
      "inputs": [
        {
          "indexed": true,
          "internalType": "address",
          "name": "previousOwner",
          "type": "address"
        },
        {
          "indexed": true,
          "internalType": "address",
          "name": "newOwner",
          "type": "address"
        }
      ],
      "name": "OwnershipTransferred",
      "type": "event"
    },
    {
      "anonymous": false,
      "inputs": [
        {
          "indexed": false,
          "internalType": "uint256",
          "name": "previousLiquidityFeesPerTenThousand",
          "type": "uint256"
        },
        {
          "indexed": false,
          "internalType": "uint256",
          "name": "newLiquidityFeesPerTenThousand",
          "type": "uint256"
        },
        {
          "indexed": false,
          "internalType": "uint256",
          "name": "previousTeamFeesPerTenThousand",
          "type": "uint256"
        },
        {
          "indexed": false,
          "internalType": "uint256",
          "name": "newTeamFeesPerTenThousand",
          "type": "uint256"
        },
        {
          "indexed": false,
          "internalType": "uint256",
          "name": "previousMarketingFeesPerTenThousand",
          "type": "uint256"
        },
        {
          "indexed": false,
          "internalType": "uint256",
          "name": "newMarketingFeesPerTenThousand",
          "type": "uint256"
        },
        {
          "indexed": false,
          "internalType": "uint256",
          "name": "previousStakingFeesPerTenThousand",
          "type": "uint256"
        },
        {
          "indexed": false,
          "internalType": "uint256",
          "name": "newStakingFeesPerTenThousand",
          "type": "uint256"
        },
        {
          "indexed": false,
          "internalType": "uint256",
          "name": "previousWarFeesPerTenThousand",
          "type": "uint256"
        },
        {
          "indexed": false,
          "internalType": "uint256",
          "name": "newWarFeesPerTenThousand",
          "type": "uint256"
        }
      ],
      "name": "SellFeesUpdated",
      "type": "event"
    },
    {
      "anonymous": false,
      "inputs": [
        {
          "indexed": false,
          "internalType": "uint256",
          "name": "previousFeesPerTenThousand",
          "type": "uint256"
        },
        {
          "indexed": false,
          "internalType": "uint256",
          "name": "newFeesPerTenThousand",
          "type": "uint256"
        }
      ],
      "name": "StakingBuyFeesUpdated",
      "type": "event"
    },
    {
      "anonymous": false,
      "inputs": [
        {
          "indexed": false,
          "internalType": "uint256",
          "name": "previousFeesPerTenThousand",
          "type": "uint256"
        },
        {
          "indexed": false,
          "internalType": "uint256",
          "name": "newFeesPerTenThousand",
          "type": "uint256"
        }
      ],
      "name": "StakingSellFeesUpdated",
      "type": "event"
    },
    {
      "anonymous": false,
      "inputs": [
        {
          "indexed": true,
          "internalType": "address",
          "name": "previousWallet",
          "type": "address"
        },
        {
          "indexed": true,
          "internalType": "address",
          "name": "newWallet",
          "type": "address"
        }
      ],
      "name": "StakingWalletUpdated",
      "type": "event"
    },
    {
      "anonymous": false,
      "inputs": [
        {
          "indexed": false,
          "internalType": "bool",
          "name": "isEnabled",
          "type": "bool"
        }
      ],
      "name": "SwapEnabled",
      "type": "event"
    },
    {
      "anonymous": false,
      "inputs": [
        {
          "indexed": false,
          "internalType": "uint256",
          "name": "tokensSwapped",
          "type": "uint256"
        },
        {
          "indexed": false,
          "internalType": "uint256",
          "name": "ethReceived",
          "type": "uint256"
        },
        {
          "indexed": false,
          "internalType": "uint256",
          "name": "tokensIntoLiqudity",
          "type": "uint256"
        }
      ],
      "name": "SwappedAndLiquified",
      "type": "event"
    },
    {
      "anonymous": false,
      "inputs": [
        {
          "indexed": false,
          "internalType": "bool",
          "name": "isEnabled",
          "type": "bool"
        }
      ],
      "name": "TakeFeesEnabled",
      "type": "event"
    },
    {
      "anonymous": false,
      "inputs": [
        {
          "indexed": false,
          "internalType": "uint256",
          "name": "previousFeesPerTenThousand",
          "type": "uint256"
        },
        {
          "indexed": false,
          "internalType": "uint256",
          "name": "newFeesPerTenThousand",
          "type": "uint256"
        }
      ],
      "name": "TeamBuyFeesUpdated",
      "type": "event"
    },
    {
      "anonymous": false,
      "inputs": [
        {
          "indexed": false,
          "internalType": "uint256",
          "name": "previousFeesPerTenThousand",
          "type": "uint256"
        },
        {
          "indexed": false,
          "internalType": "uint256",
          "name": "newFeesPerTenThousand",
          "type": "uint256"
        }
      ],
      "name": "TeamSellFeesUpdated",
      "type": "event"
    },
    {
      "anonymous": false,
      "inputs": [
        {
          "indexed": true,
          "internalType": "address",
          "name": "previousWallet",
          "type": "address"
        },
        {
          "indexed": true,
          "internalType": "address",
          "name": "newWallet",
          "type": "address"
        }
      ],
      "name": "TeamWalletUpdated",
      "type": "event"
    },
    {
      "anonymous": false,
      "inputs": [
        {
          "indexed": false,
          "internalType": "bool",
          "name": "isEnabled",
          "type": "bool"
        }
      ],
      "name": "TradingEnabled",
      "type": "event"
    },
    {
      "anonymous": false,
      "inputs": [
        {
          "indexed": true,
          "internalType": "address",
          "name": "from",
          "type": "address"
        },
        {
          "indexed": true,
          "internalType": "address",
          "name": "to",
          "type": "address"
        },
        {
          "indexed": false,
          "internalType": "uint256",
          "name": "value",
          "type": "uint256"
        }
      ],
      "name": "Transfer",
      "type": "event"
    },
    {
      "anonymous": false,
      "inputs": [
        {
          "indexed": true,
          "internalType": "address",
          "name": "previousAddress",
          "type": "address"
        },
        {
          "indexed": true,
          "internalType": "address",
          "name": "newAddress",
          "type": "address"
        }
      ],
      "name": "UniswapV2RouterUpdated",
      "type": "event"
    },
    {
      "anonymous": false,
      "inputs": [
        {
          "indexed": true,
          "internalType": "address",
          "name": "implementation",
          "type": "address"
        }
      ],
      "name": "Upgraded",
      "type": "event"
    },
    {
      "anonymous": false,
      "inputs": [
        {
          "indexed": false,
          "internalType": "uint256",
          "name": "previousFeesPerTenThousand",
          "type": "uint256"
        },
        {
          "indexed": false,
          "internalType": "uint256",
          "name": "newFeesPerTenThousand",
          "type": "uint256"
        }
      ],
      "name": "WarBuyFeesUpdated",
      "type": "event"
    },
    {
      "anonymous": false,
      "inputs": [
        {
          "indexed": false,
          "internalType": "uint256",
          "name": "previousFeesPerTenThousand",
          "type": "uint256"
        },
        {
          "indexed": false,
          "internalType": "uint256",
          "name": "newFeesPerTenThousand",
          "type": "uint256"
        }
      ],
      "name": "WarSellFeesUpdated",
      "type": "event"
    },
    {
      "anonymous": false,
      "inputs": [
        {
          "indexed": true,
          "internalType": "address",
          "name": "previousWallet",
          "type": "address"
        },
        {
          "indexed": true,
          "internalType": "address",
          "name": "newWallet",
          "type": "address"
        }
      ],
      "name": "WarWalletUpdated",
      "type": "event"
    },
    {
      "inputs": [
        {
          "internalType": "address",
          "name": "owner",
          "type": "address"
        },
        {
          "internalType": "address",
          "name": "spender",
          "type": "address"
        }
      ],
      "name": "allowance",
      "outputs": [
        {
          "internalType": "uint256",
          "name": "",
          "type": "uint256"
        }
      ],
      "stateMutability": "view",
      "type": "function"
    },
    {
      "inputs": [
        {
          "internalType": "address",
          "name": "spender",
          "type": "address"
        },
        {
          "internalType": "uint256",
          "name": "amount",
          "type": "uint256"
        }
      ],
      "name": "approve",
      "outputs": [
        {
          "internalType": "bool",
          "name": "",
          "type": "bool"
        }
      ],
      "stateMutability": "nonpayable",
      "type": "function"
    },
    {
      "inputs": [
        {
          "internalType": "address",
          "name": "account",
          "type": "address"
        }
      ],
      "name": "balanceOf",
      "outputs": [
        {
          "internalType": "uint256",
          "name": "",
          "type": "uint256"
        }
      ],
      "stateMutability": "view",
      "type": "function"
    },
    {
      "inputs": [
        {
          "internalType": "address",
          "name": "account",
          "type": "address"
        },
        {
          "internalType": "bool",
          "name": "value",
          "type": "bool"
        }
      ],
      "name": "blacklistAddress",
      "outputs": [],
      "stateMutability": "nonpayable",
      "type": "function"
    },
    {
      "inputs": [],
      "name": "buyFees",
      "outputs": [
        {
          "internalType": "uint256",
          "name": "liquidityFeesPerTenThousand",
          "type": "uint256"
        },
        {
          "internalType": "uint256",
          "name": "teamFeesPerTenThousand",
          "type": "uint256"
        },
        {
          "internalType": "uint256",
          "name": "marketingFeesPerTenThousand",
          "type": "uint256"
        },
        {
          "internalType": "uint256",
          "name": "stakingFeesPerTenThousand",
          "type": "uint256"
        },
        {
          "internalType": "uint256",
          "name": "warFeesPerTenThousand",
          "type": "uint256"
        },
        {
          "internalType": "uint256",
          "name": "totalFeesPerTenThousand",
          "type": "uint256"
        }
      ],
      "stateMutability": "view",
      "type": "function"
    },
    {
      "inputs": [],
      "name": "decimals",
      "outputs": [
        {
          "internalType": "uint8",
          "name": "",
          "type": "uint8"
        }
      ],
      "stateMutability": "view",
      "type": "function"
    },
    {
      "inputs": [
        {
          "internalType": "address",
          "name": "spender",
          "type": "address"
        },
        {
          "internalType": "uint256",
          "name": "subtractedValue",
          "type": "uint256"
        }
      ],
      "name": "decreaseAllowance",
      "outputs": [
        {
          "internalType": "bool",
          "name": "",
          "type": "bool"
        }
      ],
      "stateMutability": "nonpayable",
      "type": "function"
    },
    {
      "inputs": [
        {
          "internalType": "bool",
          "name": "isEnabled",
          "type": "bool"
        }
      ],
      "name": "enableSwap",
      "outputs": [],
      "stateMutability": "nonpayable",
      "type": "function"
    },
    {
      "inputs": [
        {
          "internalType": "bool",
          "name": "isEnabled",
          "type": "bool"
        }
      ],
      "name": "enableTakeFees",
      "outputs": [],
      "stateMutability": "nonpayable",
      "type": "function"
    },
    {
      "inputs": [
        {
          "internalType": "bool",
          "name": "isEnabled",
          "type": "bool"
        }
      ],
      "name": "enableTrading",
      "outputs": [],
      "stateMutability": "nonpayable",
      "type": "function"
    },
    {
      "inputs": [
        {
          "internalType": "address",
          "name": "account",
          "type": "address"
        },
        {
          "internalType": "bool",
          "name": "excluded",
          "type": "bool"
        }
      ],
      "name": "excludeFromFees",
      "outputs": [],
      "stateMutability": "nonpayable",
      "type": "function"
    },
    {
      "inputs": [
        {
          "internalType": "address",
          "name": "account",
          "type": "address"
        },
        {
          "internalType": "bool",
          "name": "excluded",
          "type": "bool"
        }
      ],
      "name": "excludeFromSwap",
      "outputs": [],
      "stateMutability": "nonpayable",
      "type": "function"
    },
    {
      "inputs": [],
      "name": "gasForProcessing",
      "outputs": [
        {
          "internalType": "uint256",
          "name": "",
          "type": "uint256"
        }
      ],
      "stateMutability": "view",
      "type": "function"
    },
    {
      "inputs": [
        {
          "internalType": "address",
          "name": "spender",
          "type": "address"
        },
        {
          "internalType": "uint256",
          "name": "addedValue",
          "type": "uint256"
        }
      ],
      "name": "increaseAllowance",
      "outputs": [
        {
          "internalType": "bool",
          "name": "",
          "type": "bool"
        }
      ],
      "stateMutability": "nonpayable",
      "type": "function"
    },
    {
      "inputs": [
        {
          "internalType": "address",
          "name": "newRouter",
          "type": "address"
        },
        {
          "internalType": "address",
          "name": "newTeamWallet",
          "type": "address"
        },
        {
          "internalType": "address",
          "name": "newMarketingWallet",
          "type": "address"
        },
        {
          "internalType": "address",
          "name": "newStakingWallet",
          "type": "address"
        },
        {
          "internalType": "address",
          "name": "newWarWallet",
          "type": "address"
        }
      ],
      "name": "initialize",
      "outputs": [],
      "stateMutability": "nonpayable",
      "type": "function"
    },
    {
      "inputs": [
        {
          "internalType": "address",
          "name": "account",
          "type": "address"
        }
      ],
      "name": "isAutomatedMarketMakerPair",
      "outputs": [
        {
          "internalType": "bool",
          "name": "",
          "type": "bool"
        }
      ],
      "stateMutability": "view",
      "type": "function"
    },
    {
      "inputs": [
        {
          "internalType": "address",
          "name": "account",
          "type": "address"
        }
      ],
      "name": "isBlacklisted",
      "outputs": [
        {
          "internalType": "bool",
          "name": "",
          "type": "bool"
        }
      ],
      "stateMutability": "view",
      "type": "function"
    },
    {
      "inputs": [
        {
          "internalType": "address",
          "name": "account",
          "type": "address"
        }
      ],
      "name": "isExcludedFromFees",
      "outputs": [
        {
          "internalType": "bool",
          "name": "",
          "type": "bool"
        }
      ],
      "stateMutability": "view",
      "type": "function"
    },
    {
      "inputs": [
        {
          "internalType": "address",
          "name": "account",
          "type": "address"
        }
      ],
      "name": "isExcludedFromSwap",
      "outputs": [
        {
          "internalType": "bool",
          "name": "",
          "type": "bool"
        }
      ],
      "stateMutability": "view",
      "type": "function"
    },
    {
      "inputs": [],
      "name": "isSwapEnabled",
      "outputs": [
        {
          "internalType": "bool",
          "name": "",
          "type": "bool"
        }
      ],
      "stateMutability": "view",
      "type": "function"
    },
    {
      "inputs": [],
      "name": "isTakeFeesEnabled",
      "outputs": [
        {
          "internalType": "bool",
          "name": "",
          "type": "bool"
        }
      ],
      "stateMutability": "view",
      "type": "function"
    },
    {
      "inputs": [],
      "name": "isTradingEnabled",
      "outputs": [
        {
          "internalType": "bool",
          "name": "",
          "type": "bool"
        }
      ],
      "stateMutability": "view",
      "type": "function"
    },
    {
      "inputs": [],
      "name": "manualSendFeesToMarketing",
      "outputs": [],
      "stateMutability": "nonpayable",
      "type": "function"
    },
    {
      "inputs": [
        {
          "internalType": "uint256",
          "name": "amount",
          "type": "uint256"
        },
        {
          "internalType": "uint256",
          "name": "liquidityFeesPerTenThousand",
          "type": "uint256"
        },
        {
          "internalType": "uint256",
          "name": "teamFeesPerTenThousand",
          "type": "uint256"
        },
        {
          "internalType": "uint256",
          "name": "marketingFeesPerTenThousand",
          "type": "uint256"
        },
        {
          "internalType": "uint256",
          "name": "stakingFeesPerTenThousand",
          "type": "uint256"
        },
        {
          "internalType": "uint256",
          "name": "warFeesPerTenThousand",
          "type": "uint256"
        },
        {
          "internalType": "uint256",
          "name": "totalFeesPerTenThousand",
          "type": "uint256"
        }
      ],
      "name": "manualSwapSendFeesAndLiquify",
      "outputs": [],
      "stateMutability": "nonpayable",
      "type": "function"
    },
    {
      "inputs": [],
      "name": "marketingWallet",
      "outputs": [
        {
          "internalType": "address",
          "name": "",
          "type": "address"
        }
      ],
      "stateMutability": "view",
      "type": "function"
    },
    {
      "inputs": [],
      "name": "name",
      "outputs": [
        {
          "internalType": "string",
          "name": "",
          "type": "string"
        }
      ],
      "stateMutability": "view",
      "type": "function"
    },
    {
      "inputs": [],
      "name": "owner",
      "outputs": [
        {
          "internalType": "address",
          "name": "",
          "type": "address"
        }
      ],
      "stateMutability": "view",
      "type": "function"
    },
    {
      "inputs": [],
      "name": "renounceOwnership",
      "outputs": [],
      "stateMutability": "nonpayable",
      "type": "function"
    },
    {
      "inputs": [],
      "name": "router",
      "outputs": [
        {
          "internalType": "address",
          "name": "",
          "type": "address"
        }
      ],
      "stateMutability": "view",
      "type": "function"
    },
    {
      "inputs": [],
      "name": "sellFees",
      "outputs": [
        {
          "internalType": "uint256",
          "name": "liquidityFeesPerTenThousand",
          "type": "uint256"
        },
        {
          "internalType": "uint256",
          "name": "teamFeesPerTenThousand",
          "type": "uint256"
        },
        {
          "internalType": "uint256",
          "name": "marketingFeesPerTenThousand",
          "type": "uint256"
        },
        {
          "internalType": "uint256",
          "name": "stakingFeesPerTenThousand",
          "type": "uint256"
        },
        {
          "internalType": "uint256",
          "name": "warFeesPerTenThousand",
          "type": "uint256"
        },
        {
          "internalType": "uint256",
          "name": "totalFeesPerTenThousand",
          "type": "uint256"
        }
      ],
      "stateMutability": "view",
      "type": "function"
    },
    {
      "inputs": [
        {
          "internalType": "address",
          "name": "newPair",
          "type": "address"
        },
        {
          "internalType": "bool",
          "name": "value",
          "type": "bool"
        }
      ],
      "name": "setAutomatedMarketMakerPair",
      "outputs": [],
      "stateMutability": "nonpayable",
      "type": "function"
    },
    {
      "inputs": [],
      "name": "stakingWallet",
      "outputs": [
        {
          "internalType": "address",
          "name": "",
          "type": "address"
        }
      ],
      "stateMutability": "view",
      "type": "function"
    },
    {
      "inputs": [],
      "name": "swapThreshold",
      "outputs": [
        {
          "internalType": "uint256",
          "name": "",
          "type": "uint256"
        }
      ],
      "stateMutability": "view",
      "type": "function"
    },
    {
      "inputs": [],
      "name": "symbol",
      "outputs": [
        {
          "internalType": "string",
          "name": "",
          "type": "string"
        }
      ],
      "stateMutability": "view",
      "type": "function"
    },
    {
      "inputs": [],
      "name": "teamWallet",
      "outputs": [
        {
          "internalType": "address",
          "name": "",
          "type": "address"
        }
      ],
      "stateMutability": "view",
      "type": "function"
    },
    {
      "inputs": [],
      "name": "totalSupply",
      "outputs": [
        {
          "internalType": "uint256",
          "name": "",
          "type": "uint256"
        }
      ],
      "stateMutability": "view",
      "type": "function"
    },
    {
      "inputs": [
        {
          "internalType": "address",
          "name": "recipient",
          "type": "address"
        },
        {
          "internalType": "uint256",
          "name": "amount",
          "type": "uint256"
        }
      ],
      "name": "transfer",
      "outputs": [
        {
          "internalType": "bool",
          "name": "",
          "type": "bool"
        }
      ],
      "stateMutability": "nonpayable",
      "type": "function"
    },
    {
      "inputs": [
        {
          "internalType": "address",
          "name": "sender",
          "type": "address"
        },
        {
          "internalType": "address",
          "name": "recipient",
          "type": "address"
        },
        {
          "internalType": "uint256",
          "name": "amount",
          "type": "uint256"
        }
      ],
      "name": "transferFrom",
      "outputs": [
        {
          "internalType": "bool",
          "name": "",
          "type": "bool"
        }
      ],
      "stateMutability": "nonpayable",
      "type": "function"
    },
    {
      "inputs": [
        {
          "internalType": "address",
          "name": "newOwner",
          "type": "address"
        }
      ],
      "name": "transferOwnership",
      "outputs": [],
      "stateMutability": "nonpayable",
      "type": "function"
    },
    {
      "inputs": [
        {
          "internalType": "uint256",
          "name": "liquidityFeesPerTenThousand",
          "type": "uint256"
        },
        {
          "internalType": "uint256",
          "name": "teamFeesPerTenThousand",
          "type": "uint256"
        },
        {
          "internalType": "uint256",
          "name": "marketingFeesPerTenThousand",
          "type": "uint256"
        },
        {
          "internalType": "uint256",
          "name": "stakingFeesPerTenThousand",
          "type": "uint256"
        },
        {
          "internalType": "uint256",
          "name": "warFeesPerTenThousand",
          "type": "uint256"
        }
      ],
      "name": "updateBuyFees",
      "outputs": [],
      "stateMutability": "nonpayable",
      "type": "function"
    },
    {
      "inputs": [
        {
          "internalType": "uint256",
          "name": "newValue",
          "type": "uint256"
        }
      ],
      "name": "updateGasForProcessing",
      "outputs": [],
      "stateMutability": "nonpayable",
      "type": "function"
    },
    {
      "inputs": [
        {
          "internalType": "uint256",
          "name": "feesPerTenThousand",
          "type": "uint256"
        }
      ],
      "name": "updateLiquidityBuyFees",
      "outputs": [],
      "stateMutability": "nonpayable",
      "type": "function"
    },
    {
      "inputs": [
        {
          "internalType": "uint256",
          "name": "feesPerTenThousand",
          "type": "uint256"
        }
      ],
      "name": "updateLiquiditySellFees",
      "outputs": [],
      "stateMutability": "nonpayable",
      "type": "function"
    },
    {
      "inputs": [
        {
          "internalType": "uint256",
          "name": "feesPerTenThousand",
          "type": "uint256"
        }
      ],
      "name": "updateMarketingBuyFees",
      "outputs": [],
      "stateMutability": "nonpayable",
      "type": "function"
    },
    {
      "inputs": [
        {
          "internalType": "uint256",
          "name": "feesPerTenThousand",
          "type": "uint256"
        }
      ],
      "name": "updateMarketingSellFees",
      "outputs": [],
      "stateMutability": "nonpayable",
      "type": "function"
    },
    {
      "inputs": [
        {
          "internalType": "address payable",
          "name": "newWallet",
          "type": "address"
        }
      ],
      "name": "updateMarketingWallet",
      "outputs": [],
      "stateMutability": "nonpayable",
      "type": "function"
    },
    {
      "inputs": [
        {
          "internalType": "uint256",
          "name": "liquidityFeesPerTenThousand",
          "type": "uint256"
        },
        {
          "internalType": "uint256",
          "name": "teamFeesPerTenThousand",
          "type": "uint256"
        },
        {
          "internalType": "uint256",
          "name": "marketingFeesPerTenThousand",
          "type": "uint256"
        },
        {
          "internalType": "uint256",
          "name": "stakingFeesPerTenThousand",
          "type": "uint256"
        },
        {
          "internalType": "uint256",
          "name": "warFeesPerTenThousand",
          "type": "uint256"
        }
      ],
      "name": "updateSellFees",
      "outputs": [],
      "stateMutability": "nonpayable",
      "type": "function"
    },
    {
      "inputs": [
        {
          "internalType": "uint256",
          "name": "feesPerTenThousand",
          "type": "uint256"
        }
      ],
      "name": "updateStakingBuyFees",
      "outputs": [],
      "stateMutability": "nonpayable",
      "type": "function"
    },
    {
      "inputs": [
        {
          "internalType": "uint256",
          "name": "feesPerTenThousand",
          "type": "uint256"
        }
      ],
      "name": "updateStakingSellFees",
      "outputs": [],
      "stateMutability": "nonpayable",
      "type": "function"
    },
    {
      "inputs": [
        {
          "internalType": "address payable",
          "name": "newWallet",
          "type": "address"
        }
      ],
      "name": "updateStakingWallet",
      "outputs": [],
      "stateMutability": "nonpayable",
      "type": "function"
    },
    {
      "inputs": [
        {
          "internalType": "uint256",
          "name": "threshold",
          "type": "uint256"
        }
      ],
      "name": "updateSwapThreshold",
      "outputs": [],
      "stateMutability": "nonpayable",
      "type": "function"
    },
    {
      "inputs": [
        {
          "internalType": "uint256",
          "name": "feesPerTenThousand",
          "type": "uint256"
        }
      ],
      "name": "updateTeamBuyFees",
      "outputs": [],
      "stateMutability": "nonpayable",
      "type": "function"
    },
    {
      "inputs": [
        {
          "internalType": "uint256",
          "name": "feesPerTenThousand",
          "type": "uint256"
        }
      ],
      "name": "updateTeamSellFees",
      "outputs": [],
      "stateMutability": "nonpayable",
      "type": "function"
    },
    {
      "inputs": [
        {
          "internalType": "address payable",
          "name": "newWallet",
          "type": "address"
        }
      ],
      "name": "updateTeamWallet",
      "outputs": [],
      "stateMutability": "nonpayable",
      "type": "function"
    },
    {
      "inputs": [
        {
          "internalType": "address",
          "name": "newRouter",
          "type": "address"
        }
      ],
      "name": "updateUniswapV2Router",
      "outputs": [],
      "stateMutability": "nonpayable",
      "type": "function"
    },
    {
      "inputs": [
        {
          "internalType": "uint256",
          "name": "feesPerTenThousand",
          "type": "uint256"
        }
      ],
      "name": "updateWarBuyFees",
      "outputs": [],
      "stateMutability": "nonpayable",
      "type": "function"
    },
    {
      "inputs": [
        {
          "internalType": "uint256",
          "name": "feesPerTenThousand",
          "type": "uint256"
        }
      ],
      "name": "updateWarSellFees",
      "outputs": [],
      "stateMutability": "nonpayable",
      "type": "function"
    },
    {
      "inputs": [
        {
          "internalType": "address payable",
          "name": "newWallet",
          "type": "address"
        }
      ],
      "name": "updateWarWallet",
      "outputs": [],
      "stateMutability": "nonpayable",
      "type": "function"
    },
    {
      "inputs": [
        {
          "internalType": "address",
          "name": "newImplementation",
          "type": "address"
        }
      ],
      "name": "upgradeTo",
      "outputs": [],
      "stateMutability": "nonpayable",
      "type": "function"
    },
    {
      "inputs": [
        {
          "internalType": "address",
          "name": "newImplementation",
          "type": "address"
        },
        {
          "internalType": "bytes",
          "name": "data",
          "type": "bytes"
        }
      ],
      "name": "upgradeToAndCall",
      "outputs": [],
      "stateMutability": "payable",
      "type": "function"
    },
    {
      "inputs": [],
      "name": "warWallet",
      "outputs": [
        {
          "internalType": "address",
          "name": "",
          "type": "address"
        }
      ],
      "stateMutability": "view",
      "type": "function"
    },
    {
      "stateMutability": "payable",
      "type": "receive"
    }
  ],
  "bytecode": "0x60a0604052306080523480156200001557600080fd5b50600054610100900460ff16620000335760005460ff16156200003d565b6200003d620000e2565b620000a55760405162461bcd60e51b815260206004820152602e60248201527f496e697469616c697a61626c653a20636f6e747261637420697320616c72656160448201526d191e481a5b9a5d1a585b1a5e995960921b606482015260840160405180910390fd5b600054610100900460ff16158015620000c8576000805461ffff19166101011790555b8015620000db576000805461ff00191690555b5062000106565b6000620000fa306200010060201b62002f421760201c565b15905090565b3b151590565b608051614de56200013760003960008181611352015281816113920152818161167b01526116bb0152614de56000f3fe6080604052600436106103a65760003560e01c8063871c128d116101e7578063ccec59651161010d578063e85ffe9e116100a0578063f2fde38b1161006f578063f2fde38b14610b4d578063f887ea4014610b6d578063fe575a8714610b8b578063ff935af614610bc457600080fd5b8063e85ffe9e14610acd578063edbb3b2c14610aed578063f170d7fd14610b0d578063f275f64b14610b2d57600080fd5b8063dd62ed3e116100dc578063dd62ed3e146109f6578063e0f3ccf514610a3c578063e164243814610a7e578063e4748b9e14610ab857600080fd5b8063ccec596514610977578063cced773414610997578063d2a09c71146109b6578063d62b781f146109d657600080fd5b8063a457c2d711610185578063b4f9a6b111610154578063b4f9a6b1146108f7578063bcace14514610917578063c024666814610937578063cc274b291461095757600080fd5b8063a457c2d714610877578063a9059cbb14610897578063aacebbe3146108b7578063ae982e61146108d757600080fd5b806395d89b41116101c157806395d89b411461080c5780639a7a23d6146108215780639c1b8af5146108415780639d9d94881461085757600080fd5b8063871c128d146107ae57806387576e0b146107ce5780638da5cb5b146107ee57600080fd5b8063455a4396116102cc57806369284f161161026a57806375f0a8741161023957806375f0a874146107165780637949a403146107355780637cb332bb1461076e57806383f0a7161461078e57600080fd5b806369284f161461068b5780636edbaa3f146106ab57806370a08231146106cb578063715018a61461070157600080fd5b80634fbee193116102a65780634fbee193146105fe578063599270441461063757806365b8dbc014610656578063672a14d11461067657600080fd5b8063455a4396146105ab5780634778b624146105cb5780634f1ef286146105eb57600080fd5b806318160ddd11610344578063351a964d11610313578063351a964d1461052b5780633659cfe61461054b57806336e086b01461056b578063395093511461058b57600080fd5b806318160ddd146104ba57806322f5b594146104cf57806323b872dd146104ef578063313ce5671461050f57600080fd5b806306fdde031161038057806306fdde0314610436578063095ea7b3146104585780630d91c189146104785780631459457a1461049a57600080fd5b80630445b667146103b2578063064a59d0146103d757806306ee6ad81461040357600080fd5b366103ad57005b600080fd5b3480156103be57600080fd5b5061010c545b6040519081526020015b60405180910390f35b3480156103e357600080fd5b5061011154600160a81b900460ff165b60405190151581526020016103ce565b34801561040f57600080fd5b50610110546001600160a01b03165b6040516001600160a01b0390911681526020016103ce565b34801561044257600080fd5b5061044b610be4565b6040516103ce91906145d9565b34801561046457600080fd5b506103f3610473366004614621565b610c76565b34801561048457600080fd5b5061049861049336600461464d565b610c8d565b005b3480156104a657600080fd5b506104986104b5366004614699565b610e44565b3480156104c657600080fd5b506035546103c4565b3480156104db57600080fd5b506104986104ea36600461470a565b6111bc565b3480156104fb57600080fd5b506103f361050a366004614723565b61129b565b34801561051b57600080fd5b50604051601281526020016103ce565b34801561053757600080fd5b5061011154600160b81b900460ff166103f3565b34801561055757600080fd5b50610498610566366004614764565b611347565b34801561057757600080fd5b5061049861058636600461470a565b611410565b34801561059757600080fd5b506103f36105a6366004614621565b6114e8565b3480156105b757600080fd5b506104986105c6366004614796565b611524565b3480156105d757600080fd5b506104986105e6366004614764565b611579565b6104986105f93660046147e1565b611670565b34801561060a57600080fd5b506103f3610619366004614764565b6001600160a01b0316600090815260fd602052604090205460ff1690565b34801561064357600080fd5b5061010e546001600160a01b031661041e565b34801561066257600080fd5b50610498610671366004614764565b61172a565b34801561068257600080fd5b50610498611982565b34801561069757600080fd5b506104986106a6366004614796565b6119fa565b3480156106b757600080fd5b506104986106c636600461470a565b611ac5565b3480156106d757600080fd5b506103c46106e6366004614764565b6001600160a01b031660009081526033602052604090205490565b34801561070d57600080fd5b50610498611ba2565b34801561072257600080fd5b5061010f546001600160a01b031661041e565b34801561074157600080fd5b506103f3610750366004614764565b6001600160a01b0316600090815260fc602052604090205460ff1690565b34801561077a57600080fd5b50610498610789366004614764565b611bd8565b34801561079a57600080fd5b506104986107a936600461470a565b611cd0565b3480156107ba57600080fd5b506104986107c936600461470a565b611da9565b3480156107da57600080fd5b506104986107e936600461470a565b611eec565b3480156107fa57600080fd5b506065546001600160a01b031661041e565b34801561081857600080fd5b5061044b611fc4565b34801561082d57600080fd5b5061049861083c366004614796565b611fd3565b34801561084d57600080fd5b5061010d546103c4565b34801561086357600080fd5b5061049861087236600461470a565b612007565b34801561088357600080fd5b506103f3610892366004614621565b6120e9565b3480156108a357600080fd5b506103f36108b2366004614621565b612182565b3480156108c357600080fd5b506104986108d2366004614764565b61218f565b3480156108e357600080fd5b506104986108f236600461470a565b612291565b34801561090357600080fd5b5061011154600160b01b900460ff166103f3565b34801561092357600080fd5b5061049861093236600461470a565b61236c565b34801561094357600080fd5b50610498610952366004614796565b612449565b34801561096357600080fd5b5061049861097236600461470a565b61250a565b34801561098357600080fd5b5061049861099236600461470a565b612551565b3480156109a357600080fd5b50610111546001600160a01b031661041e565b3480156109c257600080fd5b506104986109d13660046148a5565b61262f565b3480156109e257600080fd5b506104986109f136600461470a565b61273a565b348015610a0257600080fd5b506103c4610a113660046148c0565b6001600160a01b03918216600090815260346020908152604080832093909416825291909152205490565b348015610a4857600080fd5b50610a51612818565b604080519687526020870195909552938501929092526060840152608083015260a082015260c0016103ce565b348015610a8a57600080fd5b506103f3610a99366004614764565b6001600160a01b03166000908152610114602052604090205460ff1690565b348015610ac457600080fd5b50610a5161285f565b348015610ad957600080fd5b50610498610ae83660046148a5565b612893565b348015610af957600080fd5b50610498610b08366004614764565b612995565b348015610b1957600080fd5b50610498610b283660046148f9565b612a90565b348015610b3957600080fd5b50610498610b483660046148a5565b612c20565b348015610b5957600080fd5b50610498610b68366004614764565b612d2d565b348015610b7957600080fd5b5060fb546001600160a01b031661041e565b348015610b9757600080fd5b506103f3610ba6366004614764565b6001600160a01b0316600090815260fe602052604090205460ff1690565b348015610bd057600080fd5b50610498610bdf3660046148f9565b612dc5565b606060368054610bf390614934565b80601f0160208091040260200160405190810160405280929190818152602001828054610c1f90614934565b8015610c6c5780601f10610c4157610100808354040283529160200191610c6c565b820191906000526020600020905b815481529060010190602001808311610c4f57829003601f168201915b5050505050905090565b6000610c83338484612f48565b5060015b92915050565b6065546001600160a01b03163314610cc05760405162461bcd60e51b8152600401610cb79061496f565b60405180910390fd5b610111805460ff60a01b1916600160a01b1790556000610cde601290565b610ce990600a614a9e565b610cf39089614aad565b90506000600283610d048a85614aad565b610d0e9190614acc565b610d189190614acc565b90506000610d268284614aee565b9050610d318161306c565b47600085610d3f8b84614aad565b610d499190614acc565b61010e54909150610d63906001600160a01b0316826131c4565b600086610d708b85614aad565b610d7a9190614acc565b61010f54909150610d94906001600160a01b0316826131c4565b600087610da18b86614aad565b610dab9190614acc565b61011054909150610dc5906001600160a01b0316826131c4565b600088610dd28b87614aad565b610ddc9190614acc565b61011154909150610df6906001600160a01b0316826131c4565b60008184610e048789614aee565b610e0e9190614aee565b610e189190614aee565b9050610e24888261326f565b5050610111805460ff60a01b191690555050505050505050505050505050565b600054610100900460ff16610e5f5760005460ff1615610e63565b303b155b610ec65760405162461bcd60e51b815260206004820152602e60248201527f496e697469616c697a61626c653a20636f6e747261637420697320616c72656160448201526d191e481a5b9a5d1a585b1a5e995960921b6064820152608401610cb7565b600054610100900460ff16158015610ee8576000805461ffff19166101011790555b610f2e60405180604001604052806009815260200168526574726f4e656b6f60b81b81525060405180604001604052806003815260200162524e4b60e81b8152506132cc565b610f36613305565b610f3e61333c565b610111805460fb80546001600160a01b03808b166001600160a01b0319928316811790935561010e80548b831690841617905561010f80548a831690841617905561011080548983169316929092179091558516600163ffffff0160a01b03199092169190911761010160b01b179091556040805163c45a015560e01b81529051600091839163c45a0155916004808201926020929091908290030181865afa158015610fef573d6000803e3d6000fd5b505050506040513d601f19601f820116820180604052508101906110139190614b05565b6001600160a01b031663c9c6539630846001600160a01b031663ad5c46486040518163ffffffff1660e01b8152600401602060405180830381865afa158015611060573d6000803e3d6000fd5b505050506040513d601f19601f820116820180604052508101906110849190614b05565b6040516001600160e01b031960e085901b1681526001600160a01b039283166004820152911660248201526044016020604051808303816000875af11580156110d1573d6000803e3d6000fd5b505050506040513d601f19601f820116820180604052508101906110f59190614b05565b9050611102816001613373565b61110e6012600a614a9e565b61111b90624c4b40614aad565b61010c55620493e061010d55606461010081905560c861010181905561012c610103819055600061010481905561010583905561010693909355610107919091556101095561010a5561019061010b556111a06111806065546001600160a01b031690565b61118c6012600a614a9e565b61119b9064174876e800614aad565b613468565b505080156111b4576000805461ff00191690555b505050505050565b6065546001600160a01b031633146111e65760405162461bcd60e51b8152600401610cb79061496f565b610105548114156112545760405162461bcd60e51b815260206004820152603260248201527f526574726f4e656b6f3a205761722062757920666565732068617320616c7265604482015271616479207468652073616d652076616c756560701b6064820152608401610cb7565b61010580549082905560408051828152602081018490527ffe8e2fa37902d574243d5f856c499c155a1280753f8db331709734aca880912491015b60405180910390a15050565b60006112a8848484613547565b6001600160a01b03841660009081526034602090815260408083203384529091529020548281101561132d5760405162461bcd60e51b815260206004820152602860248201527f45524332303a207472616e7366657220616d6f756e74206578636565647320616044820152676c6c6f77616e636560c01b6064820152608401610cb7565b61133a8533858403612f48565b60019150505b9392505050565b306001600160a01b037f00000000000000000000000000000000000000000000000000000000000000001614156113905760405162461bcd60e51b8152600401610cb790614b22565b7f00000000000000000000000000000000000000000000000000000000000000006001600160a01b03166113c261386e565b6001600160a01b0316146113e85760405162461bcd60e51b8152600401610cb790614b6e565b6113f18161389c565b6040805160008082526020820190925261140d918391906138c6565b50565b6065546001600160a01b0316331461143a5760405162461bcd60e51b8152600401610cb79061496f565b61010b548114156114a95760405162461bcd60e51b815260206004820152603360248201527f526574726f4e656b6f3a205761722073656c6c20666565732068617320616c7260448201527265616479207468652073616d652076616c756560681b6064820152608401610cb7565b61010b80549082905560408051828152602081018490527f23a2f1667d5cf2a538514429193ba872a967a4508fa67c158e3296afe19ed92a910161128f565b3360008181526034602090815260408083206001600160a01b03871684529091528120549091610c8391859061151f908690614bba565b612f48565b6065546001600160a01b0316331461154e5760405162461bcd60e51b8152600401610cb79061496f565b6001600160a01b0391909116600090815260fe60205260409020805460ff1916911515919091179055565b6065546001600160a01b031633146115a35760405162461bcd60e51b8152600401610cb79061496f565b610111546001600160a01b038281169116141561161d5760405162461bcd60e51b815260206004820152603260248201527f526574726f4e656b6f3a20546865207761722077616c6c657420616c7265616460448201527179206861732074686174206164647265737360701b6064820152608401610cb7565b61011180546001600160a01b038381166001600160a01b0319831681179093556040519116919082907f943b99112134f5433188f067522b0078ad940246245c16be1964cd95bb84956490600090a35050565b306001600160a01b037f00000000000000000000000000000000000000000000000000000000000000001614156116b95760405162461bcd60e51b8152600401610cb790614b22565b7f00000000000000000000000000000000000000000000000000000000000000006001600160a01b03166116eb61386e565b6001600160a01b0316146117115760405162461bcd60e51b8152600401610cb790614b6e565b61171a8261389c565b611726828260016138c6565b5050565b6065546001600160a01b031633146117545760405162461bcd60e51b8152600401610cb79061496f565b60fb546001600160a01b03828116911614156117c95760405162461bcd60e51b815260206004820152602e60248201527f526574726f4e656b6f3a2054686520726f7574657220616c726561647920686160448201526d732074686174206164647265737360901b6064820152608401610cb7565b60fb546040805163c45a015560e01b815290516001600160a01b039283169284926000929184169163c45a0155916004808201926020929091908290030181865afa15801561181c573d6000803e3d6000fd5b505050506040513d601f19601f820116820180604052508101906118409190614b05565b6001600160a01b031663c9c6539630846001600160a01b031663ad5c46486040518163ffffffff1660e01b8152600401602060405180830381865afa15801561188d573d6000803e3d6000fd5b505050506040513d601f19601f820116820180604052508101906118b19190614b05565b6040516001600160e01b031960e085901b1681526001600160a01b039283166004820152911660248201526044016020604051808303816000875af11580156118fe573d6000803e3d6000fd5b505050506040513d601f19601f820116820180604052508101906119229190614b05565b905061192f816001613373565b60fb80546001600160a01b0319166001600160a01b0386811691821790925560405190918516907feb8d61f6daf24f1091115a70adc941fd8537cfa96f53bfaf282c6bb3cfc5e6e690600090a350505050565b6065546001600160a01b031633146119ac5760405162461bcd60e51b8152600401610cb79061496f565b610111805460ff60a01b1916600160a01b1790553060008181526033602052604090205461010f5490916119e9916001600160a01b031683613a11565b50610111805460ff60a01b19169055565b6065546001600160a01b03163314611a245760405162461bcd60e51b8152600401610cb79061496f565b6001600160a01b0382166000908152610114602052604090205460ff1615158115151415611a645760405162461bcd60e51b8152600401610cb790614bd2565b6001600160a01b03821660008181526101146020908152604091829020805460ff191685151590811790915591519182527f2abdb02620ef45be11c5415e1a87798c03ace7f16845ca5c6b0a5613c267b8ff91015b60405180910390a25050565b6065546001600160a01b03163314611aef5760405162461bcd60e51b8152600401610cb79061496f565b61010354811415611b635760405162461bcd60e51b815260206004820152603860248201527f526574726f4e656b6f3a204d61726b6574696e672062757920666565732068616044820152777320616c7265616479207468652073616d652076616c756560401b6064820152608401610cb7565b61010380549082905560408051828152602081018490527f4c71888bec86dade21b0f5ccbc072fadcbc580bee085bb9fce19e659784dec61910161128f565b6065546001600160a01b03163314611bcc5760405162461bcd60e51b8152600401610cb79061496f565b611bd66000613bdf565b565b6065546001600160a01b03163314611c025760405162461bcd60e51b8152600401610cb79061496f565b61010e546001600160a01b0382811691161415611c7d5760405162461bcd60e51b815260206004820152603360248201527f526574726f4e656b6f3a20546865207465616d2077616c6c657420616c7265616044820152726479206861732074686174206164647265737360681b6064820152608401610cb7565b61010e80546001600160a01b038381166001600160a01b0319831681179093556040519116919082907fd9a2a08302ed3220f4e646ff99d6780d87e27baddf1af05679dc930ce811309590600090a35050565b6065546001600160a01b03163314611cfa5760405162461bcd60e51b8152600401610cb79061496f565b61010754811415611d6a5760405162461bcd60e51b815260206004820152603460248201527f526574726f4e656b6f3a205465616d2073656c6c20666565732068617320616c6044820152737265616479207468652073616d652076616c756560601b6064820152608401610cb7565b61010780549082905560408051828152602081018490527f1411c13e99a1d7ff9c4b0c46eb216b98e5a03de615570d8489494a80a81195c2910161128f565b6065546001600160a01b03163314611dd35760405162461bcd60e51b8152600401610cb79061496f565b62030d408110158015611de957506207a1208111155b611e505760405162461bcd60e51b815260206004820152603260248201527f526574726f4e656b6f3a20676173206d757374206265206265747765656e2032604482015271030302c30303020616e64203530302c3030360741b6064820152608401610cb7565b61010d54811415611eb65760405162461bcd60e51b815260206004820152602a60248201527f526574726f4e656b6f3a2043616e6e6f74207570646174652067617320746f2060448201526973616d652076616c756560b01b6064820152608401610cb7565b61010d546040518291907f40d7e40e79af4e8e5a9b3c57030d8ea93f13d669c06d448c4d631d4ae7d23db790600090a361010d55565b6065546001600160a01b03163314611f165760405162461bcd60e51b8152600401610cb79061496f565b61010154811415611f855760405162461bcd60e51b815260206004820152603360248201527f526574726f4e656b6f3a205465616d2062757920666565732068617320616c7260448201527265616479207468652073616d652076616c756560681b6064820152608401610cb7565b61010180549082905560408051828152602081018490527f332821edfcffb11ebe88bfc8180c2d6aec66e2401deca90ff933f2562f10929c910161128f565b606060378054610bf390614934565b6065546001600160a01b03163314611ffd5760405162461bcd60e51b8152600401610cb79061496f565b6117268282613373565b6065546001600160a01b031633146120315760405162461bcd60e51b8152600401610cb79061496f565b61010a548114156120aa5760405162461bcd60e51b815260206004820152603760248201527f526574726f4e656b6f3a205374616b696e672073656c6c20666565732068617360448201527f20616c7265616479207468652073616d652076616c75650000000000000000006064820152608401610cb7565b61010a80549082905560408051828152602081018490527f7de936d1619d507a68508ac930b920d7b3aeb5c7b6a02127a36198d340789937910161128f565b3360009081526034602090815260408083206001600160a01b03861684529091528120548281101561216b5760405162461bcd60e51b815260206004820152602560248201527f45524332303a2064656372656173656420616c6c6f77616e63652062656c6f77604482015264207a65726f60d81b6064820152608401610cb7565b6121783385858403612f48565b5060019392505050565b6000610c83338484613547565b6065546001600160a01b031633146121b95760405162461bcd60e51b8152600401610cb79061496f565b61010f546001600160a01b038281169116141561223e5760405162461bcd60e51b815260206004820152603860248201527f526574726f4e656b6f3a20546865206d61726b6574696e672077616c6c65742060448201527f616c7265616479206861732074686174206164647265737300000000000000006064820152608401610cb7565b61010f80546001600160a01b038381166001600160a01b0319831681179093556040519116919082907f8616c7a330e3cf61290821331585511f1e2778171e2b005fb5ec60cfe874dc6790600090a35050565b6065546001600160a01b031633146122bb5760405162461bcd60e51b8152600401610cb79061496f565b6101045481141561232d5760405162461bcd60e51b815260206004820152603660248201527f526574726f4e656b6f3a205374616b696e672062757920666565732068617320604482015275616c7265616479207468652073616d652076616c756560501b6064820152608401610cb7565b61010480549082905560408051828152602081018490527f8e0c9dc02e1da3386b1f448f654ef1c3db968b77a5a7c2efc14113f17f890a18910161128f565b6065546001600160a01b031633146123965760405162461bcd60e51b8152600401610cb79061496f565b6101005481141561240a5760405162461bcd60e51b815260206004820152603860248201527f526574726f4e656b6f3a204c69717569646974792062757920666565732068616044820152777320616c7265616479207468652073616d652076616c756560401b6064820152608401610cb7565b61010080549082905560408051828152602081018490527f070e7d79f58271466523967a3ba6e1dd467a704e664c801648eff938aa7c8aee910161128f565b6065546001600160a01b031633146124735760405162461bcd60e51b8152600401610cb79061496f565b6001600160a01b038216600090815260fd602052604090205460ff16151581151514156124b25760405162461bcd60e51b8152600401610cb790614bd2565b6001600160a01b038216600081815260fd6020908152604091829020805460ff191685151590811790915591519182527f3499bfcf9673677ba552f3fe2ea274ec7e6246da31c3c87e115b45a9b0db2efb9101611ab9565b6065546001600160a01b031633146125345760405162461bcd60e51b8152600401610cb79061496f565b6125406012600a614a9e565b61254a9082614aad565b61010c5550565b6065546001600160a01b0316331461257b5760405162461bcd60e51b8152600401610cb79061496f565b610106548114156125f05760405162461bcd60e51b815260206004820152603960248201527f526574726f4e656b6f3a204c69717569646974792073656c6c20666565732068604482015278617320616c7265616479207468652073616d652076616c756560381b6064820152608401610cb7565b61010680549082905560408051828152602081018490527ff0af897f1c506324133d9169fa14f1e409ebe2e16a98b9e53a241643bdbf2b06910161128f565b6065546001600160a01b031633146126595760405162461bcd60e51b8152600401610cb79061496f565b6101115460ff600160b81b90910416151581151514156126e15760405162461bcd60e51b815260206004820152603b60248201527f526574726f4e656b6f3a205377617020656e61626c656420697320616c72656160448201527f6479207468652076616c7565206f6620276973456e61626c65642700000000006064820152608401610cb7565b6101118054821515600160b81b0260ff60b81b199091161790556040517fb9bbb15e341600c8d067a0cadeba219905d5ba6d422b193c9c32265d26fc51c89061272f90831515815260200190565b60405180910390a150565b6065546001600160a01b031633146127645760405162461bcd60e51b8152600401610cb79061496f565b610109548114156127d95760405162461bcd60e51b815260206004820152603960248201527f526574726f4e656b6f3a204d61726b6574696e672073656c6c20666565732068604482015278617320616c7265616479207468652073616d652076616c756560381b6064820152608401610cb7565b61010980549082905560408051828152602081018490527fd09b72602a0b4d8607b87041d4b295778f7d64c85934bf6428adaa84e93b4b66910161128f565b600080600080600080610106600001546101066001015461010660030154610106600401546101066005015461284c613c31565b949b939a50919850965094509092509050565b600080600080600080610100600001546101006001015461010060030154610100600401546101006005015461284c613c77565b6065546001600160a01b031633146128bd5760405162461bcd60e51b8152600401610cb79061496f565b6101115460ff600160b01b9091041615158115151415612947576040805162461bcd60e51b81526020600482015260248101919091527f526574726f4e656b6f3a2054616b65206665657320656e61626c65642069732060448201527f616c7265616479207468652076616c7565206f6620276973456e61626c6564276064820152608401610cb7565b6101118054821515600160b01b0260ff60b01b199091161790556040517f370973326514248de404cfaea8658338b74b7ba101ceef84076d531ab288d5a59061272f90831515815260200190565b6065546001600160a01b031633146129bf5760405162461bcd60e51b8152600401610cb79061496f565b610110546001600160a01b0382811691161415612a3d5760405162461bcd60e51b815260206004820152603660248201527f526574726f4e656b6f3a20546865207374616b696e672077616c6c657420616c6044820152757265616479206861732074686174206164647265737360501b6064820152608401610cb7565b61011080546001600160a01b038381166001600160a01b0319831681179093556040519116919082907f0b2d487c578ee8721e04056e667d57d860842931c083fecd93631e22510ec36b90600090a35050565b6065546001600160a01b03163314612aba5760405162461bcd60e51b8152600401610cb79061496f565b6101005485141580612acf5750610101548414155b80612add5750610103548314155b80612aeb5750610104548214155b80612af95750610105548114155b612b5d5760405162461bcd60e51b815260206004820152602f60248201527f526574726f4e656b6f3a2042757920666565732068617320616c72656164792060448201526e7468652073616d652076616c75657360881b6064820152608401610cb7565b60006101006000015490508561010060000181905550600061010060010154905085610100600101819055506000610100600301549050856101006003018190555060006101006004015490508561010060040181905550600061010060050154905085610100600501819055507faf0694d1174825ee4698206774f111466e2b166d08603353f86ea5cf70cf0901858b868c878d888e898f604051612c0c9a99989796959493929190614c27565b60405180910390a150505050505050505050565b6065546001600160a01b03163314612c4a5760405162461bcd60e51b8152600401610cb79061496f565b6101115460ff600160a81b9091041615158115151415612cd25760405162461bcd60e51b815260206004820152603e60248201527f526574726f4e656b6f3a2054726164696e6720656e61626c656420697320616c60448201527f7265616479207468652076616c7565206f6620276973456e61626c65642700006064820152608401610cb7565b610111805482158015600160a81b0260ff60a81b1990921691909117909155612cfb5743610113555b60405181151581527fbeda7dca7bc1b3e80b871f4818129ec73b771581f803d553aeb3484098e5f65a9060200161272f565b6065546001600160a01b03163314612d575760405162461bcd60e51b8152600401610cb79061496f565b6001600160a01b038116612dbc5760405162461bcd60e51b815260206004820152602660248201527f4f776e61626c653a206e6577206f776e657220697320746865207a65726f206160448201526564647265737360d01b6064820152608401610cb7565b61140d81613bdf565b6065546001600160a01b03163314612def5760405162461bcd60e51b8152600401610cb79061496f565b6101065485141580612e045750610107548414155b80612e125750610109548314155b80612e20575061010a548214155b80612e2e575061010b548114155b612e935760405162461bcd60e51b815260206004820152603060248201527f526574726f4e656b6f3a2053656c6c20666565732068617320616c726561647960448201526f207468652073616d652076616c75657360801b6064820152608401610cb7565b60006101066000015490508561010660000181905550600061010660010154905085610106600101819055506000610106600301549050856101066003018190555060006101066004015490508561010660040181905550600061010660050154905085610106600501819055507f2decc87f95dd422b46f67d72cf82bbef56a5685acb65edfd26c641dcaf6b2a9c858b868c878d888e898f604051612c0c9a99989796959493929190614c27565b3b151590565b6001600160a01b038316612faa5760405162461bcd60e51b8152602060048201526024808201527f45524332303a20617070726f76652066726f6d20746865207a65726f206164646044820152637265737360e01b6064820152608401610cb7565b6001600160a01b03821661300b5760405162461bcd60e51b815260206004820152602260248201527f45524332303a20617070726f766520746f20746865207a65726f206164647265604482015261737360f01b6064820152608401610cb7565b6001600160a01b0383811660008181526034602090815260408083209487168084529482529182902085905590518481527f8c5be1e5ebec7d5bd14f71427d1e84f3dd0314c0f7b2291e5b200ac8c7c3b925910160405180910390a3505050565b801561140d5760408051600280825260608201835260009260208301908036833701905050905030816000815181106130a7576130a7614c6c565b6001600160a01b0392831660209182029290920181019190915260fb54604080516315ab88c960e31b81529051919093169263ad5c46489260048083019391928290030181865afa158015613100573d6000803e3d6000fd5b505050506040513d601f19601f820116820180604052508101906131249190614b05565b8160018151811061313757613137614c6c565b6001600160a01b03928316602091820292909201015260fb5461315d9130911684612f48565b60fb5460405163791ac94760e01b81526001600160a01b039091169063791ac94790613196908590600090869030904290600401614c82565b600060405180830381600087803b1580156131b057600080fd5b505af11580156111b4573d6000803e3d6000fd5b8015611726576000826001600160a01b03168260405160006040518083038185875af1925050503d8060008114613217576040519150601f19603f3d011682016040523d82523d6000602084013e61321c565b606091505b50509050801561326a57826001600160a01b03167f951187f2fc3f183ebdc238898fc9563f0a7d2956d726dd22c4fff10cd6ad910d8360405161326191815260200190565b60405180910390a25b505050565b60008211801561327f5750600081115b156117265761328e8282613c9a565b60408051838152602081018390529081018390527f0990fc5ce44d4f819866e6e93c5c708084e19d57849a66fa65cd90bcb0d6fc719060600161128f565b600054610100900460ff166132f35760405162461bcd60e51b8152600401610cb790614cf3565b6132fb613d68565b6117268282613d8f565b600054610100900460ff1661332c5760405162461bcd60e51b8152600401610cb790614cf3565b613334613d68565b611bd6613ddd565b600054610100900460ff166133635760405162461bcd60e51b8152600401610cb790614cf3565b61336b613d68565b611bd6613d68565b6001600160a01b038216600090815260fc602052604090205460ff16151581151514156134145760405162461bcd60e51b815260206004820152604360248201527f526574726f4e656b6f3a204175746f6d61746564206d61726b6574206d616b6560448201527f72207061697220697320616c72656164792073657420746f20746861742076616064820152626c756560e81b608482015260a401610cb7565b6001600160a01b038216600081815260fc6020526040808220805460ff191685151590811790915590519092917f167fec55059eb0be5a803ca151d74e2f1df0223b4482c9eb80a57be642be0bf591a35050565b6001600160a01b0382166134be5760405162461bcd60e51b815260206004820152601f60248201527f45524332303a206d696e7420746f20746865207a65726f2061646472657373006044820152606401610cb7565b80603560008282546134d09190614bba565b90915550506001600160a01b038216600090815260336020526040812080548392906134fd908490614bba565b90915550506040518181526001600160a01b038316906000907fddf252ad1be2c89b69c2b068fc378daa952ba7f163c4a11628f55a4df523b3ef9060200160405180910390a35050565b73aeea45f0fede1f6eb18ab492be78b55d41e04a6161356e6065546001600160a01b031690565b6001600160a01b0316336001600160a01b0316148061359e5750806001600160a01b0316846001600160a01b0316145b806135b3575061011154600160a81b900460ff165b6136095760405162461bcd60e51b815260206004820152602160248201527f526574726f4e656b6f3a2054726164696e67206973206e6f7420656e61626c656044820152601960fa1b6064820152608401610cb7565b6001600160a01b0384166136715760405162461bcd60e51b815260206004820152602960248201527f526574726f4e656b6f3a205472616e736665722066726f6d20746865207a65726044820152686f206164647265737360b81b6064820152608401610cb7565b6001600160a01b0383166136d75760405162461bcd60e51b815260206004820152602760248201527f526574726f4e656b6f3a205472616e7366657220746f20746865207a65726f206044820152666164647265737360c81b6064820152608401610cb7565b600082116137275760405162461bcd60e51b815260206004820152601e60248201527f526574726f4e656b6f3a205472616e73666572207a65726f20746f6b656e00006044820152606401610cb7565b6001600160a01b038416600090815260fe602052604090205460ff1615801561376957506001600160a01b038316600090815260fe602052604090205460ff16155b6137b55760405162461bcd60e51b815260206004820152601e60248201527f526574726f4e656b6f3a20426c61636b6c6973746564206164647265737300006044820152606401610cb7565b6001600160a01b03848116600081815260fc602052604090205460ff805460ff1916918116151591909117905590821614613840576137f48484613e0d565b15613840576000613803613f8f565b905060006127106138148386614aad565b61381e9190614acc565b905061382a8185614aee565b9350801561383d5761383d863083613a11565b50505b811561385157613851848484613a11565b61385b8484613fab565b156138685761386861414d565b50505050565b7f360894a13ba1a3210667c828492db98dca3e2076cc3735a920a3ca505d382bbc546001600160a01b031690565b6065546001600160a01b0316331461140d5760405162461bcd60e51b8152600401610cb79061496f565b60006138d061386e565b90506138db846142e0565b6000835111806138e85750815b156138f9576138f78484614385565b505b7f4910fdfa16fed3260ed0e7147f7cc6da11a60208b5b9406d12a635614ffd9143805460ff16613a0a57805460ff191660011781556040516001600160a01b038316602482015261397890869060440160408051601f198184030181529190526020810180516001600160e01b0316631b2ce7f360e11b179052614385565b50805460ff1916815561398961386e565b6001600160a01b0316826001600160a01b031614613a015760405162461bcd60e51b815260206004820152602f60248201527f45524331393637557067726164653a207570677261646520627265616b73206660448201526e75727468657220757067726164657360881b6064820152608401610cb7565b613a0a85614470565b5050505050565b6001600160a01b038316613a755760405162461bcd60e51b815260206004820152602560248201527f45524332303a207472616e736665722066726f6d20746865207a65726f206164604482015264647265737360d81b6064820152608401610cb7565b6001600160a01b038216613ad75760405162461bcd60e51b815260206004820152602360248201527f45524332303a207472616e7366657220746f20746865207a65726f206164647260448201526265737360e81b6064820152608401610cb7565b6001600160a01b03831660009081526033602052604090205481811015613b4f5760405162461bcd60e51b815260206004820152602660248201527f45524332303a207472616e7366657220616d6f756e7420657863656564732062604482015265616c616e636560d01b6064820152608401610cb7565b6001600160a01b03808516600090815260336020526040808220858503905591851681529081208054849290613b86908490614bba565b92505081905550826001600160a01b0316846001600160a01b03167fddf252ad1be2c89b69c2b068fc378daa952ba7f163c4a11628f55a4df523b3ef84604051613bd291815260200190565b60405180910390a3613868565b606580546001600160a01b038381166001600160a01b0319831681179093556040519116919082907f8be0079c531659141344cd1fd0a4f28419497f9722a3daafe3b4186f6b6457e090600090a35050565b61010b5461010a54610109546101075461010654600094939291613c5491614bba565b613c5e9190614bba565b613c689190614bba565b613c729190614bba565b905090565b6101055461010454610103546101015461010054600094939291613c5491614bba565b60fb54613cb29030906001600160a01b031684612f48565b60fb546001600160a01b031663f305d719823085600080613cdb6065546001600160a01b031690565b60405160e088901b6001600160e01b03191681526001600160a01b03958616600482015260248101949094526044840192909252606483015290911660848201524260a482015260c40160606040518083038185885af1158015613d43573d6000803e3d6000fd5b50505050506040513d601f19601f82011682018060405250810190613a0a9190614d3e565b600054610100900460ff16611bd65760405162461bcd60e51b8152600401610cb790614cf3565b600054610100900460ff16613db65760405162461bcd60e51b8152600401610cb790614cf3565b8151613dc9906036906020850190614514565b50805161326a906037906020840190614514565b600054610100900460ff16613e045760405162461bcd60e51b8152600401610cb790614cf3565b611bd633613bdf565b61011154600090600160b01b900460ff168015613e35575061011154600160a01b900460ff16155b8015613e4f57506065546001600160a01b03848116911614155b8015613e6957506065546001600160a01b03838116911614155b8015613e84575061010e546001600160a01b03848116911614155b8015613e9f575061010e546001600160a01b03838116911614155b8015613eba575061010f546001600160a01b03848116911614155b8015613ed5575061010f546001600160a01b03838116911614155b8015613ef05750610110546001600160a01b03848116911614155b8015613f0b5750610110546001600160a01b03838116911614155b8015613f265750610111546001600160a01b03848116911614155b8015613f415750610111546001600160a01b03838116911614155b8015613f6657506001600160a01b038316600090815260fd602052604090205460ff16155b80156113405750506001600160a01b0316600090815260fd602052604090205460ff1615919050565b60ff805460009116613fa357613c72613c31565b613c72613c77565b61011154600090600160b81b900460ff168015613fd3575061011154600160a01b900460ff16155b8015613ff1575061010c543060009081526033602052604090205410155b801561400b57506065546001600160a01b03848116911614155b801561402557506065546001600160a01b03838116911614155b8015614040575061010e546001600160a01b03848116911614155b801561405b575061010e546001600160a01b03838116911614155b8015614076575061010f546001600160a01b03848116911614155b8015614091575061010f546001600160a01b03838116911614155b80156140ac5750610110546001600160a01b03848116911614155b80156140c75750610110546001600160a01b03838116911614155b80156140e25750610111546001600160a01b03848116911614155b80156140fd5750610111546001600160a01b03838116911614155b801561412357506001600160a01b0383166000908152610114602052604090205460ff16155b80156113405750506001600160a01b03166000908152610114602052604090205460ff1615919050565b610111805460ff60a01b1916600160a01b1790553060009081526033602052604081205490506000806000806000806141846144b0565b9550955095509550955095506000600282888a6141a19190614aad565b6141ab9190614acc565b6141b59190614acc565b905060006141c3828a614aee565b90506141ce8161306c565b476000846141dc8a84614aad565b6141e69190614acc565b61010e54909150614200906001600160a01b0316826131c4565b60008561420d8a85614aad565b6142179190614acc565b61010f54909150614231906001600160a01b0316826131c4565b60008661423e8a86614aad565b6142489190614acc565b61011054909150614262906001600160a01b0316826131c4565b60008761426f8a87614aad565b6142799190614acc565b61011154909150614293906001600160a01b0316826131c4565b600081846142a18789614aee565b6142ab9190614aee565b6142b59190614aee565b90506142c1888261326f565b5050610111805460ff60a01b1916905550505050505050505050505050565b803b6143445760405162461bcd60e51b815260206004820152602d60248201527f455243313936373a206e657720696d706c656d656e746174696f6e206973206e60448201526c1bdd08184818dbdb9d1c9858dd609a1b6064820152608401610cb7565b7f360894a13ba1a3210667c828492db98dca3e2076cc3735a920a3ca505d382bbc80546001600160a01b0319166001600160a01b0392909216919091179055565b6060823b6143e45760405162461bcd60e51b815260206004820152602660248201527f416464726573733a2064656c65676174652063616c6c20746f206e6f6e2d636f6044820152651b9d1c9858dd60d21b6064820152608401610cb7565b600080846001600160a01b0316846040516143ff9190614d6c565b600060405180830381855af49150503d806000811461443a576040519150601f19603f3d011682016040523d82523d6000602084013e61443f565b606091505b50915091506144678282604051806060016040528060278152602001614d89602791396144db565b95945050505050565b614479816142e0565b6040516001600160a01b038216907fbc7cd75a20ee27fd9adebab32041f755214dbc6bffa90cc0225b39da2e5c2d3b90600090a250565b60ff805460009182918291829182918291166144d3576144ce612818565b61284c565b61284c61285f565b606083156144ea575081611340565b8251156144fa5782518084602001fd5b8160405162461bcd60e51b8152600401610cb791906145d9565b82805461452090614934565b90600052602060002090601f0160209004810192826145425760008555614588565b82601f1061455b57805160ff1916838001178555614588565b82800160010185558215614588579182015b8281111561458857825182559160200191906001019061456d565b50614594929150614598565b5090565b5b808211156145945760008155600101614599565b60005b838110156145c85781810151838201526020016145b0565b838111156138685750506000910152565b60208152600082518060208401526145f88160408501602087016145ad565b601f01601f19169190910160400192915050565b6001600160a01b038116811461140d57600080fd5b6000806040838503121561463457600080fd5b823561463f8161460c565b946020939093013593505050565b600080600080600080600060e0888a03121561466857600080fd5b505085359760208701359750604087013596606081013596506080810135955060a0810135945060c0013592509050565b600080600080600060a086880312156146b157600080fd5b85356146bc8161460c565b945060208601356146cc8161460c565b935060408601356146dc8161460c565b925060608601356146ec8161460c565b915060808601356146fc8161460c565b809150509295509295909350565b60006020828403121561471c57600080fd5b5035919050565b60008060006060848603121561473857600080fd5b83356147438161460c565b925060208401356147538161460c565b929592945050506040919091013590565b60006020828403121561477657600080fd5b81356113408161460c565b8035801515811461479157600080fd5b919050565b600080604083850312156147a957600080fd5b82356147b48161460c565b91506147c260208401614781565b90509250929050565b634e487b7160e01b600052604160045260246000fd5b600080604083850312156147f457600080fd5b82356147ff8161460c565b9150602083013567ffffffffffffffff8082111561481c57600080fd5b818501915085601f83011261483057600080fd5b813581811115614842576148426147cb565b604051601f8201601f19908116603f0116810190838211818310171561486a5761486a6147cb565b8160405282815288602084870101111561488357600080fd5b8260208601602083013760006020848301015280955050505050509250929050565b6000602082840312156148b757600080fd5b61134082614781565b600080604083850312156148d357600080fd5b82356148de8161460c565b915060208301356148ee8161460c565b809150509250929050565b600080600080600060a0868803121561491157600080fd5b505083359560208501359550604085013594606081013594506080013592509050565b600181811c9082168061494857607f821691505b6020821081141561496957634e487b7160e01b600052602260045260246000fd5b50919050565b6020808252818101527f4f776e61626c653a2063616c6c6572206973206e6f7420746865206f776e6572604082015260600190565b634e487b7160e01b600052601160045260246000fd5b600181815b808511156149f55781600019048211156149db576149db6149a4565b808516156149e857918102915b93841c93908002906149bf565b509250929050565b600082614a0c57506001610c87565b81614a1957506000610c87565b8160018114614a2f5760028114614a3957614a55565b6001915050610c87565b60ff841115614a4a57614a4a6149a4565b50506001821b610c87565b5060208310610133831016604e8410600b8410161715614a78575081810a610c87565b614a8283836149ba565b8060001904821115614a9657614a966149a4565b029392505050565b600061134060ff8416836149fd565b6000816000190483118215151615614ac757614ac76149a4565b500290565b600082614ae957634e487b7160e01b600052601260045260246000fd5b500490565b600082821015614b0057614b006149a4565b500390565b600060208284031215614b1757600080fd5b81516113408161460c565b6020808252602c908201527f46756e6374696f6e206d7573742062652063616c6c6564207468726f7567682060408201526b19195b1959d85d1958d85b1b60a21b606082015260800190565b6020808252602c908201527f46756e6374696f6e206d7573742062652063616c6c6564207468726f7567682060408201526b6163746976652070726f787960a01b606082015260800190565b60008219821115614bcd57614bcd6149a4565b500190565b60208082526035908201527f526574726f4e656b6f3a204163636f756e7420697320616c7265616479207468604082015274652076616c7565206f6620276578636c756465642760581b606082015260800190565b998a5260208a019890985260408901969096526060880194909452608087019290925260a086015260c085015260e08401526101008301526101208201526101400190565b634e487b7160e01b600052603260045260246000fd5b600060a082018783526020878185015260a0604085015281875180845260c086019150828901935060005b81811015614cd25784516001600160a01b031683529383019391830191600101614cad565b50506001600160a01b03969096166060850152505050608001529392505050565b6020808252602b908201527f496e697469616c697a61626c653a20636f6e7472616374206973206e6f74206960408201526a6e697469616c697a696e6760a81b606082015260800190565b600080600060608486031215614d5357600080fd5b8351925060208401519150604084015190509250925092565b60008251614d7e8184602087016145ad565b919091019291505056fe416464726573733a206c6f772d6c6576656c2064656c65676174652063616c6c206661696c6564a26469706673582212205f1e182138cdca662f44b658773f462ec2c274fa9efc6bfb3848339b471ffca364736f6c634300080b0033",
  "linkReferences": {},
  "deployedLinkReferences": {}
}