{
  "_format": "hh-sol-artifact-1",
  "contractName": "RewardsCalculator",
  "sourceName": "contracts/staking/RewardsCalculator.sol",
  "abi": [
    {
      "inputs": [],
      "stateMutability": "nonpayable",
      "type": "constructor"
    },
    {
      "anonymous": false,
      "inputs": [
        {
          "indexed": false,
          "internalType": "address",
          "name": "previousAdmin",
          "type": "address"
        },
        {
          "indexed": false,
          "internalType": "address",
          "name": "newAdmin",
          "type": "address"
        }
      ],
      "name": "AdminChanged",
      "type": "event"
    },
    {
      "anonymous": false,
      "inputs": [
        {
          "indexed": true,
          "internalType": "address",
          "name": "beacon",
          "type": "address"
        }
      ],
      "name": "BeaconUpgraded",
      "type": "event"
    },
    {
      "anonymous": false,
      "inputs": [
        {
          "indexed": true,
          "internalType": "address",
          "name": "previousOwner",
          "type": "address"
        },
        {
          "indexed": true,
          "internalType": "address",
          "name": "newOwner",
          "type": "address"
        }
      ],
      "name": "OwnershipTransferred",
      "type": "event"
    },
    {
      "anonymous": false,
      "inputs": [
        {
          "indexed": true,
          "internalType": "address",
          "name": "implementation",
          "type": "address"
        }
      ],
      "name": "Upgraded",
      "type": "event"
    },
    {
      "inputs": [
        {
          "internalType": "address",
          "name": "stakeholder",
          "type": "address"
        },
        {
          "internalType": "uint256",
          "name": "amount",
          "type": "uint256"
        },
        {
          "internalType": "uint256",
          "name": "since",
          "type": "uint256"
        }
      ],
      "name": "computeDiamondRewards",
      "outputs": [
        {
          "internalType": "uint256",
          "name": "",
          "type": "uint256"
        }
      ],
      "stateMutability": "view",
      "type": "function"
    },
    {
      "inputs": [
        {
          "internalType": "address",
          "name": "stakeholder",
          "type": "address"
        },
        {
          "internalType": "uint256",
          "name": "amount",
          "type": "uint256"
        },
        {
          "internalType": "uint256",
          "name": "since",
          "type": "uint256"
        }
      ],
      "name": "computeGoldRewards",
      "outputs": [
        {
          "internalType": "uint256",
          "name": "",
          "type": "uint256"
        }
      ],
      "stateMutability": "view",
      "type": "function"
    },
    {
      "inputs": [
        {
          "internalType": "address",
          "name": "stakeholder",
          "type": "address"
        },
        {
          "internalType": "uint256",
          "name": "amount",
          "type": "uint256"
        },
        {
          "internalType": "uint256",
          "name": "since",
          "type": "uint256"
        }
      ],
      "name": "computeSilverRewards",
      "outputs": [
        {
          "internalType": "uint256",
          "name": "",
          "type": "uint256"
        }
      ],
      "stateMutability": "view",
      "type": "function"
    },
    {
      "inputs": [],
      "name": "diamondDailyRewardsRatePerTenThousand",
      "outputs": [
        {
          "internalType": "uint256",
          "name": "",
          "type": "uint256"
        }
      ],
      "stateMutability": "view",
      "type": "function"
    },
    {
      "inputs": [],
      "name": "goldDailyRewardsRatePerTenThousand",
      "outputs": [
        {
          "internalType": "uint256",
          "name": "",
          "type": "uint256"
        }
      ],
      "stateMutability": "view",
      "type": "function"
    },
    {
      "inputs": [],
      "name": "initialize",
      "outputs": [],
      "stateMutability": "nonpayable",
      "type": "function"
    },
    {
      "inputs": [],
      "name": "owner",
      "outputs": [
        {
          "internalType": "address",
          "name": "",
          "type": "address"
        }
      ],
      "stateMutability": "view",
      "type": "function"
    },
    {
      "inputs": [],
      "name": "renounceOwnership",
      "outputs": [],
      "stateMutability": "nonpayable",
      "type": "function"
    },
    {
      "inputs": [],
      "name": "silverDailyRewardsRatePerTenThousand",
      "outputs": [
        {
          "internalType": "uint256",
          "name": "",
          "type": "uint256"
        }
      ],
      "stateMutability": "view",
      "type": "function"
    },
    {
      "inputs": [
        {
          "internalType": "address",
          "name": "newOwner",
          "type": "address"
        }
      ],
      "name": "transferOwnership",
      "outputs": [],
      "stateMutability": "nonpayable",
      "type": "function"
    },
    {
      "inputs": [
        {
          "internalType": "uint256",
          "name": "dailyRatePerTenThousand",
          "type": "uint256"
        }
      ],
      "name": "updateDiamondRewardsRate",
      "outputs": [],
      "stateMutability": "nonpayable",
      "type": "function"
    },
    {
      "inputs": [
        {
          "internalType": "uint256",
          "name": "dailyRatePerTenThousand",
          "type": "uint256"
        }
      ],
      "name": "updateGoldRewardsRate",
      "outputs": [],
      "stateMutability": "nonpayable",
      "type": "function"
    },
    {
      "inputs": [
        {
          "internalType": "uint256",
          "name": "silverDailyRewardsRatePerTenThousand_",
          "type": "uint256"
        },
        {
          "internalType": "uint256",
          "name": "goldDailyRewardsRatePerTenThousand_",
          "type": "uint256"
        },
        {
          "internalType": "uint256",
          "name": "diamondDailyRewardsRatePerTenThousand_",
          "type": "uint256"
        }
      ],
      "name": "updateRewardsRates",
      "outputs": [],
      "stateMutability": "nonpayable",
      "type": "function"
    },
    {
      "inputs": [
        {
          "internalType": "uint256",
          "name": "dailyRatePerTenThousand",
          "type": "uint256"
        }
      ],
      "name": "updateSilverRewardsRate",
      "outputs": [],
      "stateMutability": "nonpayable",
      "type": "function"
    },
    {
      "inputs": [
        {
          "internalType": "address",
          "name": "newImplementation",
          "type": "address"
        }
      ],
      "name": "upgradeTo",
      "outputs": [],
      "stateMutability": "nonpayable",
      "type": "function"
    },
    {
      "inputs": [
        {
          "internalType": "address",
          "name": "newImplementation",
          "type": "address"
        },
        {
          "internalType": "bytes",
          "name": "data",
          "type": "bytes"
        }
      ],
      "name": "upgradeToAndCall",
      "outputs": [],
      "stateMutability": "payable",
      "type": "function"
    }
  ],
  "bytecode": "0x60a06040523060805234801561001457600080fd5b50600054610100900460ff166100305760005460ff1615610038565b6100386100d9565b61009f5760405162461bcd60e51b815260206004820152602e60248201527f496e697469616c697a61626c653a20636f6e747261637420697320616c72656160448201526d191e481a5b9a5d1a585b1a5e995960921b606482015260840160405180910390fd5b600054610100900460ff161580156100c1576000805461ffff19166101011790555b80156100d3576000805461ff00191690555b506100fa565b60006100ee306100f460201b6107ba1760201c565b15905090565b3b151590565b6080516111a361012a6000396000818161033001528181610370015281816103f9015261043901526111a36000f3fe6080604052600436106100f35760003560e01c80638da5cb5b1161008a578063daebe22511610059578063daebe2251461024d578063e25fad511461026d578063e6fbdce11461028d578063f2fde38b146102ad57600080fd5b80638da5cb5b146101c557806390d709e7146101ed5780639a7b5e241461020d578063c0050bcf1461022d57600080fd5b8063715018a6116100c6578063715018a6146101715780638129fc1c14610186578063872ff3161461019b5780638a70facf146101b057600080fd5b80630576fff8146100f8578063319000d01461011c5780633659cfe61461013e5780634f1ef2861461015e575b600080fd5b34801561010457600080fd5b5060cb545b6040519081526020015b60405180910390f35b34801561012857600080fd5b5061013c610137366004610cbf565b6102cd565b005b34801561014a57600080fd5b5061013c610159366004610cf4565b610325565b61013c61016c366004610d25565b6103ee565b34801561017d57600080fd5b5061013c6104a8565b34801561019257600080fd5b5061013c6104de565b3480156101a757600080fd5b5060ca54610109565b3480156101bc57600080fd5b5060c954610109565b3480156101d157600080fd5b506033546040516001600160a01b039091168152602001610113565b3480156101f957600080fd5b5061013c610208366004610de7565b6105b5565b34801561021957600080fd5b50610109610228366004610e13565b61064d565b34801561023957600080fd5b5061013c610248366004610cbf565b610666565b34801561025957600080fd5b50610109610268366004610e13565b6106b5565b34801561027957600080fd5b5061013c610288366004610cbf565b6106c4565b34801561029957600080fd5b506101096102a8366004610e13565b610713565b3480156102b957600080fd5b5061013c6102c8366004610cf4565b610722565b6033546001600160a01b031633146103005760405162461bcd60e51b81526004016102f790610e46565b60405180910390fd5b600081116103205760405162461bcd60e51b81526004016102f790610e7b565b60ca55565b306001600160a01b037f000000000000000000000000000000000000000000000000000000000000000016141561036e5760405162461bcd60e51b81526004016102f790610ecd565b7f00000000000000000000000000000000000000000000000000000000000000006001600160a01b03166103a06107c0565b6001600160a01b0316146103c65760405162461bcd60e51b81526004016102f790610f19565b6103cf816107ee565b604080516000808252602082019092526103eb91839190610818565b50565b306001600160a01b037f00000000000000000000000000000000000000000000000000000000000000001614156104375760405162461bcd60e51b81526004016102f790610ecd565b7f00000000000000000000000000000000000000000000000000000000000000006001600160a01b03166104696107c0565b6001600160a01b03161461048f5760405162461bcd60e51b81526004016102f790610f19565b610498826107ee565b6104a482826001610818565b5050565b6033546001600160a01b031633146104d25760405162461bcd60e51b81526004016102f790610e46565b6104dc6000610963565b565b600054610100900460ff166104f95760005460ff16156104fd565b303b155b6105605760405162461bcd60e51b815260206004820152602e60248201527f496e697469616c697a61626c653a20636f6e747261637420697320616c72656160448201526d191e481a5b9a5d1a585b1a5e995960921b60648201526084016102f7565b600054610100900460ff16158015610582576000805461ffff19166101011790555b61058a6109b5565b6105926109ec565b601e60c955602860ca55603260cb5580156103eb576000805461ff001916905550565b6033546001600160a01b031633146105df5760405162461bcd60e51b81526004016102f790610e46565b600083116105ff5760405162461bcd60e51b81526004016102f790610f65565b6000821161061f5760405162461bcd60e51b81526004016102f790610e7b565b6000811161063f5760405162461bcd60e51b81526004016102f790610fb9565b60c99290925560ca5560cb55565b600061065c838360c954610a23565b90505b9392505050565b6033546001600160a01b031633146106905760405162461bcd60e51b81526004016102f790610e46565b600081116106b05760405162461bcd60e51b81526004016102f790610fb9565b60cb55565b600061065c838360ca54610a23565b6033546001600160a01b031633146106ee5760405162461bcd60e51b81526004016102f790610e46565b6000811161070e5760405162461bcd60e51b81526004016102f790610f65565b60c955565b600061065c838360cb54610a23565b6033546001600160a01b0316331461074c5760405162461bcd60e51b81526004016102f790610e46565b6001600160a01b0381166107b15760405162461bcd60e51b815260206004820152602660248201527f4f776e61626c653a206e6577206f776e657220697320746865207a65726f206160448201526564647265737360d01b60648201526084016102f7565b6103eb81610963565b3b151590565b7f360894a13ba1a3210667c828492db98dca3e2076cc3735a920a3ca505d382bbc546001600160a01b031690565b6033546001600160a01b031633146103eb5760405162461bcd60e51b81526004016102f790610e46565b60006108226107c0565b905061082d84610a5f565b60008351118061083a5750815b1561084b576108498484610b04565b505b7f4910fdfa16fed3260ed0e7147f7cc6da11a60208b5b9406d12a635614ffd9143805460ff1661095c57805460ff191660011781556040516001600160a01b03831660248201526108ca90869060440160408051601f198184030181529190526020810180516001600160e01b0316631b2ce7f360e11b179052610b04565b50805460ff191681556108db6107c0565b6001600160a01b0316826001600160a01b0316146109535760405162461bcd60e51b815260206004820152602f60248201527f45524331393637557067726164653a207570677261646520627265616b73206660448201526e75727468657220757067726164657360881b60648201526084016102f7565b61095c85610bef565b5050505050565b603380546001600160a01b038381166001600160a01b0319831681179093556040519116919082907f8be0079c531659141344cd1fd0a4f28419497f9722a3daafe3b4186f6b6457e090600090a35050565b600054610100900460ff166109dc5760405162461bcd60e51b81526004016102f79061100e565b6109e4610c2f565b6104dc610c56565b600054610100900460ff16610a135760405162461bcd60e51b81526004016102f79061100e565b610a1b610c2f565b6104dc610c2f565b60006127108262015180610a37864261106f565b610a419088611086565b610a4b91906110a5565b610a559190611086565b61065c91906110a5565b803b610ac35760405162461bcd60e51b815260206004820152602d60248201527f455243313936373a206e657720696d706c656d656e746174696f6e206973206e60448201526c1bdd08184818dbdb9d1c9858dd609a1b60648201526084016102f7565b7f360894a13ba1a3210667c828492db98dca3e2076cc3735a920a3ca505d382bbc80546001600160a01b0319166001600160a01b0392909216919091179055565b6060823b610b635760405162461bcd60e51b815260206004820152602660248201527f416464726573733a2064656c65676174652063616c6c20746f206e6f6e2d636f6044820152651b9d1c9858dd60d21b60648201526084016102f7565b600080846001600160a01b031684604051610b7e91906110f7565b600060405180830381855af49150503d8060008114610bb9576040519150601f19603f3d011682016040523d82523d6000602084013e610bbe565b606091505b5091509150610be6828260405180606001604052806027815260200161114760279139610c86565b95945050505050565b610bf881610a5f565b6040516001600160a01b038216907fbc7cd75a20ee27fd9adebab32041f755214dbc6bffa90cc0225b39da2e5c2d3b90600090a250565b600054610100900460ff166104dc5760405162461bcd60e51b81526004016102f79061100e565b600054610100900460ff16610c7d5760405162461bcd60e51b81526004016102f79061100e565b6104dc33610963565b60608315610c9557508161065f565b825115610ca55782518084602001fd5b8160405162461bcd60e51b81526004016102f79190611113565b600060208284031215610cd157600080fd5b5035919050565b80356001600160a01b0381168114610cef57600080fd5b919050565b600060208284031215610d0657600080fd5b61065f82610cd8565b634e487b7160e01b600052604160045260246000fd5b60008060408385031215610d3857600080fd5b610d4183610cd8565b9150602083013567ffffffffffffffff80821115610d5e57600080fd5b818501915085601f830112610d7257600080fd5b813581811115610d8457610d84610d0f565b604051601f8201601f19908116603f01168101908382118183101715610dac57610dac610d0f565b81604052828152886020848701011115610dc557600080fd5b8260208601602083013760006020848301015280955050505050509250929050565b600080600060608486031215610dfc57600080fd5b505081359360208301359350604090920135919050565b600080600060608486031215610e2857600080fd5b610e3184610cd8565b95602085013595506040909401359392505050565b6020808252818101527f4f776e61626c653a2063616c6c6572206973206e6f7420746865206f776e6572604082015260600190565b60208082526032908201527f5265776172647343616c63756c61746f723a20476f6c642072657761726473206040820152710726174652073686f756c64206265203e20360741b606082015260800190565b6020808252602c908201527f46756e6374696f6e206d7573742062652063616c6c6564207468726f7567682060408201526b19195b1959d85d1958d85b1b60a21b606082015260800190565b6020808252602c908201527f46756e6374696f6e206d7573742062652063616c6c6564207468726f7567682060408201526b6163746976652070726f787960a01b606082015260800190565b60208082526034908201527f5265776172647343616c63756c61746f723a2053696c7665722072657761726460408201527307320726174652073686f756c64206265203e20360641b606082015260800190565b60208082526035908201527f5265776172647343616c63756c61746f723a204469616d6f6e642072657761726040820152740647320726174652073686f756c64206265203e203605c1b606082015260800190565b6020808252602b908201527f496e697469616c697a61626c653a20636f6e7472616374206973206e6f74206960408201526a6e697469616c697a696e6760a81b606082015260800190565b634e487b7160e01b600052601160045260246000fd5b60008282101561108157611081611059565b500390565b60008160001904831182151516156110a0576110a0611059565b500290565b6000826110c257634e487b7160e01b600052601260045260246000fd5b500490565b60005b838110156110e25781810151838201526020016110ca565b838111156110f1576000848401525b50505050565b600082516111098184602087016110c7565b9190910192915050565b60208152600082518060208401526111328160408501602087016110c7565b601f01601f1916919091016040019291505056fe416464726573733a206c6f772d6c6576656c2064656c65676174652063616c6c206661696c6564a2646970667358221220a2e7d3f813c065ecfd1474ac5457e8e4ca7bcc7a7e7c1b75e68207702dc5c1c064736f6c634300080b0033",
  "linkReferences": {},
  "deployedLinkReferences": {}
}